:020000040000FA
:100000000C9441010C9472010C9472010C947201D5
:100010000C9472010C9472010C9472010C94720194
:100020000C9472010C9472010C9472010C94720184
:100030000C9472010C9472010C9472010C94720174
:100040000C9472010C9472010C9472010C94720164
:100050000C9472010C9472010C9472010C94260C95
:100060000C9472010C949A0C0C94700C0C94720108
:100070000C9472010C9472010C9472010C94720134
:100080000C9472010C9472010C9472010C94720124
:100090000C9472010C9472010C9472010C94720114
:1000A0000C9472010C9472010C9472010C94720104
:1000B0000C9472010C9472010C9472010C947201F4
:1000C0000C9472010C9472010C9472010C947201E4
:1000D0000C9472010C9472010C9472010C947201D4
:1000E0000C9472010C941C030C9408030C94BB0137
:1000F0000C9401040C94D2010C94BF010C94C9011E
:100100000C94A2040C949C010C94A6040C94A701DA
:100110000C94D3010C94C5010C94AD010C94D7013F
:100120000C94A0010C942A030C9400040C94D00CA1
:100130000C94AA040C9498010C9462030C94CD01C5
:100140000C94AF030C94B1010C94CC020C9492016A
:100150000C94F9020C94B7010C94A4010C9492092C
:1001600000002100240027002A002D003000330069
:1001700001010000040107010A010000220025001E
:1001800028002B002E003100340002010000050180
:1001900008010B01000020002300260029002C008C
:1001A0002F003200000100000301060109010505CE
:1001B0000505070508080808020202020A0A0808DD
:1001C000040404040101010101010101030303030B
:1001D00003030303040707070C0C0C0C0C0C0C0C9A
:1001E0000202020206060606060606060B0B0B0BAB
:1001F0000B0B0B0B010210202008081020401020D0
:1002000040800201020108040201010204081020DA
:1002100040808040201008040201800402018040D8
:100220002010080402010804020101020408102041
:100230004080010204081020408000000A0B0209DF
:100240000C0D0E0807030401000000000000000070
:10025000000000000000000000000000000000009E
:10026000000000000000121110000000000000005B
:10027000000000000000000000000000000000007E
:10028000D00C11241FBECFEFD1E2DEBFCDBF00E006
:100290000CBF13E0A0E0B2E0ECE1F5E200E00BBF40
:1002A00002C007900D92A032B107D9F724E0A0E276
:1002B000B3E001C01D92AC3CB207E1F711E0C1E42C
:1002C000D1E000E006C021970109802FFE010E94C5
:1002D0008412C034D10780E00807A9F70E94D70D27
:1002E0000C948C120C9400008150823108F05AC09A
:1002F000E82FF0E08827E058FE4F8F4F0C948412CF
:10030000A001A401920198019C01D201A701AD01B5
:10031000B101B701BB01BF01C501C901D201CD01C6
:10032000D301D701809180008F778093800008955A
:10033000809180008F7DF9CF80918000877FF5CFFD
:1003400084B58F7784BD089584B58F7DFBCF809170
:10035000B0008F778093B00008958091B0008F7DBA
:10036000F9CF809190008F778093900008958091CD
:1003700090008F7DF9CF80919000877FF5CF80919D
:10038000A0008F778093A00008958091A0008F7DBA
:10039000F9CF8091A000877FF5CF809120018F77E2
:1003A000809320010895809120018F7DF9CF809165
:1003B0002001877FF5CFCF93DF93282F30E0F9011D
:1003C000E65CFD4F8491F901EC50FE4FD491F901A8
:1003D000E255FE4FC491CC23A1F081110E9474011B
:1003E000EC2FF0E0EE0FFF1FEC56FE4FA591B491FD
:1003F000EC91ED2381E090E009F480E0DF91CF9172
:10040000089580E090E0FACF1F93CF93DF93282FD9
:1004100030E0F901E65CFD4F8491F901EC50FE4FAC
:10042000D491F901E255FE4FC491CC23A9F0162FC7
:1004300081110E947401EC2FF0E0EE0FFF1FE658CF
:10044000FE4FA591B4918FB7F894EC91111108C0AB
:10045000D095DE23DC938FBFDF91CF911F9108955C
:10046000DE2BF8CFCF93DF9390E0FC01EC50FE4FF2
:10047000249182559E4FFC0184918823C9F090E01D
:10048000880F991FFC01E05AFE4FA591B491FC0121
:10049000E658FE4FC591D49161110DC09FB7F894F5
:1004A0008C91209582238C938881282328839FBF59
:1004B000DF91CF910895623051F49FB7F8943C9149
:1004C000822F809583238C93E8812E2BEFCF8FB7DB
:1004D000F894EC912E2B2C938FBFEACF3FB7F89472
:1004E0008091350390913603A0913703B091380382
:1004F00026B5A89B05C02F3F19F00196A11DB11D7F
:100500003FBFBA2FA92F982F8827BC01CD01620FBA
:10051000711D811D911D42E0660F771F881F991F75
:100520004A95D1F708958F929F92AF92BF92CF9242
:10053000DF92EF92FF924B015C010E946E026B0111
:100540007C010E946E026C197D098E099F09683E2C
:10055000734081059105A8F321E0821A9108A10852
:10056000B10888EEC80E83E0D81EE11CF11C81148E
:100570009104A104B10429F7FF90EF90DF90CF9090
:10058000BF90AF909F908F900895DC01ED91FC910A
:100590000190F081E02D1994AF92BF92CF92DF923B
:1005A000EF92FF920F931F93CF93DF936C017B0128
:1005B0008B01040F151FEB015E01AE18BF08C017B9
:1005C000D10759F06991D601ED91FC910190F0812C
:1005D000E02DC6011995892B79F7C501DF91CF91DF
:1005E0001F910F91FF90EF90DF90CF90BF90AF9051
:1005F0000895FC01538D448D252F30E0842F90E029
:10060000821B930B541710F0CF960895019708950D
:10061000FC01918D828D981761F0A28DAE0FBF2FD6
:10062000B11D5D968C91928D9F5F9F73928F90E02C
:1006300008958FEF9FEF0895FC01918D828D98179B
:1006400031F0828DE80FF11D858D90E008958FEFD8
:100650009FEF0895FC01918D228D892F90E0805CA1
:100660009F4F821B91098F739927089589E393E027
:100670000E942A0321E0892B09F420E0822F0895AB
:10068000FC01A48DA80FB92FB11DA35ABF4F2C9107
:10069000848D90E001968F739927848FA689B789FE
:1006A0002C93A089B1898C91837080648C93938DF5
:1006B000848D981306C00288F389E02D80818F7D98
:1006C00080830895EF92FF920F931F93CF93DF9350
:1006D000EC0181E0888F9B8D8C8D98131AC0E8897E
:1006E000F989808185FF15C09FB7F894EE89FF894D
:1006F0006083E889F98980818370806480839FBFEB
:1007000081E090E0DF91CF911F910F91FF90EF90EA
:100710000895F62E0B8D10E00F5F1F4F0F731127FA
:10072000E02E8C8D8E110CC00FB607FCFACFE88935
:10073000F989808185FFF5CFCE010E944003F1CF7A
:10074000EB8DEC0FFD2FF11DE35AFF4FF0829FB7A9
:10075000F8940B8FEA89FB8980818062CFCFCF9399
:10076000DF93EC01888D8823B9F0AA89BB89E889D9
:10077000F9898C9185FD03C0808186FD0DC00FB67F
:1007800007FCF7CF8C9185FFF2CF808185FFEDCFFD
:10079000CE010E944003E9CFDF91CF91089580E020
:1007A00090E0892B29F00E94360381110E940000FD
:1007B00080E090E0892B49F080E090E0892B29F0DF
:1007C0000E94000081110E94000080E090E0892BCF
:1007D00049F080E090E0892B29F00E94000081110F
:1007E0000E94000080E090E0892B49F080E090E0DA
:1007F000892B29F00E94000081110C9400000895BB
:10080000089590E080E00895CF93DF93DC0126E027
:10081000629FA00DB11D112490965C934E935F973B
:1008200021E091962C939197FC01E359FF4F0190A1
:10083000F081E02DEC01C459DF4F2881222341F0E3
:10084000309719F0DC01662329F0DF91CF910895EC
:100850003097D9F35C968C91DF91CF911994CF9218
:10086000DF92EF92FF920F931F93CF93DF93FC01E0
:1008700026E0629FE00DF11D112411A2278D30A109
:100880002130310559F188F02230310509F452C088
:100890002330310509F453C0DF91CF911F910F919F
:1008A000FF90EF90DF90CF9008954423A9F3EC01DF
:1008B00041E050E00E9404042FB7F8948091310386
:1008C00090913203A0913303B09134032FBFC85AE3
:1008D000DF4F88839983AA83BB83DECF2FB7F89439
:1008E000C0903103D0903203E0903303F090340392
:1008F0002FBFFC01E85AFF4F008111812281338113
:10090000C01AD10AE20AF30A72960081118130E01E
:1009100020E00C151D052E053F0560F442E050E077
:10092000DF91CF911F910F91FF90EF90DF90CF90CB
:100930000C9404044111B0CF43E050E0F1CF50E0FB
:1009400040E0EECF862F642F0C943202862F642F66
:100950000C940402862F0C94DB012F923F924F924D
:100960005F926F927F928F929F92AF92BF92CF923F
:10097000DF92EF92FF920F931F93CF93DF93CDB748
:10098000DEB72C970FB6F894DEBF0FBECDBF9C012B
:1009900024593F4F3A83298321E0A981BA812C93BE
:1009A0004FB7F89400913103109132032091330333
:1009B000309134034FBFFC01E45AFF4FFC83EB83BB
:1009C0004081518162817381041B150B260B370B0B
:1009D0003C964081518170E060E04017510762070A
:1009E000730708F059C19C878B8710E06C01F6E60D
:1009F000CF0ED11C7C0122E6E20EF11CD6018C91B7
:100A0000181758F4D701ED91FC91E10FF11D62E048
:100A100080810E9432021F5FF1CF312C4B845C84B5
:100A2000B7E64B0E511CEB84FC84E4E6EE0EF11CA1
:100A3000812C912C540183942B853C852E593F4F5A
:100A40003A872987D2018C91381608F063C0032DAC
:100A500010E0D701ED91FC91E00FF11F61E0808182
:100A60000E943202D701ED91FC91E00FF11F60E08E
:100A700080810E940402D501C401032C04C0880FA8
:100A8000991FAA1FBB1F0A94D2F79E838D83FC0176
:100A9000E095F095F887EF83212CD6018C912816EC
:100AA00020F5622C712CA985BA85ED91FC91E60D9B
:100AB000F71D80810E94DB01660C771CEB85FC85AD
:100AC000E60DF71D892B51F4808591852D813E819E
:100AD000822B932B918780872394DFCF808591850C
:100AE0004F81588584239523F5CFD701ED91FC9153
:100AF000E00FF11F61E080810E940402F701808114
:100B00009181080F191F60E0D8018C910E94320278
:100B1000339498CF0B851C85C801CC9678012FEFB4
:100B20003FEFF701478D50A1452B21F4148E368FEE
:100B3000258F11A2F6E0EF0EF11CE816F90689F7F1
:100B4000912CAB84BC8420E6A20EB11C96E0392E19
:100B5000D6018C91981608F059C0812C692C712C03
:100B6000B4E06B0E711C660C771CEB85FC856E0E79
:100B70007F1ED2018C91881608F046C0F301408197
:100B80005181082C02C0569547950A94E2F7989E29
:100B9000C0011124880D911DEB85FC8560E0258D39
:100BA000368D8217930709F47CC06F5F36966A30E2
:100BB000B1F740FF27C0EB85FC8570E060E0248D35
:100BC00021111AC0D501ED91FC91E80FF91F208188
:100BD000369EF001379EF00D11244B855C85E40FA5
:100BE000F51F248F968F858F10A2178E41E08B857D
:100BF0009C850E942F0406C06F5F7F4F36966A3037
:100C00007105E9F68394B5CF9394A2CF80E0D80123
:100C100091969C919111892F0A5F1F4FE016F10662
:100C2000B1F79FB7F894409131035091320360912E
:100C30003303709134039FBFEB81FC814083518368
:100C400062837383882341F1AB85BC8591968C9137
:100C50009197882309F15F968D919C9190970197C8
:100C6000D9F45C968C912C960FB6F894DEBF0FBE2B
:100C7000CDBFDF91CF911F910F91FF90EF90DF904B
:100C8000CF90BF90AF909F908F907F906F905F902C
:100C90004F903F902F900895E981FA81108280E073
:100CA000E2CF4170A4CF982FA5E2B3E0FD0130E080
:100CB00020E080814181891365C094130BC052816B
:100CC000511162C02F5F3F4F822F880F820F08950E
:100CD00089130AC08281891307C0411105C0822F80
:100CE000880F820F8E5F08952F5F3F4F339623301A
:100CF0003105F9F680E03D9112962C9112979313ED
:100D00004DC0291309C015964C911597411148C043
:100D1000895F089593134BC015963C9115979313D3
:100D200046C0211144C08C5F0895921306C02091E3
:100D30002D03921302C08823E1F020912703921320
:100D40001AC030912B0398130EC0332351F0309109
:100D50002B03931312C0211112C083E0089589E080
:100D6000089587E00895891791F3931306C08111C0
:100D700004C085E00895981751F387E3089592170A
:100D8000B1F3FBCF9413B0CF52815913A1CF81118E
:100D9000ABCF822F880F820F8F5F0895291307C072
:100DA00015964C9115979413B5CF3323A9F38F5F04
:100DB000833009F0A0CF209125038091290392135D
:100DC0000EC09813B4CF30912D03332341F23091EC
:100DD0002D039313AACF2111B0CF81E0089598136A
:100DE000ACCFF5CF8A9A64EF71E080E090E00E948A
:100DF00093028A980895FB0101900020E9F731974A
:100E0000AF01461B570BDC01ED91FC910280F38191
:100E1000E02D1994CF93DF93EC0160E08E810E9466
:100E2000040261E08E810E94040260E08E810E94D3
:100E300004028BE891E00197F1F7DF91CF910895DB
:100E4000CF92DF92EF92FF920F931F93CF93DF9396
:100E50006C017C0187E0E80EF11CD0E0C0E0062FB9
:100E600010E0B8010C2E02C0759567950A94E2F760
:100E70006170F70181917F010E9404022196C430C4
:100E8000D10579F7C601DF91CF911F910F91FF90A6
:100E9000EF90DF90CF900C940A07CF92DF92EF9201
:100EA000FF920F931F93CF93DF93EC01F62E642FE5
:100EB0008C810E9404028D818F3F19F060E00E94B6
:100EC00004020F2D10E08F8584FF25C06E0187E09E
:100ED000C80ED11CF12CE12CB8010E2C02C0759566
:100EE00067950A94E2F76170F60181916F010E94A3
:100EF0000402FFEFEF1AFF0A88E0E816F10461F739
:100F0000CE01DF91CF911F910F91FF90EF90DF9075
:100F1000CF900C940A07B80184E0759567958A957F
:100F2000E1F7CE010E9420076F2DCE01DF91CF9116
:100F30001F910F91FF90EF90DF90CF900C942007BE
:100F400040E0682F84EB94E00C944D0781E00E9410
:100F5000A0078BE39FE10197F1F70895CF93DF930B
:100F6000613029F09091C30498609093C30460931A
:100F7000C7041092C80490E49093C9048093CA04F3
:100F8000805C8093CB0461E08091B8040E943202BF
:100F90008091B9048F3F19F061E00E94320261E054
:100FA0008091BA040E943202C4EBD4E09E01245B1B
:100FB00034408091C30484FD0BC084E090E021960E
:100FC0002817390744F461E08E810E943202EECF87
:100FD00088E090E0F4CF8BE39DE00197F1F760E0CB
:100FE0008091B8040E94040260E08091BA040E94DB
:100FF00004028091B9048F3F19F060E00E9404025E
:101000008091C30484FD34C063E084EB94E00E94CB
:101010002007CBE4D6E4CE010197F1F763E084EB3F
:1010200094E00E9420072197F1F763E084EB94E0BD
:101030000E94200783E592E00197F1F762E084EBDC
:1010400094E00E9420078091C30480620E94A00760
:1010500084E08093C4048CE00E94A0070E94A6074D
:1010600082E08093C50486E0DF91CF910C94A007C5
:1010700080620E94A0078BE496E40197F1F78091CB
:10108000C30480620E94A00783E592E00197F1F714
:101090008091C30480620E94A007D5CF9091C704BD
:1010A000691710F06FEF690FE62FF0E0EC54FB4F7B
:1010B0009489890F80680C94A007CF93DF93C82F81
:1010C00010922503109226031092270310922803F2
:1010D0001092290310922A0310922B0310922C03D2
:1010E00010922D0360E080E00E944E08C33509F0A5
:1010F00091C06CE472E084EB94E00E94FB06809166
:101100002E0361E0882309F445C080E00E944E0868
:1011100061E672E084EB94E00E94FB0662E080E00E
:101120000E944E086EE672E084EB94E00E94FB069B
:101130006091010284EB94E00E94C50262E08BE0C2
:101140000E944E0867E772E084EB94E00E94FB0681
:101150006091000284EB94E00E94C50263E080E0AD
:101160000E944E0860E872E084EB94E00E94FB0667
:1011700080912403811108C06AEE72E084EB94E050
:10118000DF91CF910C94FB06813009F040C06AEFEB
:1011900072E0F4CF80E00E944E086CE872E084EBCD
:1011A00094E00E94FB0662E080E00E944E086EE63A
:1011B00072E084EB94E00E94FB066091010284EBF4
:1011C00094E00E94C50262E08BE00E944E0869E94B
:1011D00072E084EB94E00E94FB066091000284EBD5
:1011E00094E00E94C50263E080E00E944E0860E83F
:1011F00072E084EB94E00E94FB0680912403882334
:1012000009F4BACF6AE073E0813009F4B7CFDF9117
:10121000CF910895C734D9F762EA72E084EB94E085
:101220000E94FB0667EB72E089E393E00E94FB06F5
:101230006EEB72E089E393E00E94FB06C5E2D3E027
:10124000688116160CF06DE289E393E00E94C502F6
:10125000698116160CF06DE289E393E00E94C502E5
:101260006A8116160CF06DE289E393E00E94C502D4
:101270006EEB72E089E393E00E94FB06239683E025
:10128000CE32D807E9F680912E0367E672E081112D
:1012900002C068E472E089E393E00E94FB066EEB13
:1012A00072E089E393E00E94FB066091010289E30A
:1012B00093E00E94C5026EEB72E089E393E00E9426
:1012C000FB066091000289E393E00E94C5026EEB89
:1012D00072E089E393E00E94FB0660EC72E089E330
:1012E00093E00E94FB066EEB72E089E393E00E94BC
:1012F000FB06809124036AEE72E0882351F081306E
:1013000061F480912E0368E472E0882311F06AEFA3
:1013100072E089E393E00E94FB0665EC72E089E3EA
:1013200093E02ECF41E00E944D0781E090E00895C8
:101330000F931F93CF93DF93C82F162F83300CF496
:101340000BC186300CF002C1C350D1E020E030E088
:10135000A901609120037091210380912203909153
:1013600023030E94C611811115C00E946E020E94C3
:10137000FA116093200370932103809322039093CA
:1013800023030E94CB11611571058105910511F0B0
:101390000E945A118D2FDD0F990BFC01EE0FFF1FDC
:1013A000E80FF91FEB5DFC4FEC0FF11DC7FDFA953F
:1013B0008081811145C21083C5E2D3E02EE233E083
:1013C000FE0190811913CAC091811913C7C092817F
:1013D0001913C4C0009124039091240341E0942781
:1013E00090932403E5E2F3E0023008F0EBC067ECF1
:1013F00072E089E393E00E94FB066EEB72E089E302
:1014000093E00E94FB06688116160CF06DE289E3FA
:1014100093E00E94C502698116160CF06DE289E323
:1014200093E00E94C5026A8116160CF06DE289E312
:1014300093E00E94C5026EEB72E089E393E00E94A4
:10144000FB06239683E0CE32D807E9F680912E037F
:1014500068E472E0882311F067E672E089E393E0C4
:101460000E94FB066EEB72E089E393E00E94FB06AC
:101470006091010289E393E00E94C5026EEB72E085
:1014800089E393E00E94FB066091000289E393E008
:101490000E94C5026EEB72E089E393E00E94FB06B6
:1014A0006AEE72E0002341F080912E036AEF72E051
:1014B000811102C068E472E089E393E00E94FB06B8
:1014C00065EC72E089E393E00E94FB06C5E060E909
:1014D00071E080E090E00E94930263E080E00E946F
:1014E0004E086FEC72E084EB94E00E94FB066AEF1A
:1014F00070E080E090E00E94930263E080E00E9450
:101500004E0862EE72E0002341F080912E0362EFFC
:1015100072E0811102C062E073E084EB94E00E940B
:10152000FB06C150A1F60E94A6076AEF70E080E0BA
:1015300090E00E94930283E50E945D0881E0809321
:101540002F03DF91CF911F910F91089589301CF4E3
:10155000C650D2E0FBCEC0E0D0E0F8CE33962E17D6
:101560003F0709F02ECF48E253E0E5E2F3E0919126
:10157000191307C09281191304C09581191709F432
:1015800029CF4E175F0799F7009124039091250307
:10159000191309C090912903191305C090912D03C7
:1015A000191709F419CF90912703191309C09091C5
:1015B0002903191305C090912B03191709F40CCFB7
:1015C00007E30ACF9081911101C08F5F9181911142
:1015D00001C08F5F9281911101C08F5F33962E17EA
:1015E0003F0781F7811189C067EC72E089E393E0DE
:1015F0000E94FB066EEB72E089E393E00E94FB061B
:10160000688116160CF06DE289E393E00E94C50232
:10161000698116160CF06DE289E393E00E94C50221
:101620006A8116160CF06DE289E393E00E94C50210
:101630006EEB72E089E393E00E94FB06239683E061
:10164000CE32D807E9F680912E0368E472E0882351
:1016500011F067E672E089E393E00E94FB066EEB0F
:1016600072E089E393E00E94FB066091010289E346
:1016700093E00E94C5026EEB72E089E393E00E9462
:10168000FB066091000289E393E00E94C5026EEBC5
:1016900072E089E393E00E94FB066AE173E089E36C
:1016A00093E00E94FB0665EC72E089E393E00E9400
:1016B000FB06C5E060E971E080E090E00E949302E3
:1016C00063E080E00E944E086FEC72E084EB94E0EF
:1016D0000E94FB066AEF70E080E090E00E949302B7
:1016E00063E080E00E944E0862E173E084EB94E0E6
:1016F0000E94FB06C150F1F616CF67EB72E089E35A
:1017000093E00E94FB066EEB72E089E393E00E9497
:10171000FB06688116160CF06DE289E393E00E94E7
:10172000C502698116160CF06DE289E393E00E9410
:10173000C5026A8116160CF06DE289E393E00E94FF
:10174000C5026EEB72E089E393E00E94FB062396EC
:1017500083E0CE32D807E9F680912E0368E472E088
:10176000882311F067E672E089E393E00E94FB06AC
:101770006EEB72E089E393E00E94FB066091010248
:1017800089E393E00E94C5026EEB72E089E393E087
:101790000E94FB066091000289E393E00E94C5026B
:1017A0006EEB72E089E393E00E94FB0660EC72E06E
:1017B00089E393E00E94FB066EEB72E089E393E01D
:1017C0000E94FB0663E080E00E944E0860E872E041
:1017D00084EB94E00E94FB0680912403811116C0E3
:1017E0006AEE72E084EB94E00E94FB066AEE72E01F
:1017F00089E393E00E94FB0665EC72E089E393E0E5
:10180000DF91CF911F910F910C94FB068130A1F7CE
:1018100080912E03811109C06AE073E084EB94E0AB
:101820000E94FB0668E472E0E3CF813029F76AEF9B
:1018300072E084EB94E00E94FB066AEF72E0D8CF7E
:10184000DF91CF911F910F910C94F2061F920F928E
:101850000FB60F9211242F933F938F939F93AF93C3
:10186000BF938091310390913203A0913303B091E3
:1018700034033091300323E0230F2D3758F50196C0
:10188000A11DB11D20933003809331039093320347
:10189000A0933303B09334038091350390913603C2
:1018A000A0913703B09138030196A11DB11D80931B
:1018B000350390933603A0933703B0933803BF9159
:1018C000AF919F918F913F912F910F900FBE0F90ED
:1018D0001F90189526E8230F0296A11DB11DD2CFA7
:1018E0001F920F920FB60F9211240BB60F922F93E7
:1018F0003F934F935F936F937F938F939F93AF9398
:10190000BF93EF93FF9389E393E00E944003FF911D
:10191000EF91BF91AF919F918F917F916F915F9167
:101920004F913F912F910F900BBE0F900FBE0F90D4
:101930001F9018951F920F920FB60F9211240BB69D
:101940000F922F938F939F93EF93FF93E09149030F
:10195000F0914A038081E0914F03F091500382FDA2
:101960001DC09081809152038F5F8F73209153032C
:10197000821741F0E0915203F0E0E75CFC4F958F55
:1019800080935203FF91EF919F918F912F910F9030
:101990000BBE0F900FBE0F901F9018958081F2CF55
:1019A00010923C0310923B0388EE93E0A0E0B0E07D
:1019B00080933D0390933E03A0933F03B093400375
:1019C00084E292E090933A038093390385EC90E0AF
:1019D000909346038093450384EC90E090934803F2
:1019E0008093470380EC90E090934A0380934903EF
:1019F00081EC90E090934C0380934B0382EC90E059
:101A000090934E0380934D0386EC90E090935003A7
:101A100080934F0310925203109253031092540379
:101A2000109255031092B7041092B60480E492E02D
:101A30009093B5048093B40485E28093B8048FEF4B
:101A40008093B90484E28093BA0483E28093BB0458
:101A500082E28093BC0481E28093BD0480E28093A3
:101A6000BE041092BF041092C0041092C1041092E0
:101A7000C2041092C30461E080E10E94AE0710929C
:101A8000470410924B0410924A0410924C0486E3CF
:101A900092E09093460480934504E1E6F4E01082DE
:101AA000148213821582369684E0ED39F807B9F76F
:101AB0008CE092E09093A8048093A70489E092E0E0
:101AC0009093AA048093A90484E08093AB0483E0FC
:101AD0008093AC0480E192E09093A6048093A504E7
:101AE0008AE090E09093AE048093AD0484EF91E09F
:101AF0009093B0048093AF041092B3041092B20498
:101B00001092A1041092A2041092A3041092A404B3
:101B10001092B1041092D8031092DC031092DB03F0
:101B20001092DD0386E392E09093D7038093D6036F
:101B3000E2EFF3E08EE294E01082148213821582C9
:101B400036968E179F07C1F785E092E0909339048F
:101B50008093380482E092E090933B0480933A04AF
:101B600084E080933C0483E080933D0480E192E034
:101B700090933704809336048AE090E090933F047A
:101B800080933E0484EF91E090934104809340045D
:101B900010924404109243041092320410923304C1
:101BA0001092340410923504109242040895CF9399
:101BB000DF9300D000D0CDB7DEB7789484B58260D3
:101BC00084BD84B5816084BD85B5826085BD85B5E1
:101BD000816085BD80916E00816080936E0010925F
:101BE00081008091810082608093810080918100DA
:101BF000816080938100809180008160809380006B
:101C00008091B10084608093B1008091B0008160C8
:101C10008093B000809191008260809391008091C8
:101C20009100816080939100809190008160809309
:101C300090008091A10082608093A1008091A1001A
:101C400081608093A1008091A00081608093A000BA
:101C50008091210182608093210180912101816026
:101C600080932101809120018160809320018091E7
:101C70007A00846080937A0080917A0082608093F9
:101C80007A0080917A00816080937A0080917A0056
:101C9000806880937A001092C100E0914903F0912E
:101CA0004A0382E08083E0914903F0914A03108265
:101CB000E0914503F09146031082E0914703F091D3
:101CC000480380E1808310925103E0914D03F0912D
:101CD0004E0386E08083E0914B03F0914C038081BA
:101CE00080618083E0914B03F0914C038081886098
:101CF0008083E0914B03F0914C0380818068808366
:101D0000E0914B03F0914C0380818F7D808364E0F0
:101D100084E10E94AE07829A9EE2292E93E0392E3A
:101D200023E0C22ED12CE12CF12C85E494E00E941A
:101D3000AD04898386ED93E00E94AD04182F2981BC
:101D4000233209F445C19CF4222309F462C0909126
:101D50002F03923009F0A9C1809124038111BBC0E7
:101D600060910102898181530E94980952C080913B
:101D70002F0399819A3261F0903349F7882391F0CB
:101D8000813009F0ABC087E40E945D0882E00EC09C
:101D9000823079F40E94A6076AEF70E080E090E05C
:101DA0000E94930283E50E945D0881E080932F03E7
:101DB00030C0813009F08FC0809101029091000203
:101DC000909301028093000262E080E00E944E083E
:101DD0006EE672E084EB94E00E94FB0660910102E3
:101DE00084EB94E00E94C50280912E0362E0882378
:101DF00009F46BC08BE00E944E0867E772E084EB49
:101E000094E00E94FB066091000284EB94E00E9443
:101E1000C50280912E038130B1F480912F0382306E
:101E200091F4133209F469C10CF062C1112359F025
:101E300080912403813009F060C1609100028FEC31
:101E4000810F0E94980980912E0381115EC18091BB
:101E50002F03823009F059C180912403813009F0A9
:101E600054C160E273E080E090E00E9493020E941F
:101E70000B112B013C010E940B114B015C010E94D4
:101E80000B1169837A838B839C83809101020E946A
:101E90005306182FF0910002FD838F2F0E945306E6
:101EA0008E83173309F45CC1873359F0C301B20143
:101EB00025E630E040E050E00E9463116B350CF401
:101EC0001FC16D818FEF810F1EC18BE00E944E08F4
:101ED00069E972E094CF0E94F2069BCF823009F04C
:101EE00098CF67EC72E089E393E00E94FB066EEB0B
:101EF00072E089E393E00E94FB06E5E2F3E0FA83F7
:101F0000E983E981FA81608116160CF06DE289E3BC
:101F100093E00E94C502E981FA81618116160CF0F6
:101F20006DE289E393E00E94C502E981FA81628152
:101F300016160CF06DE289E393E00E94C5026EEB89
:101F400072E089E393E00E94FB0689819A810396FF
:101F50009A83898328163906A1F680912E0368E4B6
:101F600072E0882311F067E672E089E393E00E9453
:101F7000FB066EEB72E089E393E00E94FB06609142
:101F8000010289E393E00E94C5026EEB72E089E3EF
:101F900093E00E94FB066091000289E393E00E94B7
:101FA000C5026EEB72E089E393E00E94FB0660ECF1
:101FB00072E089E393E00E94FB0665EC72E089E33E
:101FC00093E00E94FB060E94A60710922F0321CFE8
:101FD00080912F03813009F07ECF90912E038927C5
:101FE00080932E0361E080E0913099F10E944E08C9
:101FF00061E672E084EB94E00E94FB0662E08BE015
:102000000E944E0867E772E084EB94E00E94FB06B2
:102010006091000284EB94E00E94C50263E080E0DE
:102020000E944E0860E872E084EB94E00E94FB0698
:1020300080912403811107C06AEE72E084EB94E082
:102040000E94FB06E6CE813009F0E3CE6AEF72E033
:10205000F5CF0E944E086CE872E084EB94E00E9499
:10206000FB0662E08BE00E944E0869E972E084EBB7
:1020700094E00E94FB066091000284EB94E00E94D1
:10208000C50263E080E00E944E0860E872E084EBE5
:1020900094E00E94FB0680912403882369F281303A
:1020A00009F0B7CE6AE073E0C9CF913009F013CFE1
:1020B000E981E83309F00FCF8091240389278093C9
:1020C000240363E080E00E944E0860E872E084EB45
:1020D00094E00E94FB0680912403882309F4ACCF8E
:1020E000813009F096CE80912E038111AFCFDACFE7
:1020F0001A3219F0103309F09BCE0E94F206A3CEDB
:102100006D818E8181500E9498090E94CF030DCE6F
:102110000E940B11A70196010E9463116D830E941A
:102120000B11A70196010E946311962F8D81282F14
:10213000880F330BF901EE0FFF1FE20FF31FEB5D6A
:10214000FC4FE90FF11D97FDFA9580818111E0CFD9
:102150008D81880FED818E0F60910002890FD3CFA2
:10216000FE81F73369F6C501B401A70196010E940B
:1021700063116D8369817A818B819C81D2CF8F922B
:102180009F92AF92BF92CF92DF92EF92FF92CF9346
:10219000DF93EC01688179818A819B8161157105EA
:1021A0008105910521F464E279ED8BE597E02DE15D
:1021B00033EF41E050E00E94631149015A019B0155
:1021C000AC01A7EAB1E40E9482116B017C01ACEE84
:1021D000B4EFA50194010E949011C60ED71EE81E0F
:1021E000F91EF7FE06C081E0C81AD108E10880E8B0
:1021F000F80AC882D982EA82FB82C701B6019F77BA
:10220000DF91CF91FF90EF90DF90CF90BF90AF9094
:102210009F908F9008958F929F92AF92BF92CF928E
:10222000DF92EF92FF9260911C0270911D028091EB
:102230001E0290911F02611571058105910521F41F
:1022400064E279ED8BE597E02DE133EF41E050E07A
:102250000E94631149015A019B01AC01A7EAB1E454
:102260000E9482116B017C01ACEEB4EFA5019401D8
:102270000E949011C60ED71EE81EF91EF7FE06C07A
:1022800081E0C81AD108E10880E8F80AC0921C026F
:10229000D0921D02E0921E02F0921F02C701B60109
:1022A0009F77FF90EF90DF90CF90BF90AF909F907F
:1022B0008F90089560931C0270931D0280931E02FC
:1022C00090931F020895052E97FB1EF400940E9420
:1022D0007A1157FD07D00E94951107FC03D04EF4E8
:1022E0000C947A1150954095309521953F4F4F4F62
:1022F0005F4F089590958095709561957F4F8F4FB2
:102300009F4F08950E94B711A59F900DB49F900D07
:10231000A49F800D911D11240895B7FF0C94821184
:102320000E948211821B930B0895A1E21A2EAA1B10
:10233000BB1BFD010DC0AA1FBB1FEE1FFF1FA21775
:10234000B307E407F50720F0A21BB30BE40BF50B72
:10235000661F771F881F991F1A9469F760957095FB
:10236000809590959B01AC01BD01CF010895A29F7E
:10237000B001B39FC001A39F700D811D1124911D59
:10238000B29F700D811D1124911D08950E94371276
:1023900008F481E008950E94631288F09F5798F036
:1023A000B92F9927B751B0F0E1F0660F771F881F5A
:1023B000991F1AF0BA95C9F714C0B13091F00E9474
:1023C0007D12B1E008950C947D12672F782F882735
:1023D000B85F39F0B93FCCF3869577956795B3959B
:1023E000D9F73EF490958095709561957F4F8F4F0A
:1023F0009F4F0895E89409C097FB3EF4909580950F
:10240000709561957F4F8F4F9F4F9923A9F0F92FBA
:1024100096E9BB279395F695879577956795B79538
:10242000F111F8CFFAF4BB0F11F460FF1BC06F5F1E
:102430007F4F8F4F9F4F16C0882311F096E911C030
:10244000772321F09EE8872F762F05C0662371F051
:1024500096E8862F70E060E02AF09A95660F771F65
:10246000881FDAF7880F9695879597F90895990F41
:102470000008550FAA0BE0E8FEEF16161706E8074E
:10248000F907C0F012161306E407F50798F0621B6F
:10249000730B840B950B39F40A2661F0232B242B44
:1024A000252B21F408950A2609F4A140A6958FEF63
:1024B000811D811D089557FD9058440F551F59F0F7
:1024C0005F3F71F04795880F97FB991F61F09F3F21
:1024D00079F087950895121613061406551FF2CF4A
:1024E0004695F1DF08C0161617061806991FF1CF9A
:1024F00086957105610508940895E894BB276627C1
:102500007727CB0197F90895EE0FFF1F881F8BBF28
:102510000790F691E02D1994F894FFCF4F580A0BCD
:102520000C353433321A1B1C161718193132333458
:1025300035363738392A302301000000000000000A
:102540006203CC02F902AF032A0308031C03000054
:102550000000A204A604AA04000000009209CC0214
:1025600001040004426F74002E2E2E2E2E2053657F
:102570007474696E6773202E2E2E2E2E004D6F649C
:10258000653A20506C6179657200506C61796572B2
:10259000313A00506C61796572323A004E6F7720A3
:1025A000706C6179733A20004D6F64653A20426F18
:1025B000742020200020202020426F743A002E2E0C
:1025C0002E2E2E2047616D6520582F4F202E2E2E47
:1025D0002E2E007B7374617274002C004E6F6E653A
:1025E000007D007B77696E6E6572002020202020C0
:1025F000202020202020202020202020200057697B
:102600006E6E65723A20506C61796572310057695F
:102610006E6E65723A20506C61796572320057694E
:102620006E6E65723A20426F742020202000576938
:0C2630006E6E65723A2044726177000003
:020000040003F7
:10E000000D9489F10D94B2F10D94B2F10D94B2F129
:10E010000D94B2F10D94B2F10D94B2F10D94B2F1F0
:10E020000D94B2F10D94B2F10D94B2F10D94B2F1E0
:10E030000D94B2F10D94B2F10D94B2F10D94B2F1D0
:10E040000D94B2F10D94B2F10D94B2F10D94B2F1C0
:10E050000D94B2F10D94B2F10D94B2F10D94B2F1B0
:10E060000D94B2F10D94B2F10D94B2F10D94B2F1A0
:10E070000D94B2F10D94B2F10D94B2F10D94B2F190
:10E080000D94B2F10D94B2F10D94B2F10D94B2F180
:10E090000D94B2F10D94B2F10D94B2F10D94B2F170
:10E0A0000D94B2F10D94B2F10D94B2F10D94B2F160
:10E0B0000D94B2F10D94B2F10D94B2F10D94B2F150
:10E0C0000D94B2F10D94B2F10D94B2F10D94B2F140
:10E0D0000D94B2F10D94B2F10D94B2F10D94B2F130
:10E0E0000D94B2F141546D656761323536300041AF
:10E0F000726475696E6F206578706C6F72657220DE
:10E1000073746B3530305632206279204D4C530099
:10E11000426F6F746C6F616465723E004875683F52
:10E1200000436F6D70696C6564206F6E203D200048
:10E130004350552054797065202020203D20005FF9
:10E140005F4156525F415243485F5F3D2000415658
:10E1500052204C696243205665723D20004743437C
:10E160002056657273696F6E203D20004350552024
:10E1700049442020202020203D20004C6F7720663D
:10E18000757365202020203D20004869676820665F
:10E190007573652020203D200045787420667573D6
:10E1A00065202020203D20004C6F636B2066757336
:10E1B000652020203D20004D617220203720323024
:10E1C000313300312E362E3800342E332E350056A2
:10E1D00023202020414444522020206F7020636F70
:10E1E00064652020202020696E73747275637469E1
:10E1F0006F6E2061646472202020496E74657272B3
:10E20000757074006E6F20766563746F7200726A49
:10E210006D702020006A6D70200057686174207056
:10E220006F72743A00506F7274206E6F7420737541
:10E2300070706F72746564004D7573742062652030
:10E2400061206C6574746572002000577269747483
:10E25000696E672045450052656164696E672045B7
:10E26000450045452065727220636E743D00504F35
:10E27000525400303D5A65726F2061646472003FF1
:10E280003D43505520737461747300403D454550C3
:10E29000524F4D207465737400423D426C696E6B41
:10E2A000204C454400453D44756D70204545505215
:10E2B0004F4D00463D44756D7020464C415348001B
:10E2C000483D48656C70004C3D4C69737420492F83
:10E2D0004F20506F72747300513D51756974005234
:10E2E0003D44756D702052414D00563D73686F7707
:10E2F00020696E7465727275707420566563746FF0
:10E30000727300593D506F727420626C696E6B00BD
:10E310002A0011241FBECFEFD1E2DEBFCDBF01E046
:10E320000CBF12E0A0E0B2E0EEE1FDEF03E00BBFB6
:10E3300002C007900D92A030B107D9F712E0A0E01B
:10E34000B2E001C01D92AE30B107E1F70F9460F367
:10E350000D948DFE01E20EBF0FEF0DBF11241FBE05
:10E360000D9460F30D9400F020E030E040ED57E0B4
:10E3700005C0FA013197F1F72F5F3F4F2817390792
:10E38000C0F308959C01260F311DC901A0E0B0E043
:10E390002F5F3F4FABBFFC018791882361F08093D3
:10E3A000C6008091C00086FFFCCF8091C0008064D1
:10E3B0008093C000EACF08958DE08093C6008091DD
:10E3C000C00086FFFCCF8091C00080648093C000B5
:10E3D0008AE08093C6008091C00086FFFCCF8091C8
:10E3E000C00080648093C00008950F94C2F10F9420
:10E3F000DCF10895FC019081992359F09093C600B7
:10E400008091C00086FFFCCF8091C0008064809323
:10E41000C0003196992379F70895282F982F929567
:10E420009F70892F805D8A3308F0895F8093C600D2
:10E430008091C00086FFFCCF8091C00080648093F3
:10E44000C000822F8F70982F905D9A3308F0995FEB
:10E450009093C6008091C00086FFFCCF8091C000E1
:10E4600080648093C00008959C01FB01853691056E
:10E470001CF46330710594F0C90164E670E00F94F8
:10E480002EFE605D7F4F6093C6008091C00086FFC6
:10E49000FCCF8091C00080648093C0002B30310598
:10E4A00014F43297B4F0C90164E670E00F942EFEC4
:10E4B0006AE070E00F942EFE605D7F4F6093C600AF
:10E4C0008091C00086FFFCCF8091C0008064809363
:10E4D000C000C9016AE070E00F942EFEC0968093E0
:10E4E000C6008091C00086FFFCCF8091C000806490
:10E4F0008093C00008951F93182F8EE692EE60E07F
:10E500000F94C2F11093C6008091C00086FFFCCF2B
:10E510008091C00080648093C0000F94DCF11F9153
:10E5200008952F923F924F925F926F927F928F92B7
:10E530009F92AF92BF92CF92DF92EF92FF920F9392
:10E540001F93DF93CF93CDB7DEB762970FB6F894E2
:10E55000DEBF0FBECDBF382E622ECA01DB015C01CB
:10E560006D01772420E2222E2E010894411C511CBB
:10E570008BC081E0A81680E0B80681E0C80680E084
:10E58000D80628F0C601AA27BB270F940DF2BB2797
:10E59000AD2D9C2D8B2D0F940DF28A2D0F940DF225
:10E5A0002092C6008091C00086FFFCCF8091C00001
:10E5B00080648093C0009DE29093C6008091C0006B
:10E5C00086FFFCCF8091C00080648093C0002092C1
:10E5D000C6008091C00086FFFCCF8091C00080649F
:10E5E0008093C00019828601750188249924A1E0D6
:10E5F0003A1651F03A1620F0B2E03B1661F409C029
:10E600000BBFF701779007C0C7010F9477FE782EF4
:10E6100002C0F7017080872D0F940DF22092C60082
:10E620008091C00086FFFCCF8091C0008064809301
:10E63000C000872D8052F401EF70F0708F3520F408
:10E64000E40DF51D708204C0E40DF51D8EE280839B
:10E650000894E11CF11C011D111D0894811C911CE2
:10E6600090E18916910409F0C2CF80E190E0A0E02A
:10E67000B0E0A80EB91ECA1EDB1E198AC2010F9493
:10E68000FAF10F94DCF16A94662009F072CF629679
:10E690000FB6F894DEBF0FBECDBFCF91DF911F91B3
:10E6A0000F91FF90EF90DF90CF90BF90AF909F9031
:10E6B0008F907F906F905F904F903F902F90089534
:10E6C0002F923F924F925F926F927F928F929F9282
:10E6D000AF92BF92CF92DF92EF92FF920F931F9370
:10E6E000DF93CF93CDB7DEB7CD53D1400FB6F894BB
:10E6F000DEBF0FBECDBF01E20EBF0FEF0DBF94B75F
:10E70000F894A89514BE80916000886180936000A1
:10E7100010926000789493FF05C0E0910002F091A0
:10E7200001021995279A2F9A8091C00082608093E8
:10E73000C00080E18093C40088E18093C1000000A4
:10E74000EE24FF24870144E0A42EB12CCC24DD2448
:10E7500024C0C5010197F1F70894E11CF11C011DCB
:10E76000111D21E2E2162EE4F20620E0020720E06D
:10E77000120718F031E0C32ED12CC801B70127ECE5
:10E780003BE140E050E00F9441FE611571058105C9
:10E79000910519F485B1805885B98091C00087FD35
:10E7A00003C0C114D104A9F2A6014F5F5F4FC25E3E
:10E7B000DE4F59834883CE51D140C25EDE4F8881FF
:10E7C0009981CE51D140019711F00D9410FEC05D9A
:10E7D000DE4F19821882C053D14060E0C15DDE4F28
:10E7E0001882CF52D14088249924C35DDE4F19820C
:10E7F0001882CD52D140C05EDE4F188219821A8233
:10E800001B82C052D140CE5CDE4F188219821A8220
:10E810001B82C253D140EE24FF2487010BBFF701B6
:10E8200007911691C45CDE4F19830883CC53D14005
:10E830000D940BFEC25EDE4F28813981CE51D1404E
:10E840002130310509F52091C600C25EDE4F1982E4
:10E850001882CE51D14022C02F5F3F4F4F4F5F4FA4
:10E86000213082E138078AE7480780E0580780F0C6
:10E87000C45CDE4FE881F981CC53D140EF5FFF4F9C
:10E8800019F0EE27FF27099420E030E040E050E047
:10E890008091C00087FFE0CF2091C600C35DDE4FAE
:10E8A00048815981CD52D1404F5F5F4FC35DDE4FEC
:10E8B00059834883CD52D140213209F063C64A3092
:10E8C000510508F05FC60894811C911C53E0851621
:10E8D000910409F059C600E010E018C081E280936D
:10E8E000C6008091C00086FFFCCF8091C00080648C
:10E8F0008093C0002F5F3F4F2931310579F70F9486
:10E90000DCF10F5F1F4F0530110519F020E030E0FA
:10E91000E5CF10920A0210920B0210920C02109294
:10E920000D02109206021092070210920802109235
:10E930000902109202021092030210920402109235
:10E9400005028FEE90EE60E00F94F5F180E191EE1C
:10E9500060E00F94C2F18091C00087FFFCCF9091DE
:10E96000C600903608F09F759032B8F09093C600BC
:10E970008091C00086FFFCCF8091C00080648093AE
:10E98000C000A0E2A093C6008091C00086FFFCCF2B
:10E990008091C00080648093C000983409F4D7C18E
:10E9A0009934B8F4923409F459C1933458F490333B
:10E9B00019F1903308F4E3C59F33A1F1903409F0C5
:10E9C000DEC5BDC0953409F470C1963409F0D7C5D1
:10E9D00098C1923509F42BC2933538F49C3409F46C
:10E9E000F5C1913509F0CBC518C2963509F445C279
:10E9F000993509F0C4C567C483E792EE62E00F94CD
:10EA0000F5F110920602109207021092080210927D
:10EA1000090210920A0210920B0210920C0210923C
:10EA20000D0213C18FE792EE62E00F94F5F18FEEC5
:10EA300090EE60E00F94F5F181E291EE60E00F94CA
:10EA4000C2F187EB91EE60E00F94F5F180E391EE77
:10EA500060E00F94C2F184EE90EE60E00F94F5F167
:10EA60008FE391EE60E00F94C2F186E090E061E008
:10EA700070E00F9434F20F94DCF18DE591EE60E0DC
:10EA80000F94C2F189EC91EE60E00F94F5F18EE401
:10EA900091EE60E00F94C2F183EC91EE60E00F9490
:10EAA000F5F18CE691EE60E00F94C2F18EE10F94E7
:10EAB0000DF288E90F940DF281E00F940DF20F949E
:10EAC000DCF18BE791EE60E00F94C2F119E0E0E039
:10EAD000F0E010935700E4918E2F0F940DF20F94F5
:10EAE000DCF18AE891EE60E00F94C2F1E3E0F0E03F
:10EAF00010935700E4918E2F0F940DF20F94DCF1D8
:10EB000089E991EE60E00F94C2F1E2E0F0E0109349
:10EB10005700E4918E2F0F940DF20F94DCF188EAE8
:10EB200091EE60E00F94C2F1E1E0F0E01093570045
:10EB30001491812F0F940DF20F94DCF107CF8BE825
:10EB400092EE62E00F94F5F18BE492EE60E00F94A8
:10EB5000F5F10F94DCF100E010E019C0C8016F2D51
:10EB60000F947FFEFF2031F489E492EE60E00F9471
:10EB7000C2F10BC0F092C6008091C00086FFFCCFAE
:10EB80008091C00080648093C0000F5F1F4FC80158
:10EB900081519F41A0E0B0E0ABBFFC01F790BAE229
:10EBA000FB1621F0E2E000301E07C1F60F94DCF105
:10EBB0000F94DCF187E592EE60E00F94F5F10F948D
:10EBC000DCF1CC24DD2400E010E01EC0C8010F946D
:10EBD00077FEF82E882331F489E492EE60E00F94FA
:10EBE000C2F10BC08093C6008091C00086FFFCCFAD
:10EBF0008091C00080648093C000FE1419F00894D6
:10EC0000C11CD11C0F5F1F4FC80181519F41A0E063
:10EC1000B0E0ABBFFC01E790FAE2EF1621F022E092
:10EC20000030120799F60F94DCF10F94DCF182E6C4
:10EC300092EE60E00F94C2F1C60161E070E00F94C3
:10EC400034F20F94DCF10F94DCF110920202109276
:10EC50000302109204021092050278CE89E992EE26
:10EC600062E00F94F5F1279A2F9A16C02F9880E052
:10EC700090E0E0EDF7E03197F1F7019684369105E9
:10EC8000C1F72F9A80E090E0E0EDF7E03197F1F7DF
:10EC9000019684369105C1F78091C00087FFE6CFC9
:10ECA0008091C00087FFFCCF64C485EA92EE62E0E9
:10ECB0000F94F5F140910202509103026091040219
:10ECC0007091050281E020E10F9491F2809102029F
:10ECD00090910302A0910402B091050280509F4FD1
:10ECE000AF4FBF4F8093020290930302A0930402A0
:10ECF000B093050280509041A040B04008F426CE69
:10ED0000A4CF83EB92EE62E00F94F5F140910602FE
:10ED100050910702609108027091090280E020E1A1
:10ED20000F9491F28091060290910702A09108023F
:10ED3000B091090280509F4FAF4FBF4F80930602A2
:10ED400090930702A0930802B0930902FFCD80ECD4
:10ED500092EE62E00F94F5F183E792EE60E00F949B
:10ED6000F5F18FE792EE60E00F94F5F18BE892EE0B
:10ED700060E00F94F5F189E992EE60E00F94F5F10F
:10ED800085EA92EE60E00F94F5F183EB92EE60E09D
:10ED90000F94F5F180EC92EE60E00F94F5F187ECC2
:10EDA00092EE60E00F94F5F188ED92EE60E00F9442
:10EDB000F5F18FED92EE60E00F94F5F18AEE92EEB0
:10EDC00060E00F94F5F183E093EEBDCD87EC92EE19
:10EDD00062E00F94F5F181E40F947BF282E40F94EA
:10EDE0007BF283E40F947BF284E40F947BF285E45E
:10EDF0000F947BF286E40F947BF287E40F947BF20E
:10EE000088E40F947BF28AE40F947BF28BE40F94F6
:10EE10007BF28CE40F947BF299CD88ED92EE62E068
:10EE20000F94F5F1772473948824992409C48FED05
:10EE300092EE62E00F94F5F140910A0250910B02BC
:10EE400060910C0270910D0282E020E10F9491F22A
:10EE500080910A0290910B02A0910C02B0910D02D8
:10EE600080509F4FAF4FBF4F80930A0290930B0289
:10EE7000A0930C02B0930D0269CD8AEE92EE62E08F
:10EE80000F94F5F184EE90EE60E00F94F5F18FECC5
:10EE900091EE60E00F94F5F1662477244301CC5D98
:10EEA000DE4F19821882C452D140D401C301B695F5
:10EEB000A79597958795CA5DDE4F88839983AA8326
:10EEC000BB83C652D140CC5DDE4FA881B981C4520C
:10EED000D1401196CC5DDE4FB983A883C452D14096
:10EEE000CD0162E070E00F9434F2B0E2B093C6005E
:10EEF0008091C00086FFFCCF8091C0008064809329
:10EF0000C000EDE2E093C6008091C00086FFFCCF18
:10EF10008091C00080648093C000F0E2F093C6004E
:10EF20008091C00086FFFCCF8091C00080648093F8
:10EF3000C000CA5DDE4FE880F9800A811B81C6529D
:10EF4000D140BB27A12F902F8F2D0F940DF2CA5DBA
:10EF5000DE4F8881C652D1400F940DF2B0E2FB2EF5
:10EF6000F092C6008091C00086FFFCCF8091C00067
:10EF700080648093C0000DE30093C6008091C000C0
:10EF800086FFFCCF8091C00080648093C00010E2B7
:10EF90001093C6008091C00086FFFCCF8091C00016
:10EFA00080648093C0008BBEF3012791C65DDE4F65
:10EFB0002883CA52D140A22EBB24CC24DD2408943D
:10EFC000611C711C811C911C8BBEF3018791282E42
:10EFD0003324442455240894611C711C811C911C09
:10EFE0008BBEF3013791C55DDE4F3883CB52D140E4
:10EFF0000894611C711C811C911C8BBEF30147910C
:10F00000C45DDE4F4883CC52D140ADEFEA2EAFEF66
:10F01000FA2EAFEF0A2FAFEF1A2F6E0C7F1C801E57
:10F02000911E142D032DF22CEE24EA0CFB1C0C1D5A
:10F030001D1D0F940DF220E22093C6008091C000A8
:10F0400086FFFCCF8091C00080648093C000C65DC5
:10F05000DE4F8881CA52D1400F940DF230E23093D6
:10F06000C6008091C00086FFFCCF8091C000806404
:10F070008093C000C45DDE4F8881CC52D1400F9494
:10F080000DF240E24093C6008091C00086FFFCCFA5
:10F090008091C00080648093C000C55DDE4F888190
:10F0A000CB52D1400F940DF250E25093C6008091A4
:10F0B000C00086FFFCCF8091C00080648093C000B8
:10F0C0008FEFE8168FEFF80680E0080780E018075A
:10F0D00031F484E092EE60E00F94C2F1DFC0D80119
:10F0E000C7018070907CA070B0708050904CA040A0
:10F0F000B040D1F52FEF3FE340E050E0E222F322B1
:10F1000004231523CA5DDE4FA880B980CA80DB8046
:10F11000C652D140AE0CBF1CC01ED11EAA0CBB1CD7
:10F12000CC1CDD1C8EE092EE60E00F94C2F1BB2798
:10F13000A12F902F8F2D0F940DF28E2D0F940DF285
:10F1400030E23093C6008091C00086FFFCCF8091F2
:10F15000C00080648093C0004EE34093C60080915D
:10F16000C00086FFFCCF87C08EE09EEFA0E0B0E03D
:10F17000E822F9220A231B239CE0E91694E9F90608
:10F1800090E0090790E0190709F088C0C45DDE4FE0
:10F19000A881CC52D140EA2EFF2400E010E0102FCD
:10F1A0000F2DFE2CEE24C55DDE4FB881CB52D14031
:10F1B000EB0EF11C011D111DD601C501817090706F
:10F1C000A070B070DC0199278827E80EF91E0A1F8D
:10F1D0001B1F20EF30E040E050E0A222B322C42207
:10F1E000D52241E1AA0CBB1CCC1CDD1C4A95D1F7F1
:10F1F000EA0CFB1C0C1D1D1D81E090E0A0E0B0E0BE
:10F20000282239224A225B2235E1220C331C441C7D
:10F21000551C3A95D1F7E20CF31C041D151D57013E
:10F220006801AA0CBB1CCC1CDD1C85E192EE60E0E1
:10F230000F94C2F1C801AA27BB270F940DF2BB2778
:10F24000A12F902F8F2D0F940DF28E2D0F940DF274
:10F2500090E29093C6008091C00086FFFCCF809121
:10F26000C00080648093C000AEE3A093C60080918C
:10F27000C00086FFFCCF8091C00080648093C000F6
:10F28000C601AA27BB270F940DF2BB27AD2D9C2DDD
:10F290008B2D0F940DF28A2D0F940DF20F94DCF14B
:10F2A000CC5DDE4FE881F981C452D140F99709F471
:10F2B0004DCBF4E0EF2EF12C012D112D6E0C7F1CA7
:10F2C000801E911EF2CD83E093EE62E00F94F5F183
:10F2D0008AE192EE60E00F94C2F18091C00087FF56
:10F2E000FCCF1091C6001F751093C6008091C0001E
:10F2F00086FFFCCF8091C00080648093C0000F9493
:10F30000DCF1812F81548A3108F036C1163409F4BA
:10F3100095C0173490F4133409F44EC0143430F40B
:10F320001134F1F0123409F01DC130C0143409F465
:10F3300059C0153409F016C16BC01A3409F4C4C0A1
:10F340001B3438F4173409F48FC0183409F00AC19B
:10F35000A1C01B3409F4D2C01C3409F003C1E8C0B9
:10F360008FEF81B90DC082B1809582B980E090E0C5
:10F37000E0EDF7E03197F1F70196883C9105C1F790
:10F380008091C00087FFEFCF12B8EFC08FEF84B934
:10F390000DC085B1809585B980E090E0E0EDF7E0A3
:10F3A0003197F1F70196883C9105C1F78091C00033
:10F3B00087FFEFCF15B8D9C08FEF87B90DC088B1DF
:10F3C000809588B980E090E0E0EDF7E03197F1F7C3
:10F3D0000196883C9105C1F78091C00087FFEFCF6F
:10F3E00018B8C3C08FEF8AB90DC08BB180958BB9A7
:10F3F00080E090E0E0EDF7E03197F1F70196883C8E
:10F400009105C1F78091C00087FFEFCF1BB8ADC059
:10F410008FEF8DB90DC08EB180958EB980E090E0F0
:10F42000E0EDF7E03197F1F70196883C9105C1F7DF
:10F430008091C00087FFEFCF1EB897C08FEF80BBD1
:10F440000DC081B3809581BB80E090E0E0EDF7E0F6
:10F450003197F1F70196883C9105C1F78091C00082
:10F4600087FFEFCF11BA81C08FEF83BB0DC084B38C
:10F47000809584BB80E090E0E0EDF7E03197F1F714
:10F480000196883C9105C1F78091C00087FFEFCFBE
:10F4900014BA6BC08FEF809301010FC080910201FD
:10F4A00080958093020180E090E0E0EDF7E03197F5
:10F4B000F1F70196883C9105C1F78091C00087FF64
:10F4C000EDCF1092020151C08FEF809304010FC065
:10F4D0008091050180958093050180E090E0E0ED4A
:10F4E000F7E03197F1F70196883C9105C1F78091DB
:10F4F000C00087FFEDCF1092050137C08FEF8093DA
:10F5000007010FC08091080180958093080180E079
:10F5100090E0E0EDF7E03197F1F70196883C910536
:10F52000C1F78091C00087FFEDCF109208011DC088
:10F530008FEF80930A010FC080910B01809580931B
:10F540000B0180E090E0E0EDF7E03197F1F70196F4
:10F55000883C9105C1F78091C00087FFEDCF1092E4
:10F560000B0103C085E292EEEEC98091C00087FFD7
:10F57000FCCF8091C600EAC988E392EEE4C98CE131
:10F5800091EEE1C988249924933011F1943028F444
:10F59000913089F09230B8F408C0953061F195301F
:10F5A000F0F0963009F048C043C02B3109F042C951
:10F5B00091E06BE13FC96227C15DDE4F2883CF52E6
:10F5C000D14092E037C9B22FA0E0622793E032C960
:10F5D000822F90E0A82BB92B622794E02BC92E3004
:10F5E00009F039C3622795E0C05DDE4F19821882A9
:10F5F000C053D1401FC9E1E0F0E0EC0FFD1FC05D3A
:10F60000DE4F08811981C053D140E00FF11F2083E4
:10F610000F5F1F4FC05DDE4F19830883C053D14079
:10F6200062270A171B0709F005C9D80196E002C92D
:10F63000261709F010C303C0973009F0FBC87724E0
:10F640009981933109F412C19431C8F4963009F4C8
:10F65000D8C0973050F4923009F406C1933009F4C1
:10F660006DC0913009F059C253C0913109F477C08F
:10F67000923108F0BBC0903109F04FC2F5C098310B
:10F6800009F487C0993150F4953109F4EFC09531F0
:10F6900008F4C6C1963109F040C2C2C19A3109F4DA
:10F6A0006CC09A3108F491C09B3109F45BC09D3164
:10F6B00009F033C29D81903359F48F81882311F46E
:10F6C0009EE11CC0813011F091E018C098E916C08D
:10F6D000892F807591F0903539F4E0E0F0E089E011
:10F6E0008093570094910AC0983539F4E3E0F0E034
:10F6F00089E080935700949101C090E01A821B82A8
:10F700008D818C831D829E831F8227E030E009C299
:10F710001A8288E08B8381E48C8386E58D8382E581
:10F720008E8389E48F8383E5888780E589878FE5E9
:10F730008A8782E38B872BE030E0F3C18A818139AD
:10F7400041F0823941F0803911F48FE005C080E04A
:10F7500003C082E001C08AE01A828B8344C0772410
:10F76000739482C08D81882311F48EE12CC0813086
:10F7700011F081E028C088E926C01A82E1E0F0E0BB
:10F7800089E08093570084918B831C8224E030E0D1
:10F79000C8C18B81803589F48C81883039F4E2E0EE
:10F7A000F0E089E08093570084910DC0E0E0F0E044
:10F7B00089E080935700849106C0E3E0F0E089E09F
:10F7C0008093570084911A82DFCF8D81836C99E0FA
:10F7D000E1E0F0E0082E90935700E89507B600FCB2
:10F7E000FDCF1A821B8223E030E09BC180EC8A832C
:10F7F000CE5CDE4F188219821A821B82C253D1401E
:10F800008EC18A8190E0A0E0B0E0582F44273327D2
:10F8100022278B8190E0A0E0B0E0DC0199278827C7
:10F82000282B392B4A2B5B2B8D8190E0A0E0B0E098
:10F83000282B392B4A2B5B2B8C8190E0A0E0B0E089
:10F84000BA2FA92F982F8827282B392B4A2B5B2BCF
:10F85000220F331F441F551FC05EDE4F288339839C
:10F860004A835B83C052D1401A8259C13A81C95C34
:10F87000DE4F3883C753D140CA5CDE4F1882C6536F
:10F88000D1408B81C82EDD24CA5CDE4F488159816E
:10F89000C653D140C42AD52A933109F082C0CE5C28
:10F8A000DE4F88819981AA81BB81C253D1408050AB
:10F8B000904CA340B04030F583E0CE5CDE4FE88052
:10F8C000F9800A811B81C253D140F70100935B008C
:10F8D00080935700E89507B600FCFDCFCE5CDE4F65
:10F8E000088119812A813B81C253D14000501F4FAA
:10F8F0002F4F3F4FCE5CDE4F088319832A833B8313
:10F90000C253D140C05EDE4F488159816A817B81FC
:10F91000C052D140DE011B9631E08C9111962C91A2
:10F9200011971296C75CDE4F2883C953D140C85C3B
:10F93000DE4F1882C853D14090E0C85CDE4FE881AA
:10F94000F981C853D1408E2B9F2B0C01FA01609393
:10F950005B0030935700E89511244E5F5F4F6F4F67
:10F960007F4F0EEFE02E0FEFF02ECE0CDF1CC114F8
:10F97000D10499F685E0C05EDE4F088119812A81A5
:10F980003B81C052D140F80120935B008093570027
:10F99000E89507B600FCFDCF81E180935700E8951C
:10F9A00035C0C05EDE4F88819981AA81BB81C0527B
:10F9B000D140B695A795979587957C018601ABE0D8
:10F9C000AA2EB12CAC0EBD1E0BC0D5016D915D01F0
:10F9D000C7010F947FFE0894E11CF11C01501040F8
:10F9E0000115110591F7A60160E070E0440F551F65
:10F9F000661F771FC05EDE4FE880F9800A811B8199
:10FA0000C052D1404E0D5F1D601F711F1A82C05E33
:10FA1000DE4F488359836A837B83C052D1407FC0C5
:10FA2000FA80C55CDE4FF882CB53D140C65CDE4F16
:10FA30001882CA53D1408B81C82EDD24C65CDE4FAC
:10FA400008811981CA53D140C02AD12A1A828981DA
:10FA5000BE016D5F7F4F843121F59601C05EDE4FA0
:10FA6000E880F9800A811B81C052D1400BBFF701A9
:10FA700087919691DB018C9311969C936E5F7F4FDB
:10FA8000D801C7010296A11DB11DC05EDE4F88835B
:10FA90009983AA83BB83C052D14022503040F1F6F3
:10FAA00036C0C05EDE4F288139814A815B81C052F9
:10FAB000D1400894C108D108760100E010E0089414
:10FAC000C11CD11C0894E11CF11C011D111DE20E8A
:10FAD000F31E041F151F21BDBB27A52F942F832FB5
:10FAE00082BD2F5F3F4F4F4F5F4FF89A80B5DB01CC
:10FAF0008D93BD012E153F054007510761F7C05E8C
:10FB0000DE4F288339834A835B83C052D1409601FC
:10FB10002D5F3F4FFB01108204C080EC8A8322E0FE
:10FB200030E08BE18093C6008091C00086FFFCCF5F
:10FB30008091C00080648093C000C15DDE4FF88179
:10FB4000CF52D140F093C6008091C00086FFFCCF19
:10FB50008091C00080648093C000432F3093C60022
:10FB60008091C00086FFFCCF8091C00080648093AC
:10FB7000C000922F2093C6008091C00086FFFCCF6A
:10FB80008091C00080648093C0008EE08093C600A6
:10FB90008091C00086FFFCCF8091C000806480937C
:10FBA000C00065E1C15DDE4FE880CF52D1406E25D7
:10FBB00069276427FE01319610C090819093C6009A
:10FBC0008091C00086FFFCCF31968091C000806498
:10FBD0008093C0006927215030402115310569F715
:10FBE0006093C6008091C00086FFFCCF8091C0006A
:10FBF00080648093C00085B1805885B9772081F4F6
:10FC0000C15DDE4F0881CF52D1400F5FC15DDE4F35
:10FC10000883CF52D14090E0A0E0B0E00D941AF4F8
:10FC200027982F9880E090E020ED37E0F901319798
:10FC3000F1F7019684369105C9F700008091C00064
:10FC40008D7F8093C00081E180935700E895EE2777
:10FC5000FF270994FFCF90E00D941AF497FB092E2B
:10FC600007260AD077FD04D02ED006D000201AF443
:10FC7000709561957F4F0895F6F7909581959F4F08
:10FC80000895A1E21A2EAA1BBB1BFD010DC0AA1FDD
:10FC9000BB1FEE1FFF1FA217B307E407F50720F0F5
:10FCA000A21BB30BE40BF50B661F771F881F991F70
:10FCB0001A9469F760957095809590959B01AC01B9
:10FCC000BD01CF010895AA1BBB1B51E107C0AA1FAC
:10FCD000BB1FA617B70710F0A61BB70B881F991FED
:10FCE0005A95A9F780959095BC01CD010895F99991
:10FCF000FECF92BD81BDF89A992780B50895262F31
:10FD0000F999FECF1FBA92BD81BD20BD0FB6F89400
:0EFD1000FA9AF99A0FBE01960895F894FFCF63
:00000001FF
