:020000040000FA
:100000000C9441010C9472010C9472010C947201D5
:100010000C9472010C9472010C9472010C94720194
:100020000C9472010C9472010C9472010C94720184
:100030000C9472010C9472010C9472010C94720174
:100040000C9472010C9472010C9472010C94720164
:100050000C9472010C9472010C9472010C94930C28
:100060000C9472010C94670D0C943D0D0C9472016C
:100070000C9472010C9472010C9472010C94720134
:100080000C9472010C9472010C9472010C94720124
:100090000C94070D0C94DD0C0C9472010C947201FD
:1000A0000C9472010C9472010C9472010C94720104
:1000B0000C9472010C9472010C9472010C947201F4
:1000C0000C9472010C9472010C9472010C947201E4
:1000D0000C9472010C9472010C9472010C947201D4
:1000E0000C9472010C94B9030C94F9020C94CC0298
:1000F0000C94A7010C94AD010C942A030C940604F3
:100100000C94C5010C946C030C94D7010C941C0343
:100110000C94A0010C9492010C94C9010C94A804B5
:100120000C94BF010C9498010C9408030C94B10139
:100130000C94CD010C94B7010C94BB010C94A40158
:100140000C9407040C94E1090C949D0D0C94D201BD
:100150000C949C010C94AC040C94D3010C94B0044A
:1001600000002100240027002A002D003000330069
:1001700001010000040107010A010000220025001E
:1001800028002B002E003100340002010000050180
:1001900008010B01000020002300260029002C008C
:1001A0002F003200000100000301060109010505CE
:1001B0000505070508080808020202020A0A0808DD
:1001C000040404040101010101010101030303030B
:1001D00003030303040707070C0C0C0C0C0C0C0C9A
:1001E0000202020206060606060606060B0B0B0BAB
:1001F0000B0B0B0B010210202008081020401020D0
:1002000040800201020108040201010204081020DA
:1002100040808040201008040201800402018040D8
:100220002010080402010804020101020408102041
:100230004080010204081020408000000A0B0209DF
:100240000C0D0E0807030401000000000000000070
:10025000000000000000000000000000000000009E
:10026000000000000000121110000000000000005B
:10027000000000000000000000000000000000007E
:100280009D0D11241FBECFEFD1E2DEBFCDBF00E038
:100290000CBF13E0A0E0B2E0EEEEF8E200E00BBF2E
:1002A00002C007900D92A635B107D9F725E0A6E563
:1002B000B3E001C01D92AF39B207E1F711E0C1E42C
:1002C000D1E000E006C021970109802FFE010E94C5
:1002D0006114C034D10780E00807A9F70E94E00E3E
:1002E0000C9475140C9400008150823108F05AC0AF
:1002F000E82FF0E08827E058FE4F8F4F0C946114F0
:10030000A001A401920198019C01D201A701AD01B5
:10031000B101B701BB01BF01C501C901D201CD01C6
:10032000D301D701809180008F778093800008955A
:10033000809180008F7DF9CF80918000877FF5CFFD
:1003400084B58F7784BD089584B58F7DFBCF809170
:10035000B0008F778093B00008958091B0008F7DBA
:10036000F9CF809190008F778093900008958091CD
:1003700090008F7DF9CF80919000877FF5CF80919D
:10038000A0008F778093A00008958091A0008F7DBA
:10039000F9CF8091A000877FF5CF809120018F77E2
:1003A000809320010895809120018F7DF9CF809165
:1003B0002001877FF5CFCF93DF93282F30E0F9011D
:1003C000E65CFD4F8491F901EC50FE4FD491F901A8
:1003D000E255FE4FC491CC23A1F081110E9474011B
:1003E000EC2FF0E0EE0FFF1FEC56FE4FA591B491FD
:1003F000EC91ED2381E090E009F480E0DF91CF9172
:10040000089580E090E0FACF1F93CF93DF93282FD9
:1004100030E0F901E65CFD4F8491F901EC50FE4FAC
:10042000D491F901E255FE4FC491CC23A9F0162FC7
:1004300081110E947401EC2FF0E0EE0FFF1FE658CF
:10044000FE4FA591B4918FB7F894EC91111108C0AB
:10045000D095DE23DC938FBFDF91CF911F9108955C
:10046000DE2BF8CFCF93DF9390E0FC01EC50FE4FF2
:10047000249182559E4FFC0184918823C9F090E01D
:10048000880F991FFC01E05AFE4FA591B491FC0121
:10049000E658FE4FC591D49161110DC09FB7F894F5
:1004A0008C91209582238C938881282328839FBF59
:1004B000DF91CF910895623051F49FB7F8943C9149
:1004C000822F809583238C93E8812E2BEFCF8FB7DB
:1004D000F894EC912E2B2C938FBFEACF3FB7F89472
:1004E00080916B0390916C03A0916D03B0916E03AA
:1004F00026B5A89B05C02F3F19F00196A11DB11D7F
:100500003FBFBA2FA92F982F8827BC01CD01620FBA
:10051000711D811D911D42E0660F771F881F991F75
:100520004A95D1F708958F929F92AF92BF92CF9242
:10053000DF92EF92FF924B015C010E946E026B0111
:100540007C010E946E026C197D098E099F09683E2C
:10055000734081059105A8F321E0821A9108A10852
:10056000B10888EEC80E83E0D81EE11CF11C81148E
:100570009104A104B10429F7FF90EF90DF90CF9090
:10058000BF90AF909F908F900895DC01ED91FC910A
:100590000190F081E02D1994AF92BF92CF92DF923B
:1005A000EF92FF920F931F93CF93DF936C017B0128
:1005B0008B01040F151FEB015E01AE18BF08C017B9
:1005C000D10759F06991D601ED91FC910190F0812C
:1005D000E02DC6011995892B79F7C501DF91CF91DF
:1005E0001F910F91FF90EF90DF90CF90BF90AF9051
:1005F0000895FC01538D448D252F30E0842F90E029
:10060000821B930B541710F0CF960895019708950D
:10061000FC01918D828D981761F0A28DAE0FBF2FD6
:10062000B11D5D968C91928D9F5F9F73928F90E02C
:1006300008958FEF9FEF0895FC01918D828D98179B
:1006400031F0828DE80FF11D858D90E008958FEFD8
:100650009FEF0895FC01918D228D892F90E0805CA1
:100660009F4F821B91098F73992708958FE693E01E
:100670000E942A0321E0892B09F420E0822F0895AB
:100680008CE094E00E942A0321E0892B09F420E009
:10069000822F0895FC01A48DA80FB92FB11DA35A74
:1006A000BF4F2C91848D90E001968F739927848F92
:1006B000A689B7892C93A089B1898C9183708064B5
:1006C0008C93938D848D981306C00288F389E02D56
:1006D00080818F7D80830895EF92FF920F931F9307
:1006E000CF93DF93EC0181E0888F9B8D8C8D9813E5
:1006F0001AC0E889F989808185FF15C09FB7F894F1
:10070000EE89FF896083E889F9898081837080643C
:1007100080839FBF81E090E0DF91CF911F910F9187
:10072000FF90EF900895F62E0B8D10E00F5F1F4F96
:100730000F731127E02E8C8D8E110CC00FB607FCA5
:10074000FACFE889F989808185FFF5CFCE010E9433
:100750004A03F1CFEB8DEC0FFD2FF11DE35AFF4F54
:10076000F0829FB7F8940B8FEA89FB8980818062C1
:10077000CFCFCF93DF93EC01888D8823B9F0AA897E
:10078000BB89E889F9898C9185FD03C0808186FD4C
:100790000DC00FB607FCF7CF8C9185FFF2CF80819B
:1007A00085FFEDCFCE010E944A03E9CFDF91CF91C3
:1007B000089580E090E0892B29F00E944003811188
:1007C0000E94000080E090E0892B29F00E9436030F
:1007D00081110E94000080E090E0892B49F080E0C8
:1007E00090E0892B29F00E94000081110E940000F6
:1007F00080E090E0892B49F080E090E0892B29F09F
:100800000E94000081110C9400000895089590E06A
:1008100080E00895CF93DF93DC0126E0629FA00D76
:10082000B11D112490965C934E935F9721E09196B1
:100830002C939197FC01E359FF4F0190F081E02D3B
:10084000EC01C459DF4F2881222341F0309719F081
:10085000DC01662329F0DF91CF9108953097D9F319
:100860005C968C91DF91CF911994CF92DF92EF92A9
:10087000FF920F931F93CF93DF93FC0126E0629FBB
:10088000E00DF11D112411A2278D30A12130310579
:1008900059F188F02230310509F452C02330310576
:1008A00009F453C0DF91CF911F910F91FF90EF900A
:1008B000DF90CF9008954423A9F3EC0141E050E08C
:1008C0000E940A042FB7F8948091670390916803FF
:1008D000A0916903B0916A032FBFC85ADF4F888384
:1008E0009983AA83BB83DECF2FB7F894C0906703A8
:1008F000D0906803E0906903F0906A032FBFFC0179
:10090000E85AFF4F0081118122813381C01AD10A38
:10091000E20AF30A72960081118130E020E00C15A2
:100920001D052E053F0560F442E050E0DF91CF91B8
:100930001F910F91FF90EF90DF90CF900C940A04DD
:100940004111B0CF43E050E0F1CF50E040E0EECFB6
:10095000862F642F0C943202862F642F0C9404028D
:10096000862F0C94DB012F923F924F925F926F92F1
:100970007F928F929F92AF92BF92CF92DF92EF922F
:10098000FF920F931F93CF93DF93CDB7DEB72C97D2
:100990000FB6F894DEBF0FBECDBF9C0124593F4F68
:1009A0003A83298321E0A981BA812C934FB7F89427
:1009B00000916703109168032091690330916A03E5
:1009C0004FBFFC01E45AFF4FFC83EB834081518110
:1009D00062817381041B150B260B370B3C964081FB
:1009E000518170E060E0401751076207730708F01B
:1009F00059C19C878B8710E06C01F6E6CF0ED11CA5
:100A00007C0122E6E20EF11CD6018C91181758F4F5
:100A1000D701ED91FC91E10FF11D62E080810E9410
:100A200032021F5FF1CF312C4B845C84B7E64B0E52
:100A3000511CEB84FC84E4E6EE0EF11C812C912C1D
:100A4000540183942B853C852E593F4F3A87298743
:100A5000D2018C91381608F063C0032D10E0D70145
:100A6000ED91FC91E00FF11F61E080810E94320264
:100A7000D701ED91FC91E00FF11F60E080810E94B1
:100A80000402D501C401032C04C0880F991FAA1FBA
:100A9000BB1F0A94D2F79E838D83FC01E095F095ED
:100AA000F887EF83212CD6018C91281620F5622C33
:100AB000712CA985BA85ED91FC91E60DF71D808119
:100AC0000E94DB01660C771CEB85FC85E60DF71DAB
:100AD000892B51F4808591852D813E81822B932B2A
:100AE000918780872394DFCF808591854F815885BA
:100AF00084239523F5CFD701ED91FC91E00FF11FF1
:100B000061E080810E940402F70180819181080FD9
:100B1000191F60E0D8018C910E943202339498CF63
:100B20000B851C85C801CC9678012FEF3FEFF701AC
:100B3000478D50A1452B21F4148E368F258F11A29D
:100B4000F6E0EF0EF11CE816F90689F7912CAB845C
:100B5000BC8420E6A20EB11C96E0392ED6018C9101
:100B6000981608F059C0812C692C712CB4E06B0EDA
:100B7000711C660C771CEB85FC856E0E7F1ED20106
:100B80008C91881608F046C0F30140815181082CF1
:100B900002C0569547950A94E2F7989EC001112429
:100BA000880D911DEB85FC8560E0258D368D8217C3
:100BB000930709F47CC06F5F36966A30B1F740FF47
:100BC00027C0EB85FC8570E060E0248D21111AC000
:100BD000D501ED91FC91E80FF91F2081369EF001BF
:100BE000379EF00D11244B855C85E40FF51F248F93
:100BF000968F858F10A2178E41E08B859C850E9471
:100C0000350406C06F5F7F4F36966A307105E9F68E
:100C10008394B5CF9394A2CF80E0D80191969C9114
:100C20009111892F0A5F1F4FE016F106B1F79FB7A8
:100C3000F894409167035091680360916903709143
:100C40006A039FBFEB81FC8140835183628373837E
:100C5000882341F1AB85BC8591968C91919788232F
:100C600009F15F968D919C9190970197D9F45C96CC
:100C70008C912C960FB6F894DEBF0FBECDBFDF91DE
:100C8000CF911F910F91FF90EF90DF90CF90BF9089
:100C9000AF909F908F907F906F905F904F903F901C
:100CA0002F900895E981FA81108280E0E2CF4170AF
:100CB000A4CF982FABE5B3E0FD0130E020E08081C8
:100CC0004181891365C094130BC05281511162C0D8
:100CD0002F5F3F4F822F880F820F089589130AC01C
:100CE0008281891307C0411105C0822F880F820FAE
:100CF0008E5F08952F5F3F4F339623303105F9F60D
:100D000080E03D9112962C91129793134DC02913B8
:100D100009C015964C911597411148C0895F0895F7
:100D200093134BC015963C911597931346C0211110
:100D300044C08C5F0895921306C020916303921300
:100D400002C08823E1F020915D0392131AC0309114
:100D5000610398130EC0332351F030916103931354
:100D600012C0211112C083E0089589E0089587E040
:100D70000895891791F3931306C0811104C085E08B
:100D80000895981751F387E308959217B1F3FBCFB5
:100D90009413B0CF52815913A1CF8111ABCF822FC1
:100DA000880F820F8F5F0895291307C015964C9105
:100DB00015979413B5CF3323A9F38F5F833009F0D0
:100DC000A0CF20915B0380915F0392130EC0981314
:100DD000B4CF30916303332341F230916303931313
:100DE000AACF2111B0CF81E008959813ACCFF5CFF1
:100DF0008A9A64EF71E080E090E00E9493028A9802
:100E00000895FB0101900020E9F73197AF01461BDF
:100E1000570BDC01ED91FC910280F381E02D1994D8
:100E2000CF93DF93EC0160E08E810E94040261E0C9
:100E30008E810E94040260E08E810E9404028BE891
:100E400091E00197F1F7DF91CF910895CF92DF9272
:100E5000EF92FF920F931F93CF93DF936C017C016E
:100E600087E0E80EF11CD0E0C0E0062F10E0B801EA
:100E70000C2E02C0759567950A94E2F76170F70130
:100E800081917F010E9404022196C430D10579F737
:100E9000C601DF91CF911F910F91FF90EF90DF90EE
:100EA000CF900C941007CF92DF92EF92FF920F93A6
:100EB0001F93CF93DF93EC01F62E642F8C810E9459
:100EC00004028D818F3F19F060E00E9404020F2D13
:100ED00010E08F8584FF25C06E0187E0C80ED11C0D
:100EE000F12CE12CB8010E2C02C0759567950A947F
:100EF000E2F76170F60181916F010E940402FFEF39
:100F0000EF1AFF0A88E0E816F10461F7CE01DF91DD
:100F1000CF911F910F91FF90EF90DF90CF900C94A5
:100F20001007B80184E0759567958A95E1F7CE01C1
:100F30000E9426076F2DCE01DF91CF911F910F9157
:100F4000FF90EF90DF90CF900C94260740E0682F41
:100F500087E895E00C94530781E00E94A6078BE395
:100F60009FE10197F1F70895CF93DF93613029F066
:100F70009091960598609093960560939A051092CB
:100F80009B0590E490939C0580939D05805C8093E5
:100F90009E0561E080918B050E94320280918C0554
:100FA0008F3F19F061E00E94320261E080918D056F
:100FB0000E943202C7E8D5E09E0127583540809153
:100FC000960584FD0BC084E090E021962817390730
:100FD00044F461E08E810E943202EECF88E090E01E
:100FE000F4CF8BE39DE00197F1F760E080918B05F2
:100FF0000E94040260E080918D050E9404028091AD
:101000008C058F3F19F060E00E94040280919605E4
:1010100084FD34C063E087E895E00E942607CBE4B6
:10102000D6E4CE010197F1F763E087E895E00E94EE
:1010300026072197F1F763E087E895E00E942607ED
:1010400083E592E00197F1F762E087E895E00E947E
:1010500026078091960580620E94A60784E080930F
:1010600097058CE00E94A6070E94AC0782E080935F
:10107000980586E0DF91CF910C94A60780620E94CC
:10108000A6078BE496E40197F1F7809196058062BC
:101090000E94A60783E592E00197F1F780919605FB
:1010A00080620E94A607D5CF90919A05691710F02B
:1010B0006FEF690FE62FF0E0E957FA4F9489890F37
:1010C00080680C94A607CF93DF93C82F10925B0320
:1010D00010925C0310925D0310925E0310925F0306
:1010E00010926003109261031092620310926303E6
:1010F00060E080E00E945408C33509F0D1C068E484
:1011000072E087E895E00E9401078091640361E046
:10111000813009F045C080E00E9454086DE572E01E
:1011200087E895E00E94010762E080E00E94540891
:101130006AE672E087E895E00E940107609101028B
:1011400087E895E00E94C50262E08BE00E945408A7
:1011500063E772E087E895E00E9401076091000272
:1011600087E895E00E94C50263E080E00E94540891
:101170006CE772E087E895E00E94010780915A03CE
:10118000811108C068EF72E087E895E0DF91CF91A8
:101190000C940107813009F043C068E073E0F4CF9C
:1011A000823009F040C080E00E94540868E872E094
:1011B00087E895E00E94010762E080E00E94540801
:1011C0006AE672E087E895E00E94010760910102FB
:1011D00087E895E00E94C50262E08BE00E94540817
:1011E0006FE473E087E895E00E94010760910002D8
:1011F00087E895E00E94C50263E080E00E94540801
:101200006CE772E087E895E00E94010780915A033D
:10121000882309F4B7CF68E173E0813009F4B4CFD3
:10122000DF91CF91089580E00E94540865E972E053
:1012300087E895E00E94010762E080E00E94540880
:101240006AE672E087E895E00E940107609101027A
:1012500087E895E00E94C50262E08BE00E94540896
:1012600062EA72E087E895E00E940107609100025F
:1012700087E895E00E94C50263E080E00E94540880
:101280006CE772E087E895E00E94010780915A03BD
:10129000882309F477CF68E273E0813009F674CFD0
:1012A000C73409F0BDCF6BEA72E087E895E00E9491
:1012B000010760EC72E08CE094E00E94010767ECAB
:1012C00072E08CE094E00E940107CBE5D3E06881F6
:1012D00016160CF06DE28CE094E00E94C502698164
:1012E00016160CF06DE28CE094E00E94C5026A8153
:1012F00016160CF06DE28CE094E00E94C50267ECDB
:1013000072E08CE094E00E940107239683E0C436EB
:10131000D807E9F68091640361E473E0882331F033
:1013200063E672E0813011F069EC72E08CE094E0E9
:101330000E94010767EC72E08CE094E00E940107D4
:10134000609101028CE094E00E94C50267EC72E0BB
:101350008CE094E00E940107609100028CE094E030
:101360000E94C50267EC72E08CE094E00E940107E5
:101370006EEC72E08CE094E00E94010767EC72E092
:101380008CE094E00E94010780915A0368EF72E0BC
:10139000882371F0813081F48091640361E473E00B
:1013A000882331F068E073E0813011F067E473E086
:1013B0008CE094E00E94010763ED72E08CE094E021
:1013C000E5CE41E00E94530781E090E008950F933D
:1013D0001F93CF93DF93C82F162F83300CF417C1C0
:1013E00086300CF00EC1C350D1E020E030E0A901FE
:1013F000609156037091570380915803909159035F
:101400000E949513811115C00E946E020E94C9139B
:101410006093560370935703809358039093590336
:101420000E949A13611571058105910511F00E94C2
:1014300029138D2FDD0F990BFC01EE0FFF1FE80F15
:10144000F91FE55AFC4FEC0FF11DC7FDFA9580819D
:10145000811163C21083CBE5D3E024E633E0FE01C3
:1014600090811913D6C091811913D3C09281191399
:10147000D0C000915A0390915A0341E09427909371
:101480005A03EBE5F3E0023008F0F8C065ED72E0D6
:101490008CE094E00E94010767EC72E08CE094E03D
:1014A0000E940107688116160CF06DE28CE094E052
:1014B0000E94C502698116160CF06DE28CE094E082
:1014C0000E94C5026A8116160CF06DE28CE094E071
:1014D0000E94C50267EC72E08CE094E00E94010774
:1014E000239683E0C436D807E9F68091640361E46B
:1014F00073E0882331F063E672E0813011F069EC2B
:1015000072E08CE094E00E94010767EC72E08CE0EE
:1015100094E00E940107609101028CE094E00E9437
:10152000C50267EC72E08CE094E00E9401076091D4
:1015300000028CE094E00E94C50267EC72E08CE04F
:1015400094E00E94010768EF72E0002361F080914F
:10155000640368E073E0813031F067E473E0823067
:1015600011F061E473E08CE094E00E94010763ED08
:1015700072E08CE094E00E940107C5E060E971E050
:1015800080E090E00E94930263E080E00E945408B3
:101590006DED72E087E895E00E9401076AEF70E068
:1015A00080E090E00E94930263E080E00E94540893
:1015B00060EF72E0002361F08091640360E073E00B
:1015C000813031F060E173E0823011F060E273E06D
:1015D00087E895E00E940107C15081F60E94AC07A0
:1015E0006AEF70E080E090E00E94930283E50E9441
:1015F000630881E080936503DF91CF911F910F9184
:10160000089589301CF4C650D2E0EFCEC0E0D0E09F
:10161000ECCE339693E0E436F90709F021CF4EE59E
:1016200053E0EBE5F3E09191191307C09281191390
:1016300004C09581191709F41CCF4E175F0799F75D
:1016400000915A0390915B03191309C090915F03B5
:10165000191305C090916303191709F40CCF9091E9
:101660005D03191309C090915F03191305C0909190
:101670006103191709F4FFCE07E3FDCE90819111A4
:1016800001C08F5F9181911101C08F5F9281911193
:1016900001C08F5F33962E173F0781F781118DC0F0
:1016A00065ED72E08CE094E00E94010767EC72E067
:1016B0008CE094E00E940107688116160CF06DE240
:1016C0008CE094E00E94C502698116160CF06DE270
:1016D0008CE094E00E94C5026A8116160CF06DE25F
:1016E0008CE094E00E94C50267EC72E08CE094E02C
:1016F0000E940107239693E0C436D907E9F680914A
:10170000640361E473E0882331F063E672E08130C2
:1017100011F069EC72E08CE094E00E94010767EC44
:1017200072E08CE094E00E940107609101028CE07D
:1017300094E00E94C50267EC72E08CE094E00E94A5
:101740000107609100028CE094E00E94C50267EC02
:1017500072E08CE094E00E94010768E373E08CE0A3
:1017600094E00E94010763ED72E08CE094E00E9437
:101770000107C5E060E971E080E090E00E9493021B
:1017800063E080E00E9454086DED72E087E895E028
:101790000E9401076AEF70E080E090E00E949302EF
:1017A00063E080E00E94540860E373E087E895E01E
:1017B0000E940107C150F1F611CF60EC72E08CE09D
:1017C00094E00E94010767EC72E08CE094E00E94D4
:1017D0000107688116160CF06DE28CE094E00E941F
:1017E000C502698116160CF06DE28CE094E00E944F
:1017F000C5026A8116160CF06DE28CE094E00E943E
:10180000C50267EC72E08CE094E00E940107239629
:1018100083E0C436D807E9F68091640361E473E09D
:10182000882331F063E672E0813011F069EC72E0F8
:101830008CE094E00E94010767EC72E08CE094E099
:101840000E940107609101028CE094E00E94C502B1
:1018500067EC72E08CE094E00E9401076091000266
:101860008CE094E00E94C50267EC72E08CE094E0AA
:101870000E9401076EEC72E08CE094E00E94010788
:1018800067EC72E08CE094E00E94010763E080E086
:101890000E9454086CE772E087E895E00E94010717
:1018A00080915A03811116C068EF72E087E895E0D5
:1018B0000E94010768EF72E08CE094E00E9401074B
:1018C00063ED72E08CE094E0DF91CF911F910F9176
:1018D0000C9401078130A1F780916403811109C044
:1018E0006DE373E087E895E00E94010761E473E02F
:1018F000E3CF813049F468E073E087E895E00E9427
:10190000010768E073E0D8CF65E473E087E895E00D
:101910000E94010767E473E0CFCFDF91CF911F9161
:101920000F910C94F8061F920F920FB60F9211248C
:101930002F933F938F939F93AF93BF9380916703B0
:1019400090916803A0916903B0916A033091660396
:1019500023E0230F2D3758F50196A11DB11D2093CB
:1019600066038093670390936803A0936903B09321
:101970006A0380916B0390916C03A0916D03B09109
:101980006E030196A11DB11D80936B0390936C03B0
:10199000A0936D03B0936E03BF91AF919F918F9110
:1019A0003F912F910F900FBE0F901F90189526E832
:1019B000230F0296A11DB11DD2CF1F920F920FB619
:1019C0000F9211240BB60F922F933F934F935F9377
:1019D0006F937F938F939F93AF93BF93EF93FF93F7
:1019E0008FE693E00E944A03FF91EF91BF91AF9180
:1019F0009F918F917F916F915F914F913F912F9127
:101A00000F900BBE0F900FBE0F901F9018951F9256
:101A10000F920FB60F9211240BB60F922F938F9344
:101A20009F93EF93FF93E0917F03F0918003808178
:101A3000E0918503F091860382FD1DC09081809125
:101A400088038F5F8F7320918903821741F0E091A3
:101A50008803F0E0E159FC4F958F80938803FF9154
:101A6000EF919F918F912F910F900BBE0F900FBE12
:101A70000F901F9018958081F2CF1F920F920FB692
:101A80000F9211240BB60F922F933F934F935F93B6
:101A90006F937F938F939F93AF93BF93EF93FF9336
:101AA0008CE094E00E944A03FF91EF91BF91AF91C7
:101AB0009F918F917F916F915F914F913F912F9166
:101AC0000F900BBE0F900FBE0F901F9018951F9296
:101AD0000F920FB60F9211240BB60F922F938F9384
:101AE0009F93EF93FF93E0911C04F0911D0480817C
:101AF000E0912204F091230482FD1DC09081809129
:101B000025048F5F8F7320912604821741F0E091A6
:101B10002504F0E0E45FFB4F958F80932504FF914F
:101B2000EF919F918F912F910F900BBE0F900FBE51
:101B30000F901F9018958081F2CF1092720310922F
:101B4000710348EE53E060E070E0409373035093FC
:101B50007403609375037093760384E292E090932C
:101B6000700380936F032DEC30E030937C0320935F
:101B70007B032CEC30E030937E0320937D0328EC34
:101B800030E03093800320937F0329EC30E03093E2
:101B90008203209381032AEC30E030938403209366
:101BA00083032EEC30E0309386032093850310925C
:101BB00088031092890310928A0310928B0310926B
:101BC0000F0410920E04409310045093110460937C
:101BD00012047093130490930D0480930C0485EC0D
:101BE00090E0909319048093180484EC90E0909313
:101BF0001B0480931A0480EC90E090931D04809362
:101C00001C0481EC90E090931F0480931E0482ECEE
:101C100090E0909321048093200486EC90E09093D0
:101C2000230480932204109225041092260410921B
:101C300027041092280410928A051092890580E4E6
:101C400092E0909388058093870585E280938B05C9
:101C50008FEF80938C0584E280938D0583E28093DF
:101C60008E0582E280938F0581E28093900580E269
:101C7000809391051092920510929305109294050D
:101C8000109295051092960561E080E10E94B407DC
:101C900010921A0510921E0510921D0510921F0534
:101CA00086E392E09093190580931805E4E3F5E04C
:101CB0001082148213821582369685E0E037F80789
:101CC000B9F78CE092E090937B0580937A0589E0E8
:101CD00092E090937D0580937C0584E080937E055F
:101CE00083E080937F0580E192E090937905809373
:101CF00078058AE090E0909381058093800584EFD9
:101D000091E090938305809382051092860510924E
:101D10008505109274051092750510927605109243
:101D20007705109284051092AB041092AF041092C4
:101D3000AE041092B00486E392E09093AA048093DC
:101D4000A904E5ECF4E081E095E0108214821382AE
:101D5000158236968E179F07C1F785E092E0909323
:101D60000C0580930B0582E092E090930E05809322
:101D70000D0584E080930F0583E08093100580E1DA
:101D800092E090930A05809309058AE090E0909391
:101D900012058093110584EF91E0909314058093D0
:101DA0001305109217051092160510920505109252
:101DB0000605109207051092080510921505089562
:101DC000789484B5826084BD84B5816084BD85B516
:101DD000826085BD85B5816085BD80916E00816022
:101DE00080936E00109281008091810082608093C8
:101DF00081008091810081608093810080918000CA
:101E00008160809380008091B10084608093B100F4
:101E10008091B00081608093B000809191008260D9
:101E200080939100809191008160809391008091D6
:101E300090008160809390008091A10082608093E7
:101E4000A1008091A10081608093A1008091A000F9
:101E500081608093A00080912101826080932101A4
:101E60008091210181608093210180912001816016
:101E70008093200180917A00846080937A00809121
:101E80007A00826080937A0080917A0081608093EA
:101E90007A0080917A00806880937A001092C10065
:101EA000E0911C04F0911D0422E02083E0911C04C9
:101EB000F0911D041082E0911804F0911904108231
:101EC000E0911A04F0911B0480E1808310922404B5
:101ED000E0912004F091210496E09083E0911E04AB
:101EE000F0911F04808180618083E0911E04F09155
:101EF0001F04808188608083E0911E04F0911F049C
:101F0000808180688083E0911E04F0911F048081AD
:101F10008F7D8083E0917F03F09180032083E091A7
:101F20007B03F0917C031082E0917D03F0917E03AE
:101F30008FEC808310928703E0918303F0918403F8
:101F40009083E0918103F09182038081806180839E
:101F5000E0918103F0918203808188608083E09129
:101F60008103F0918203808180688083E091810306
:101F7000F091820380818F7D808364E084E10E9400
:101F8000B407829A53E0752E64E6262E63E0362E5F
:101F900075E6872E912CA12CB12CE3E0CE2ED12C0E
:101FA000E12CF12C88E195E00E94B304C82F89EA66
:101FB00094E00E94B304182FC33209F444C19CF486
:101FC000CC2309F461C090916503923009F0DAC125
:101FD00080915A038111C2C0609101028FEC8C0F75
:101FE0000E94E70951C080916503CA3261F0C03395
:101FF00051F7882391F0813009F0B3C087E40E9443
:10200000630882E00EC0823079F40E94AC076AEF68
:1020100070E080E090E00E94930283E50E946308F4
:1020200081E08093650330C0813009F097C08091D2
:10203000010290910002909301028093000262E0FD
:1020400080E00E9454086AE672E087E895E00E940A
:1020500001076091010287E895E00E94C502809126
:10206000640362E0813009F06BC08BE00E94540889
:1020700063E772E087E895E00E9401076091000243
:1020800087E895E00E94C502809164038130B1F435
:1020900080916503823091F4133209F49DC10CF0F4
:1020A00096C1112359F080915A03813009F094C1EF
:1020B000609100028FEC810F0E94E7098091640318
:1020C000811194C180916503823009F08FC18091A4
:1020D0005A03813009F08AC160E273E080E090E049
:1020E0000E9493020E94DA12A50194010E94321309
:1020F000662E0E94DA12A70196010E943213C62FA3
:102100000E94DA12A70196010E943213D62F809105
:1021100001020E945906482E50900002852D0E940F
:10212000590697E3491609F4D5C1873309F4A2C1CA
:102130009AE5652D96150CF056C18FEF840D54C1AC
:10214000823031F48BE00E9454086DE473E092CF4A
:102150008BE00E94540862EA72E08CCF0E94F8067D
:1021600093CF823009F090CF65ED72E08CE094E07F
:102170000E94010767EC72E08CE094E00E94010786
:10218000CBE5D3E0688116160CF06DE28CE094E0AC
:102190000E94C502698116160CF06DE28CE094E095
:1021A0000E94C5026A8116160CF06DE28CE094E084
:1021B0000E94C50267EC72E08CE094E00E94010787
:1021C00023962C163D06F1F68091640361E473E0DA
:1021D000882331F063E672E0813011F069EC72E03F
:1021E0008CE094E00E94010767EC72E08CE094E0E0
:1021F0000E940107609101028CE094E00E94C502F8
:1022000067EC72E08CE094E00E94010760910002AC
:102210008CE094E00E94C50267EC72E08CE094E0F0
:102220000E9401076EEC72E08CE094E00E940107CE
:1022300063ED72E08CE094E00E9401070E94AC071D
:102240001092650321CF80916503813009F086CF1C
:10225000809164038F5F672D0E94531490936403F1
:1022600061E080E0913099F50E9454086DE572E0DC
:1022700087E895E00E94010762E08BE00E94540825
:1022800063E772E087E895E00E9401076091000231
:1022900087E895E00E94C50263E080E00E94540850
:1022A0006CE772E087E895E00E94010780915A038D
:1022B000811107C068EF72E087E895E00E9401078E
:1022C000E3CE813009F0E0CE68E073E0F5CF9230E4
:1022D00061F50E94540868E872E087E895E00E9482
:1022E000010762E08BE00E9454086DE473E087E828
:1022F00095E00E9401076091000287E895E00E9446
:10230000C50263E080E00E9454086CE772E087E851
:1023100095E00E94010780915A03882359F2813089
:1023200009F0B2CE68E173E0C7CF0E94540865E9B6
:1023300072E087E895E00E94010762E08BE00E946E
:10234000540862EA72E087E895E00E940107609114
:10235000000287E895E00E94C50263E080E00E94E9
:1023600054086CE772E087E895E00E9401078091CD
:102370005A03882309F49ECF813009F085CE68E2A4
:1023800073E09ACF913009F0E9CEC83309F0E6CE78
:1023900080915A03892780935A0363E080E00E946A
:1023A00054086CE772E087E895E00E94010780918D
:1023B0005A03882309F47ECF813009F065CE8091DD
:1023C0006403813009F480CF8230C9F6ABCF1A3272
:1023D00019F0103309F067CE0E94F8066FCE9AE527
:1023E00096153CF5652D81500E94E7098FE693E034
:1023F0000E942A03892BD1F08FE693E00E94080304
:102400008053893098F490916403923009F05FC052
:1024100090916503923009F05AC090915A0391301F
:1024200009F055C0609100020E94E7090E94D9039B
:10243000B9CD8C2F0C2E000C990BFC01EE0FFF1F59
:10244000E80FF91FE55AFC4FED0FF11DD7FDFA9586
:1024500080818823A9F10E94DA12A70196010E94C7
:102460003213C62F0E94DA12A70196010E9432137E
:10247000D62FDFCF8AE5861514F4652D5ECE8C2F1E
:102480000C2E000C990BFC01EE0FFF1FE80FF91F3B
:10249000E55AFC4FED0FF11DD7FDFA958081882399
:1024A00079F00E94DA12A70196010E943213C62F1A
:1024B0000E94DA12A70196010E943213D62FDFCFB5
:1024C0008C2F880F8C0F609100028D0F8DCF0E9492
:1024D000F806ACCF873309F082CF8C2F0C2E000C7E
:1024E000990BFC01EE0FFF1FE80FF91FE55AFC4F97
:1024F000ED0FF11DD7FDFA958081882309F30E9425
:10250000DA12A70196010E943213C62F0E94DA1236
:10251000A70196010E943213D62FDFCF8F929F9290
:10252000AF92BF92CF92DF92EF92FF92CF93DF9361
:10253000EC01688179818A819B8161157105810532
:10254000910521F464E279ED8BE597E02DE133EF1D
:1025500041E050E00E94321349015A019B01AC0155
:10256000A7EAB1E40E9451136B017C01ACEEB4EF19
:10257000A50194010E945F13C60ED71EE81EF91E26
:10258000F7FE06C081E0C81AD108E10880E8F80A21
:10259000C882D982EA82FB82C701B6019F77DF91A8
:1025A000CF91FF90EF90DF90CF90BF90AF909F9032
:1025B0008F9008958F929F92AF92BF92CF92DF92A9
:1025C000EF92FF9260911C0270911D0280911E0299
:1025D00090911F02611571058105910521F464E256
:1025E00079ED8BE597E02DE133EF41E050E00E947B
:1025F000321349015A019B01AC01A7EAB1E40E94E0
:1026000051136B017C01ACEEB4EFA50194010E9463
:102610005F13C60ED71EE81EF91EF7FE06C081E046
:10262000C81AD108E10880E8F80AC0921C02D092CA
:102630001D02E0921E02F0921F02C701B6019F77B1
:10264000FF90EF90DF90CF90BF90AF909F908F90D2
:10265000089560931C0270931D0280931E02909354
:102660001F020895052E97FB1EF400940E94491343
:1026700057FD07D00E94641307FC03D04EF40C945E
:10268000491350954095309521953F4F4F4F5F4FDF
:10269000089590958095709561957F4F8F4F9F4FCE
:1026A00008950E948613A59F900DB49F900DA49F3E
:1026B000800D911D11240895B7FF0C9451130E94B1
:1026C0005113821B930B0895A1E21A2EAA1BBB1B68
:1026D000FD010DC0AA1FBB1FEE1FFF1FA217B307EE
:1026E000E407F50720F0A21BB30BE40BF50B661F04
:1026F000771F881F991F1A9469F7609570958095C8
:1027000090959B01AC01BD01CF010895A29FB0013E
:10271000B39FC001A39F700D811D1124911DB29F15
:10272000700D811D1124911D08950E94061408F456
:1027300081E008950E94321488F09F5798F0B92FD5
:102740009927B751B0F0E1F0660F771F881F991FE6
:102750001AF0BA95C9F714C0B13091F00E944C1428
:10276000B1E008950C944C14672F782F8827B85F38
:1027700039F0B93FCCF3869577956795B395D9F73E
:102780003EF490958095709561957F4F8F4F9F4F48
:102790000895E89409C097FB3EF490958095709554
:1027A00061957F4F8F4F9F4F9923A9F0F92F96E99D
:1027B000BB279395F695879577956795B795F11112
:1027C000F8CFFAF4BB0F11F460FF1BC06F5F7F4FAF
:1027D0008F4F9F4F16C0882311F096E911C07723C1
:1027E00021F09EE8872F762F05C0662371F096E8CA
:1027F000862F70E060E02AF09A95660F771F881F99
:10280000DAF7880F9695879597F90895990F00083C
:10281000550FAA0BE0E8FEEF16161706E807F907B2
:10282000C0F012161306E407F50798F0621B730B4D
:10283000840B950B39F40A2661F0232B242B252BCE
:1028400021F408950A2609F4A140A6958FEF811D71
:10285000811D089557FD9058440F551F59F05F3F53
:1028600071F04795880F97FB991F61F09F3F79F0B2
:1028700087950895121613061406551FF2CF469534
:10288000F1DF08C0161617061806991FF1CF8695B6
:102890007105610508940895E894BB27662777279A
:1028A000CB0197F9089587FB082E062687FD8195B1
:1028B00067FD61950E9469140EF4919507FC81955E
:1028C0000895EE0FFF1F881F8BBF0790F691E02D34
:1028D0001994991B79E004C0991F961708F0961B6C
:1028E000881F7A95C9F780950895F894FFCF4F58BF
:1028F0000A0B0C353433321A1B1C161718193132D7
:10290000333435363738392A3023010000000000CF
:1029100000006C03CC02F902B9032A0308031C036C
:1029200000000000A804AC04B00400000000E109AD
:10293000CC02070406042E2E2E2E2E20536574740E
:10294000696E6773202E2E2E2E2E004D6F64653A11
:1029500020506C6179657200506C61796572313A12
:1029600000506C61796572323A004E6F7720706C5E
:102970006179733A20004D6F64653A20426C756549
:102980002020004D6F64653A20426F7420202000A3
:1029900020202020426F743A002E2E2E2E2E20470B
:1029A000616D6520582F4F202E2E2E2E2E007B730A
:1029B00074617274002C00426C7565004E6F6E6518
:1029C000007D007B77696E6E6572002020202020DC
:1029D0002020202020202020202020202000576997
:1029E0006E6E65723A20506C61796572310057697C
:1029F0006E6E65723A20506C61796572320057696B
:102A00006E6E65723A20426C7565322020005769FF
:102A10006E6E65723A20426F742020202000576944
:102A20006E6E65723A204472617700202020204249
:102A30006F74002020426C756532002020426C7556
:042A400065323A00C1
:020000040003F7
:10E000000D9489F10D94B2F10D94B2F10D94B2F129
:10E010000D94B2F10D94B2F10D94B2F10D94B2F1F0
:10E020000D94B2F10D94B2F10D94B2F10D94B2F1E0
:10E030000D94B2F10D94B2F10D94B2F10D94B2F1D0
:10E040000D94B2F10D94B2F10D94B2F10D94B2F1C0
:10E050000D94B2F10D94B2F10D94B2F10D94B2F1B0
:10E060000D94B2F10D94B2F10D94B2F10D94B2F1A0
:10E070000D94B2F10D94B2F10D94B2F10D94B2F190
:10E080000D94B2F10D94B2F10D94B2F10D94B2F180
:10E090000D94B2F10D94B2F10D94B2F10D94B2F170
:10E0A0000D94B2F10D94B2F10D94B2F10D94B2F160
:10E0B0000D94B2F10D94B2F10D94B2F10D94B2F150
:10E0C0000D94B2F10D94B2F10D94B2F10D94B2F140
:10E0D0000D94B2F10D94B2F10D94B2F10D94B2F130
:10E0E0000D94B2F141546D656761323536300041AF
:10E0F000726475696E6F206578706C6F72657220DE
:10E1000073746B3530305632206279204D4C530099
:10E11000426F6F746C6F616465723E004875683F52
:10E1200000436F6D70696C6564206F6E203D200048
:10E130004350552054797065202020203D20005FF9
:10E140005F4156525F415243485F5F3D2000415658
:10E1500052204C696243205665723D20004743437C
:10E160002056657273696F6E203D20004350552024
:10E1700049442020202020203D20004C6F7720663D
:10E18000757365202020203D20004869676820665F
:10E190007573652020203D200045787420667573D6
:10E1A00065202020203D20004C6F636B2066757336
:10E1B000652020203D20004D617220203720323024
:10E1C000313300312E362E3800342E332E350056A2
:10E1D00023202020414444522020206F7020636F70
:10E1E00064652020202020696E73747275637469E1
:10E1F0006F6E2061646472202020496E74657272B3
:10E20000757074006E6F20766563746F7200726A49
:10E210006D702020006A6D70200057686174207056
:10E220006F72743A00506F7274206E6F7420737541
:10E2300070706F72746564004D7573742062652030
:10E2400061206C6574746572002000577269747483
:10E25000696E672045450052656164696E672045B7
:10E26000450045452065727220636E743D00504F35
:10E27000525400303D5A65726F2061646472003FF1
:10E280003D43505520737461747300403D454550C3
:10E29000524F4D207465737400423D426C696E6B41
:10E2A000204C454400453D44756D70204545505215
:10E2B0004F4D00463D44756D7020464C415348001B
:10E2C000483D48656C70004C3D4C69737420492F83
:10E2D0004F20506F72747300513D51756974005234
:10E2E0003D44756D702052414D00563D73686F7707
:10E2F00020696E7465727275707420566563746FF0
:10E30000727300593D506F727420626C696E6B00BD
:10E310002A0011241FBECFEFD1E2DEBFCDBF01E046
:10E320000CBF12E0A0E0B2E0EEE1FDEF03E00BBFB6
:10E3300002C007900D92A030B107D9F712E0A0E01B
:10E34000B2E001C01D92AE30B107E1F70F9460F367
:10E350000D948DFE01E20EBF0FEF0DBF11241FBE05
:10E360000D9460F30D9400F020E030E040ED57E0B4
:10E3700005C0FA013197F1F72F5F3F4F2817390792
:10E38000C0F308959C01260F311DC901A0E0B0E043
:10E390002F5F3F4FABBFFC018791882361F08093D3
:10E3A000C6008091C00086FFFCCF8091C0008064D1
:10E3B0008093C000EACF08958DE08093C6008091DD
:10E3C000C00086FFFCCF8091C00080648093C000B5
:10E3D0008AE08093C6008091C00086FFFCCF8091C8
:10E3E000C00080648093C00008950F94C2F10F9420
:10E3F000DCF10895FC019081992359F09093C600B7
:10E400008091C00086FFFCCF8091C0008064809323
:10E41000C0003196992379F70895282F982F929567
:10E420009F70892F805D8A3308F0895F8093C600D2
:10E430008091C00086FFFCCF8091C00080648093F3
:10E44000C000822F8F70982F905D9A3308F0995FEB
:10E450009093C6008091C00086FFFCCF8091C000E1
:10E4600080648093C00008959C01FB01853691056E
:10E470001CF46330710594F0C90164E670E00F94F8
:10E480002EFE605D7F4F6093C6008091C00086FFC6
:10E49000FCCF8091C00080648093C0002B30310598
:10E4A00014F43297B4F0C90164E670E00F942EFEC4
:10E4B0006AE070E00F942EFE605D7F4F6093C600AF
:10E4C0008091C00086FFFCCF8091C0008064809363
:10E4D000C000C9016AE070E00F942EFEC0968093E0
:10E4E000C6008091C00086FFFCCF8091C000806490
:10E4F0008093C00008951F93182F8EE692EE60E07F
:10E500000F94C2F11093C6008091C00086FFFCCF2B
:10E510008091C00080648093C0000F94DCF11F9153
:10E5200008952F923F924F925F926F927F928F92B7
:10E530009F92AF92BF92CF92DF92EF92FF920F9392
:10E540001F93DF93CF93CDB7DEB762970FB6F894E2
:10E55000DEBF0FBECDBF382E622ECA01DB015C01CB
:10E560006D01772420E2222E2E010894411C511CBB
:10E570008BC081E0A81680E0B80681E0C80680E084
:10E58000D80628F0C601AA27BB270F940DF2BB2797
:10E59000AD2D9C2D8B2D0F940DF28A2D0F940DF225
:10E5A0002092C6008091C00086FFFCCF8091C00001
:10E5B00080648093C0009DE29093C6008091C0006B
:10E5C00086FFFCCF8091C00080648093C0002092C1
:10E5D000C6008091C00086FFFCCF8091C00080649F
:10E5E0008093C00019828601750188249924A1E0D6
:10E5F0003A1651F03A1620F0B2E03B1661F409C029
:10E600000BBFF701779007C0C7010F9477FE782EF4
:10E6100002C0F7017080872D0F940DF22092C60082
:10E620008091C00086FFFCCF8091C0008064809301
:10E63000C000872D8052F401EF70F0708F3520F408
:10E64000E40DF51D708204C0E40DF51D8EE280839B
:10E650000894E11CF11C011D111D0894811C911CE2
:10E6600090E18916910409F0C2CF80E190E0A0E02A
:10E67000B0E0A80EB91ECA1EDB1E198AC2010F9493
:10E68000FAF10F94DCF16A94662009F072CF629679
:10E690000FB6F894DEBF0FBECDBFCF91DF911F91B3
:10E6A0000F91FF90EF90DF90CF90BF90AF909F9031
:10E6B0008F907F906F905F904F903F902F90089534
:10E6C0002F923F924F925F926F927F928F929F9282
:10E6D000AF92BF92CF92DF92EF92FF920F931F9370
:10E6E000DF93CF93CDB7DEB7CD53D1400FB6F894BB
:10E6F000DEBF0FBECDBF01E20EBF0FEF0DBF94B75F
:10E70000F894A89514BE80916000886180936000A1
:10E7100010926000789493FF05C0E0910002F091A0
:10E7200001021995279A2F9A8091C00082608093E8
:10E73000C00080E18093C40088E18093C1000000A4
:10E74000EE24FF24870144E0A42EB12CCC24DD2448
:10E7500024C0C5010197F1F70894E11CF11C011DCB
:10E76000111D21E2E2162EE4F20620E0020720E06D
:10E77000120718F031E0C32ED12CC801B70127ECE5
:10E780003BE140E050E00F9441FE611571058105C9
:10E79000910519F485B1805885B98091C00087FD35
:10E7A00003C0C114D104A9F2A6014F5F5F4FC25E3E
:10E7B000DE4F59834883CE51D140C25EDE4F8881FF
:10E7C0009981CE51D140019711F00D9410FEC05D9A
:10E7D000DE4F19821882C053D14060E0C15DDE4F28
:10E7E0001882CF52D14088249924C35DDE4F19820C
:10E7F0001882CD52D140C05EDE4F188219821A8233
:10E800001B82C052D140CE5CDE4F188219821A8220
:10E810001B82C253D140EE24FF2487010BBFF701B6
:10E8200007911691C45CDE4F19830883CC53D14005
:10E830000D940BFEC25EDE4F28813981CE51D1404E
:10E840002130310509F52091C600C25EDE4F1982E4
:10E850001882CE51D14022C02F5F3F4F4F4F5F4FA4
:10E86000213082E138078AE7480780E0580780F0C6
:10E87000C45CDE4FE881F981CC53D140EF5FFF4F9C
:10E8800019F0EE27FF27099420E030E040E050E047
:10E890008091C00087FFE0CF2091C600C35DDE4FAE
:10E8A00048815981CD52D1404F5F5F4FC35DDE4FEC
:10E8B00059834883CD52D140213209F063C64A3092
:10E8C000510508F05FC60894811C911C53E0851621
:10E8D000910409F059C600E010E018C081E280936D
:10E8E000C6008091C00086FFFCCF8091C00080648C
:10E8F0008093C0002F5F3F4F2931310579F70F9486
:10E90000DCF10F5F1F4F0530110519F020E030E0FA
:10E91000E5CF10920A0210920B0210920C02109294
:10E920000D02109206021092070210920802109235
:10E930000902109202021092030210920402109235
:10E9400005028FEE90EE60E00F94F5F180E191EE1C
:10E9500060E00F94C2F18091C00087FFFCCF9091DE
:10E96000C600903608F09F759032B8F09093C600BC
:10E970008091C00086FFFCCF8091C00080648093AE
:10E98000C000A0E2A093C6008091C00086FFFCCF2B
:10E990008091C00080648093C000983409F4D7C18E
:10E9A0009934B8F4923409F459C1933458F490333B
:10E9B00019F1903308F4E3C59F33A1F1903409F0C5
:10E9C000DEC5BDC0953409F470C1963409F0D7C5D1
:10E9D00098C1923509F42BC2933538F49C3409F46C
:10E9E000F5C1913509F0CBC518C2963509F445C279
:10E9F000993509F0C4C567C483E792EE62E00F94CD
:10EA0000F5F110920602109207021092080210927D
:10EA1000090210920A0210920B0210920C0210923C
:10EA20000D0213C18FE792EE62E00F94F5F18FEEC5
:10EA300090EE60E00F94F5F181E291EE60E00F94CA
:10EA4000C2F187EB91EE60E00F94F5F180E391EE77
:10EA500060E00F94C2F184EE90EE60E00F94F5F167
:10EA60008FE391EE60E00F94C2F186E090E061E008
:10EA700070E00F9434F20F94DCF18DE591EE60E0DC
:10EA80000F94C2F189EC91EE60E00F94F5F18EE401
:10EA900091EE60E00F94C2F183EC91EE60E00F9490
:10EAA000F5F18CE691EE60E00F94C2F18EE10F94E7
:10EAB0000DF288E90F940DF281E00F940DF20F949E
:10EAC000DCF18BE791EE60E00F94C2F119E0E0E039
:10EAD000F0E010935700E4918E2F0F940DF20F94F5
:10EAE000DCF18AE891EE60E00F94C2F1E3E0F0E03F
:10EAF00010935700E4918E2F0F940DF20F94DCF1D8
:10EB000089E991EE60E00F94C2F1E2E0F0E0109349
:10EB10005700E4918E2F0F940DF20F94DCF188EAE8
:10EB200091EE60E00F94C2F1E1E0F0E01093570045
:10EB30001491812F0F940DF20F94DCF107CF8BE825
:10EB400092EE62E00F94F5F18BE492EE60E00F94A8
:10EB5000F5F10F94DCF100E010E019C0C8016F2D51
:10EB60000F947FFEFF2031F489E492EE60E00F9471
:10EB7000C2F10BC0F092C6008091C00086FFFCCFAE
:10EB80008091C00080648093C0000F5F1F4FC80158
:10EB900081519F41A0E0B0E0ABBFFC01F790BAE229
:10EBA000FB1621F0E2E000301E07C1F60F94DCF105
:10EBB0000F94DCF187E592EE60E00F94F5F10F948D
:10EBC000DCF1CC24DD2400E010E01EC0C8010F946D
:10EBD00077FEF82E882331F489E492EE60E00F94FA
:10EBE000C2F10BC08093C6008091C00086FFFCCFAD
:10EBF0008091C00080648093C000FE1419F00894D6
:10EC0000C11CD11C0F5F1F4FC80181519F41A0E063
:10EC1000B0E0ABBFFC01E790FAE2EF1621F022E092
:10EC20000030120799F60F94DCF10F94DCF182E6C4
:10EC300092EE60E00F94C2F1C60161E070E00F94C3
:10EC400034F20F94DCF10F94DCF110920202109276
:10EC50000302109204021092050278CE89E992EE26
:10EC600062E00F94F5F1279A2F9A16C02F9880E052
:10EC700090E0E0EDF7E03197F1F7019684369105E9
:10EC8000C1F72F9A80E090E0E0EDF7E03197F1F7DF
:10EC9000019684369105C1F78091C00087FFE6CFC9
:10ECA0008091C00087FFFCCF64C485EA92EE62E0E9
:10ECB0000F94F5F140910202509103026091040219
:10ECC0007091050281E020E10F9491F2809102029F
:10ECD00090910302A0910402B091050280509F4FD1
:10ECE000AF4FBF4F8093020290930302A0930402A0
:10ECF000B093050280509041A040B04008F426CE69
:10ED0000A4CF83EB92EE62E00F94F5F140910602FE
:10ED100050910702609108027091090280E020E1A1
:10ED20000F9491F28091060290910702A09108023F
:10ED3000B091090280509F4FAF4FBF4F80930602A2
:10ED400090930702A0930802B0930902FFCD80ECD4
:10ED500092EE62E00F94F5F183E792EE60E00F949B
:10ED6000F5F18FE792EE60E00F94F5F18BE892EE0B
:10ED700060E00F94F5F189E992EE60E00F94F5F10F
:10ED800085EA92EE60E00F94F5F183EB92EE60E09D
:10ED90000F94F5F180EC92EE60E00F94F5F187ECC2
:10EDA00092EE60E00F94F5F188ED92EE60E00F9442
:10EDB000F5F18FED92EE60E00F94F5F18AEE92EEB0
:10EDC00060E00F94F5F183E093EEBDCD87EC92EE19
:10EDD00062E00F94F5F181E40F947BF282E40F94EA
:10EDE0007BF283E40F947BF284E40F947BF285E45E
:10EDF0000F947BF286E40F947BF287E40F947BF20E
:10EE000088E40F947BF28AE40F947BF28BE40F94F6
:10EE10007BF28CE40F947BF299CD88ED92EE62E068
:10EE20000F94F5F1772473948824992409C48FED05
:10EE300092EE62E00F94F5F140910A0250910B02BC
:10EE400060910C0270910D0282E020E10F9491F22A
:10EE500080910A0290910B02A0910C02B0910D02D8
:10EE600080509F4FAF4FBF4F80930A0290930B0289
:10EE7000A0930C02B0930D0269CD8AEE92EE62E08F
:10EE80000F94F5F184EE90EE60E00F94F5F18FECC5
:10EE900091EE60E00F94F5F1662477244301CC5D98
:10EEA000DE4F19821882C452D140D401C301B695F5
:10EEB000A79597958795CA5DDE4F88839983AA8326
:10EEC000BB83C652D140CC5DDE4FA881B981C4520C
:10EED000D1401196CC5DDE4FB983A883C452D14096
:10EEE000CD0162E070E00F9434F2B0E2B093C6005E
:10EEF0008091C00086FFFCCF8091C0008064809329
:10EF0000C000EDE2E093C6008091C00086FFFCCF18
:10EF10008091C00080648093C000F0E2F093C6004E
:10EF20008091C00086FFFCCF8091C00080648093F8
:10EF3000C000CA5DDE4FE880F9800A811B81C6529D
:10EF4000D140BB27A12F902F8F2D0F940DF2CA5DBA
:10EF5000DE4F8881C652D1400F940DF2B0E2FB2EF5
:10EF6000F092C6008091C00086FFFCCF8091C00067
:10EF700080648093C0000DE30093C6008091C000C0
:10EF800086FFFCCF8091C00080648093C00010E2B7
:10EF90001093C6008091C00086FFFCCF8091C00016
:10EFA00080648093C0008BBEF3012791C65DDE4F65
:10EFB0002883CA52D140A22EBB24CC24DD2408943D
:10EFC000611C711C811C911C8BBEF3018791282E42
:10EFD0003324442455240894611C711C811C911C09
:10EFE0008BBEF3013791C55DDE4F3883CB52D140E4
:10EFF0000894611C711C811C911C8BBEF30147910C
:10F00000C45DDE4F4883CC52D140ADEFEA2EAFEF66
:10F01000FA2EAFEF0A2FAFEF1A2F6E0C7F1C801E57
:10F02000911E142D032DF22CEE24EA0CFB1C0C1D5A
:10F030001D1D0F940DF220E22093C6008091C000A8
:10F0400086FFFCCF8091C00080648093C000C65DC5
:10F05000DE4F8881CA52D1400F940DF230E23093D6
:10F06000C6008091C00086FFFCCF8091C000806404
:10F070008093C000C45DDE4F8881CC52D1400F9494
:10F080000DF240E24093C6008091C00086FFFCCFA5
:10F090008091C00080648093C000C55DDE4F888190
:10F0A000CB52D1400F940DF250E25093C6008091A4
:10F0B000C00086FFFCCF8091C00080648093C000B8
:10F0C0008FEFE8168FEFF80680E0080780E018075A
:10F0D00031F484E092EE60E00F94C2F1DFC0D80119
:10F0E000C7018070907CA070B0708050904CA040A0
:10F0F000B040D1F52FEF3FE340E050E0E222F322B1
:10F1000004231523CA5DDE4FA880B980CA80DB8046
:10F11000C652D140AE0CBF1CC01ED11EAA0CBB1CD7
:10F12000CC1CDD1C8EE092EE60E00F94C2F1BB2798
:10F13000A12F902F8F2D0F940DF28E2D0F940DF285
:10F1400030E23093C6008091C00086FFFCCF8091F2
:10F15000C00080648093C0004EE34093C60080915D
:10F16000C00086FFFCCF87C08EE09EEFA0E0B0E03D
:10F17000E822F9220A231B239CE0E91694E9F90608
:10F1800090E0090790E0190709F088C0C45DDE4FE0
:10F19000A881CC52D140EA2EFF2400E010E0102FCD
:10F1A0000F2DFE2CEE24C55DDE4FB881CB52D14031
:10F1B000EB0EF11C011D111DD601C501817090706F
:10F1C000A070B070DC0199278827E80EF91E0A1F8D
:10F1D0001B1F20EF30E040E050E0A222B322C42207
:10F1E000D52241E1AA0CBB1CCC1CDD1C4A95D1F7F1
:10F1F000EA0CFB1C0C1D1D1D81E090E0A0E0B0E0BE
:10F20000282239224A225B2235E1220C331C441C7D
:10F21000551C3A95D1F7E20CF31C041D151D57013E
:10F220006801AA0CBB1CCC1CDD1C85E192EE60E0E1
:10F230000F94C2F1C801AA27BB270F940DF2BB2778
:10F24000A12F902F8F2D0F940DF28E2D0F940DF274
:10F2500090E29093C6008091C00086FFFCCF809121
:10F26000C00080648093C000AEE3A093C60080918C
:10F27000C00086FFFCCF8091C00080648093C000F6
:10F28000C601AA27BB270F940DF2BB27AD2D9C2DDD
:10F290008B2D0F940DF28A2D0F940DF20F94DCF14B
:10F2A000CC5DDE4FE881F981C452D140F99709F471
:10F2B0004DCBF4E0EF2EF12C012D112D6E0C7F1CA7
:10F2C000801E911EF2CD83E093EE62E00F94F5F183
:10F2D0008AE192EE60E00F94C2F18091C00087FF56
:10F2E000FCCF1091C6001F751093C6008091C0001E
:10F2F00086FFFCCF8091C00080648093C0000F9493
:10F30000DCF1812F81548A3108F036C1163409F4BA
:10F3100095C0173490F4133409F44EC0143430F40B
:10F320001134F1F0123409F01DC130C0143409F465
:10F3300059C0153409F016C16BC01A3409F4C4C0A1
:10F340001B3438F4173409F48FC0183409F00AC19B
:10F35000A1C01B3409F4D2C01C3409F003C1E8C0B9
:10F360008FEF81B90DC082B1809582B980E090E0C5
:10F37000E0EDF7E03197F1F70196883C9105C1F790
:10F380008091C00087FFEFCF12B8EFC08FEF84B934
:10F390000DC085B1809585B980E090E0E0EDF7E0A3
:10F3A0003197F1F70196883C9105C1F78091C00033
:10F3B00087FFEFCF15B8D9C08FEF87B90DC088B1DF
:10F3C000809588B980E090E0E0EDF7E03197F1F7C3
:10F3D0000196883C9105C1F78091C00087FFEFCF6F
:10F3E00018B8C3C08FEF8AB90DC08BB180958BB9A7
:10F3F00080E090E0E0EDF7E03197F1F70196883C8E
:10F400009105C1F78091C00087FFEFCF1BB8ADC059
:10F410008FEF8DB90DC08EB180958EB980E090E0F0
:10F42000E0EDF7E03197F1F70196883C9105C1F7DF
:10F430008091C00087FFEFCF1EB897C08FEF80BBD1
:10F440000DC081B3809581BB80E090E0E0EDF7E0F6
:10F450003197F1F70196883C9105C1F78091C00082
:10F4600087FFEFCF11BA81C08FEF83BB0DC084B38C
:10F47000809584BB80E090E0E0EDF7E03197F1F714
:10F480000196883C9105C1F78091C00087FFEFCFBE
:10F4900014BA6BC08FEF809301010FC080910201FD
:10F4A00080958093020180E090E0E0EDF7E03197F5
:10F4B000F1F70196883C9105C1F78091C00087FF64
:10F4C000EDCF1092020151C08FEF809304010FC065
:10F4D0008091050180958093050180E090E0E0ED4A
:10F4E000F7E03197F1F70196883C9105C1F78091DB
:10F4F000C00087FFEDCF1092050137C08FEF8093DA
:10F5000007010FC08091080180958093080180E079
:10F5100090E0E0EDF7E03197F1F70196883C910536
:10F52000C1F78091C00087FFEDCF109208011DC088
:10F530008FEF80930A010FC080910B01809580931B
:10F540000B0180E090E0E0EDF7E03197F1F70196F4
:10F55000883C9105C1F78091C00087FFEDCF1092E4
:10F560000B0103C085E292EEEEC98091C00087FFD7
:10F57000FCCF8091C600EAC988E392EEE4C98CE131
:10F5800091EEE1C988249924933011F1943028F444
:10F59000913089F09230B8F408C0953061F195301F
:10F5A000F0F0963009F048C043C02B3109F042C951
:10F5B00091E06BE13FC96227C15DDE4F2883CF52E6
:10F5C000D14092E037C9B22FA0E0622793E032C960
:10F5D000822F90E0A82BB92B622794E02BC92E3004
:10F5E00009F039C3622795E0C05DDE4F19821882A9
:10F5F000C053D1401FC9E1E0F0E0EC0FFD1FC05D3A
:10F60000DE4F08811981C053D140E00FF11F2083E4
:10F610000F5F1F4FC05DDE4F19830883C053D14079
:10F6200062270A171B0709F005C9D80196E002C92D
:10F63000261709F010C303C0973009F0FBC87724E0
:10F640009981933109F412C19431C8F4963009F4C8
:10F65000D8C0973050F4923009F406C1933009F4C1
:10F660006DC0913009F059C253C0913109F477C08F
:10F67000923108F0BBC0903109F04FC2F5C098310B
:10F6800009F487C0993150F4953109F4EFC09531F0
:10F6900008F4C6C1963109F040C2C2C19A3109F4DA
:10F6A0006CC09A3108F491C09B3109F45BC09D3164
:10F6B00009F033C29D81903359F48F81882311F46E
:10F6C0009EE11CC0813011F091E018C098E916C08D
:10F6D000892F807591F0903539F4E0E0F0E089E011
:10F6E0008093570094910AC0983539F4E3E0F0E034
:10F6F00089E080935700949101C090E01A821B82A8
:10F700008D818C831D829E831F8227E030E009C299
:10F710001A8288E08B8381E48C8386E58D8382E581
:10F720008E8389E48F8383E5888780E589878FE5E9
:10F730008A8782E38B872BE030E0F3C18A818139AD
:10F7400041F0823941F0803911F48FE005C080E04A
:10F7500003C082E001C08AE01A828B8344C0772410
:10F76000739482C08D81882311F48EE12CC0813086
:10F7700011F081E028C088E926C01A82E1E0F0E0BB
:10F7800089E08093570084918B831C8224E030E0D1
:10F79000C8C18B81803589F48C81883039F4E2E0EE
:10F7A000F0E089E08093570084910DC0E0E0F0E044
:10F7B00089E080935700849106C0E3E0F0E089E09F
:10F7C0008093570084911A82DFCF8D81836C99E0FA
:10F7D000E1E0F0E0082E90935700E89507B600FCB2
:10F7E000FDCF1A821B8223E030E09BC180EC8A832C
:10F7F000CE5CDE4F188219821A821B82C253D1401E
:10F800008EC18A8190E0A0E0B0E0582F44273327D2
:10F8100022278B8190E0A0E0B0E0DC0199278827C7
:10F82000282B392B4A2B5B2B8D8190E0A0E0B0E098
:10F83000282B392B4A2B5B2B8C8190E0A0E0B0E089
:10F84000BA2FA92F982F8827282B392B4A2B5B2BCF
:10F85000220F331F441F551FC05EDE4F288339839C
:10F860004A835B83C052D1401A8259C13A81C95C34
:10F87000DE4F3883C753D140CA5CDE4F1882C6536F
:10F88000D1408B81C82EDD24CA5CDE4F488159816E
:10F89000C653D140C42AD52A933109F082C0CE5C28
:10F8A000DE4F88819981AA81BB81C253D1408050AB
:10F8B000904CA340B04030F583E0CE5CDE4FE88052
:10F8C000F9800A811B81C253D140F70100935B008C
:10F8D00080935700E89507B600FCFDCFCE5CDE4F65
:10F8E000088119812A813B81C253D14000501F4FAA
:10F8F0002F4F3F4FCE5CDE4F088319832A833B8313
:10F90000C253D140C05EDE4F488159816A817B81FC
:10F91000C052D140DE011B9631E08C9111962C91A2
:10F9200011971296C75CDE4F2883C953D140C85C3B
:10F93000DE4F1882C853D14090E0C85CDE4FE881AA
:10F94000F981C853D1408E2B9F2B0C01FA01609393
:10F950005B0030935700E89511244E5F5F4F6F4F67
:10F960007F4F0EEFE02E0FEFF02ECE0CDF1CC114F8
:10F97000D10499F685E0C05EDE4F088119812A81A5
:10F980003B81C052D140F80120935B008093570027
:10F99000E89507B600FCFDCF81E180935700E8951C
:10F9A00035C0C05EDE4F88819981AA81BB81C0527B
:10F9B000D140B695A795979587957C018601ABE0D8
:10F9C000AA2EB12CAC0EBD1E0BC0D5016D915D01F0
:10F9D000C7010F947FFE0894E11CF11C01501040F8
:10F9E0000115110591F7A60160E070E0440F551F65
:10F9F000661F771FC05EDE4FE880F9800A811B8199
:10FA0000C052D1404E0D5F1D601F711F1A82C05E33
:10FA1000DE4F488359836A837B83C052D1407FC0C5
:10FA2000FA80C55CDE4FF882CB53D140C65CDE4F16
:10FA30001882CA53D1408B81C82EDD24C65CDE4FAC
:10FA400008811981CA53D140C02AD12A1A828981DA
:10FA5000BE016D5F7F4F843121F59601C05EDE4FA0
:10FA6000E880F9800A811B81C052D1400BBFF701A9
:10FA700087919691DB018C9311969C936E5F7F4FDB
:10FA8000D801C7010296A11DB11DC05EDE4F88835B
:10FA90009983AA83BB83C052D14022503040F1F6F3
:10FAA00036C0C05EDE4F288139814A815B81C052F9
:10FAB000D1400894C108D108760100E010E0089414
:10FAC000C11CD11C0894E11CF11C011D111DE20E8A
:10FAD000F31E041F151F21BDBB27A52F942F832FB5
:10FAE00082BD2F5F3F4F4F4F5F4FF89A80B5DB01CC
:10FAF0008D93BD012E153F054007510761F7C05E8C
:10FB0000DE4F288339834A835B83C052D1409601FC
:10FB10002D5F3F4FFB01108204C080EC8A8322E0FE
:10FB200030E08BE18093C6008091C00086FFFCCF5F
:10FB30008091C00080648093C000C15DDE4FF88179
:10FB4000CF52D140F093C6008091C00086FFFCCF19
:10FB50008091C00080648093C000432F3093C60022
:10FB60008091C00086FFFCCF8091C00080648093AC
:10FB7000C000922F2093C6008091C00086FFFCCF6A
:10FB80008091C00080648093C0008EE08093C600A6
:10FB90008091C00086FFFCCF8091C000806480937C
:10FBA000C00065E1C15DDE4FE880CF52D1406E25D7
:10FBB00069276427FE01319610C090819093C6009A
:10FBC0008091C00086FFFCCF31968091C000806498
:10FBD0008093C0006927215030402115310569F715
:10FBE0006093C6008091C00086FFFCCF8091C0006A
:10FBF00080648093C00085B1805885B9772081F4F6
:10FC0000C15DDE4F0881CF52D1400F5FC15DDE4F35
:10FC10000883CF52D14090E0A0E0B0E00D941AF4F8
:10FC200027982F9880E090E020ED37E0F901319798
:10FC3000F1F7019684369105C9F700008091C00064
:10FC40008D7F8093C00081E180935700E895EE2777
:10FC5000FF270994FFCF90E00D941AF497FB092E2B
:10FC600007260AD077FD04D02ED006D000201AF443
:10FC7000709561957F4F0895F6F7909581959F4F08
:10FC80000895A1E21A2EAA1BBB1BFD010DC0AA1FDD
:10FC9000BB1FEE1FFF1FA217B307E407F50720F0F5
:10FCA000A21BB30BE40BF50B661F771F881F991F70
:10FCB0001A9469F760957095809590959B01AC01B9
:10FCC000BD01CF010895AA1BBB1B51E107C0AA1FAC
:10FCD000BB1FA617B70710F0A61BB70B881F991FED
:10FCE0005A95A9F780959095BC01CD010895F99991
:10FCF000FECF92BD81BDF89A992780B50895262F31
:10FD0000F999FECF1FBA92BD81BD20BD0FB6F89400
:0EFD1000FA9AF99A0FBE01960895F894FFCF63
:00000001FF
