:100000000C9441010C9472010C9472010C947201D5
:100010000C9472010C9472010C9472010C94720194
:100020000C9472010C9472010C9472010C94720184
:100030000C9472010C9472010C9472010C94720174
:100040000C9472010C9472010C9472010C94720164
:100050000C9472010C9472010C9472010C94930C28
:100060000C9472010C94670D0C943D0D0C9472016C
:100070000C9472010C9472010C9472010C94720134
:100080000C9472010C9472010C9472010C94720124
:100090000C94070D0C94DD0C0C9472010C947201FD
:1000A0000C9472010C9472010C9472010C94720104
:1000B0000C9472010C9472010C9472010C947201F4
:1000C0000C9472010C9472010C9472010C947201E4
:1000D0000C9472010C9472010C9472010C947201D4
:1000E0000C9472010C94B9030C94F9020C94CC0298
:1000F0000C94A7010C94AD010C942A030C940604F3
:100100000C94C5010C946C030C94D7010C941C0343
:100110000C94A0010C9492010C94C9010C94A804B5
:100120000C94BF010C9498010C9408030C94B10139
:100130000C94CD010C94B7010C94BB010C94A40158
:100140000C9407040C94E1090C949D0D0C94D201BD
:100150000C949C010C94AC040C94D3010C94B0044A
:1001600000002100240027002A002D003000330069
:1001700001010000040107010A010000220025001E
:1001800028002B002E003100340002010000050180
:1001900008010B01000020002300260029002C008C
:1001A0002F003200000100000301060109010505CE
:1001B0000505070508080808020202020A0A0808DD
:1001C000040404040101010101010101030303030B
:1001D00003030303040707070C0C0C0C0C0C0C0C9A
:1001E0000202020206060606060606060B0B0B0BAB
:1001F0000B0B0B0B010210202008081020401020D0
:1002000040800201020108040201010204081020DA
:1002100040808040201008040201800402018040D8
:100220002010080402010804020101020408102041
:100230004080010204081020408000000A0B0209DF
:100240000C0D0E0807030401000000000000000070
:10025000000000000000000000000000000000009E
:10026000000000000000121110000000000000005B
:10027000000000000000000000000000000000007E
:100280009D0D11241FBECFEFD1E2DEBFCDBF00E038
:100290000CBF13E0A0E0B2E0EEEEF8E200E00BBF2E
:1002A00002C007900D92A635B107D9F725E0A6E563
:1002B000B3E001C01D92AF39B207E1F711E0C1E42C
:1002C000D1E000E006C021970109802FFE010E94C5
:1002D0006114C034D10780E00807A9F70E94E00E3E
:1002E0000C9475140C9400008150823108F05AC0AF
:1002F000E82FF0E08827E058FE4F8F4F0C946114F0
:10030000A001A401920198019C01D201A701AD01B5
:10031000B101B701BB01BF01C501C901D201CD01C6
:10032000D301D701809180008F778093800008955A
:10033000809180008F7DF9CF80918000877FF5CFFD
:1003400084B58F7784BD089584B58F7DFBCF809170
:10035000B0008F778093B00008958091B0008F7DBA
:10036000F9CF809190008F778093900008958091CD
:1003700090008F7DF9CF80919000877FF5CF80919D
:10038000A0008F778093A00008958091A0008F7DBA
:10039000F9CF8091A000877FF5CF809120018F77E2
:1003A000809320010895809120018F7DF9CF809165
:1003B0002001877FF5CFCF93DF93282F30E0F9011D
:1003C000E65CFD4F8491F901EC50FE4FD491F901A8
:1003D000E255FE4FC491CC23A1F081110E9474011B
:1003E000EC2FF0E0EE0FFF1FEC56FE4FA591B491FD
:1003F000EC91ED2381E090E009F480E0DF91CF9172
:10040000089580E090E0FACF1F93CF93DF93282FD9
:1004100030E0F901E65CFD4F8491F901EC50FE4FAC
:10042000D491F901E255FE4FC491CC23A9F0162FC7
:1004300081110E947401EC2FF0E0EE0FFF1FE658CF
:10044000FE4FA591B4918FB7F894EC91111108C0AB
:10045000D095DE23DC938FBFDF91CF911F9108955C
:10046000DE2BF8CFCF93DF9390E0FC01EC50FE4FF2
:10047000249182559E4FFC0184918823C9F090E01D
:10048000880F991FFC01E05AFE4FA591B491FC0121
:10049000E658FE4FC591D49161110DC09FB7F894F5
:1004A0008C91209582238C938881282328839FBF59
:1004B000DF91CF910895623051F49FB7F8943C9149
:1004C000822F809583238C93E8812E2BEFCF8FB7DB
:1004D000F894EC912E2B2C938FBFEACF3FB7F89472
:1004E00080916B0390916C03A0916D03B0916E03AA
:1004F00026B5A89B05C02F3F19F00196A11DB11D7F
:100500003FBFBA2FA92F982F8827BC01CD01620FBA
:10051000711D811D911D42E0660F771F881F991F75
:100520004A95D1F708958F929F92AF92BF92CF9242
:10053000DF92EF92FF924B015C010E946E026B0111
:100540007C010E946E026C197D098E099F09683E2C
:10055000734081059105A8F321E0821A9108A10852
:10056000B10888EEC80E83E0D81EE11CF11C81148E
:100570009104A104B10429F7FF90EF90DF90CF9090
:10058000BF90AF909F908F900895DC01ED91FC910A
:100590000190F081E02D1994AF92BF92CF92DF923B
:1005A000EF92FF920F931F93CF93DF936C017B0128
:1005B0008B01040F151FEB015E01AE18BF08C017B9
:1005C000D10759F06991D601ED91FC910190F0812C
:1005D000E02DC6011995892B79F7C501DF91CF91DF
:1005E0001F910F91FF90EF90DF90CF90BF90AF9051
:1005F0000895FC01538D448D252F30E0842F90E029
:10060000821B930B541710F0CF960895019708950D
:10061000FC01918D828D981761F0A28DAE0FBF2FD6
:10062000B11D5D968C91928D9F5F9F73928F90E02C
:1006300008958FEF9FEF0895FC01918D828D98179B
:1006400031F0828DE80FF11D858D90E008958FEFD8
:100650009FEF0895FC01918D228D892F90E0805CA1
:100660009F4F821B91098F73992708958FE693E01E
:100670000E942A0321E0892B09F420E0822F0895AB
:100680008CE094E00E942A0321E0892B09F420E009
:10069000822F0895FC01A48DA80FB92FB11DA35A74
:1006A000BF4F2C91848D90E001968F739927848F92
:1006B000A689B7892C93A089B1898C9183708064B5
:1006C0008C93938D848D981306C00288F389E02D56
:1006D00080818F7D80830895EF92FF920F931F9307
:1006E000CF93DF93EC0181E0888F9B8D8C8D9813E5
:1006F0001AC0E889F989808185FF15C09FB7F894F1
:10070000EE89FF896083E889F9898081837080643C
:1007100080839FBF81E090E0DF91CF911F910F9187
:10072000FF90EF900895F62E0B8D10E00F5F1F4F96
:100730000F731127E02E8C8D8E110CC00FB607FCA5
:10074000FACFE889F989808185FFF5CFCE010E9433
:100750004A03F1CFEB8DEC0FFD2FF11DE35AFF4F54
:10076000F0829FB7F8940B8FEA89FB8980818062C1
:10077000CFCFCF93DF93EC01888D8823B9F0AA897E
:10078000BB89E889F9898C9185FD03C0808186FD4C
:100790000DC00FB607FCF7CF8C9185FFF2CF80819B
:1007A00085FFEDCFCE010E944A03E9CFDF91CF91C3
:1007B000089580E090E0892B29F00E944003811188
:1007C0000E94000080E090E0892B29F00E9436030F
:1007D00081110E94000080E090E0892B49F080E0C8
:1007E00090E0892B29F00E94000081110E940000F6
:1007F00080E090E0892B49F080E090E0892B29F09F
:100800000E94000081110C9400000895089590E06A
:1008100080E00895CF93DF93DC0126E0629FA00D76
:10082000B11D112490965C934E935F9721E09196B1
:100830002C939197FC01E359FF4F0190F081E02D3B
:10084000EC01C459DF4F2881222341F0309719F081
:10085000DC01662329F0DF91CF9108953097D9F319
:100860005C968C91DF91CF911994CF92DF92EF92A9
:10087000FF920F931F93CF93DF93FC0126E0629FBB
:10088000E00DF11D112411A2278D30A12130310579
:1008900059F188F02230310509F452C02330310576
:1008A00009F453C0DF91CF911F910F91FF90EF900A
:1008B000DF90CF9008954423A9F3EC0141E050E08C
:1008C0000E940A042FB7F8948091670390916803FF
:1008D000A0916903B0916A032FBFC85ADF4F888384
:1008E0009983AA83BB83DECF2FB7F894C0906703A8
:1008F000D0906803E0906903F0906A032FBFFC0179
:10090000E85AFF4F0081118122813381C01AD10A38
:10091000E20AF30A72960081118130E020E00C15A2
:100920001D052E053F0560F442E050E0DF91CF91B8
:100930001F910F91FF90EF90DF90CF900C940A04DD
:100940004111B0CF43E050E0F1CF50E040E0EECFB6
:10095000862F642F0C943202862F642F0C9404028D
:10096000862F0C94DB012F923F924F925F926F92F1
:100970007F928F929F92AF92BF92CF92DF92EF922F
:10098000FF920F931F93CF93DF93CDB7DEB72C97D2
:100990000FB6F894DEBF0FBECDBF9C0124593F4F68
:1009A0003A83298321E0A981BA812C934FB7F89427
:1009B00000916703109168032091690330916A03E5
:1009C0004FBFFC01E45AFF4FFC83EB834081518110
:1009D00062817381041B150B260B370B3C964081FB
:1009E000518170E060E0401751076207730708F01B
:1009F00059C19C878B8710E06C01F6E6CF0ED11CA5
:100A00007C0122E6E20EF11CD6018C91181758F4F5
:100A1000D701ED91FC91E10FF11D62E080810E9410
:100A200032021F5FF1CF312C4B845C84B7E64B0E52
:100A3000511CEB84FC84E4E6EE0EF11C812C912C1D
:100A4000540183942B853C852E593F4F3A87298743
:100A5000D2018C91381608F063C0032D10E0D70145
:100A6000ED91FC91E00FF11F61E080810E94320264
:100A7000D701ED91FC91E00FF11F60E080810E94B1
:100A80000402D501C401032C04C0880F991FAA1FBA
:100A9000BB1F0A94D2F79E838D83FC01E095F095ED
:100AA000F887EF83212CD6018C91281620F5622C33
:100AB000712CA985BA85ED91FC91E60DF71D808119
:100AC0000E94DB01660C771CEB85FC85E60DF71DAB
:100AD000892B51F4808591852D813E81822B932B2A
:100AE000918780872394DFCF808591854F815885BA
:100AF00084239523F5CFD701ED91FC91E00FF11FF1
:100B000061E080810E940402F70180819181080FD9
:100B1000191F60E0D8018C910E943202339498CF63
:100B20000B851C85C801CC9678012FEF3FEFF701AC
:100B3000478D50A1452B21F4148E368F258F11A29D
:100B4000F6E0EF0EF11CE816F90689F7912CAB845C
:100B5000BC8420E6A20EB11C96E0392ED6018C9101
:100B6000981608F059C0812C692C712CB4E06B0EDA
:100B7000711C660C771CEB85FC856E0E7F1ED20106
:100B80008C91881608F046C0F30140815181082CF1
:100B900002C0569547950A94E2F7989EC001112429
:100BA000880D911DEB85FC8560E0258D368D8217C3
:100BB000930709F47CC06F5F36966A30B1F740FF47
:100BC00027C0EB85FC8570E060E0248D21111AC000
:100BD000D501ED91FC91E80FF91F2081369EF001BF
:100BE000379EF00D11244B855C85E40FF51F248F93
:100BF000968F858F10A2178E41E08B859C850E9471
:100C0000350406C06F5F7F4F36966A307105E9F68E
:100C10008394B5CF9394A2CF80E0D80191969C9114
:100C20009111892F0A5F1F4FE016F106B1F79FB7A8
:100C3000F894409167035091680360916903709143
:100C40006A039FBFEB81FC8140835183628373837E
:100C5000882341F1AB85BC8591968C91919788232F
:100C600009F15F968D919C9190970197D9F45C96CC
:100C70008C912C960FB6F894DEBF0FBECDBFDF91DE
:100C8000CF911F910F91FF90EF90DF90CF90BF9089
:100C9000AF909F908F907F906F905F904F903F901C
:100CA0002F900895E981FA81108280E0E2CF4170AF
:100CB000A4CF982FABE5B3E0FD0130E020E08081C8
:100CC0004181891365C094130BC05281511162C0D8
:100CD0002F5F3F4F822F880F820F089589130AC01C
:100CE0008281891307C0411105C0822F880F820FAE
:100CF0008E5F08952F5F3F4F339623303105F9F60D
:100D000080E03D9112962C91129793134DC02913B8
:100D100009C015964C911597411148C0895F0895F7
:100D200093134BC015963C911597931346C0211110
:100D300044C08C5F0895921306C020916303921300
:100D400002C08823E1F020915D0392131AC0309114
:100D5000610398130EC0332351F030916103931354
:100D600012C0211112C083E0089589E0089587E040
:100D70000895891791F3931306C0811104C085E08B
:100D80000895981751F387E308959217B1F3FBCFB5
:100D90009413B0CF52815913A1CF8111ABCF822FC1
:100DA000880F820F8F5F0895291307C015964C9105
:100DB00015979413B5CF3323A9F38F5F833009F0D0
:100DC000A0CF20915B0380915F0392130EC0981314
:100DD000B4CF30916303332341F230916303931313
:100DE000AACF2111B0CF81E008959813ACCFF5CFF1
:100DF0008A9A64EF71E080E090E00E9493028A9802
:100E00000895FB0101900020E9F73197AF01461BDF
:100E1000570BDC01ED91FC910280F381E02D1994D8
:100E2000CF93DF93EC0160E08E810E94040261E0C9
:100E30008E810E94040260E08E810E9404028BE891
:100E400091E00197F1F7DF91CF910895CF92DF9272
:100E5000EF92FF920F931F93CF93DF936C017C016E
:100E600087E0E80EF11CD0E0C0E0062F10E0B801EA
:100E70000C2E02C0759567950A94E2F76170F70130
:100E800081917F010E9404022196C430D10579F737
:100E9000C601DF91CF911F910F91FF90EF90DF90EE
:100EA000CF900C941007CF92DF92EF92FF920F93A6
:100EB0001F93CF93DF93EC01F62E642F8C810E9459
:100EC00004028D818F3F19F060E00E9404020F2D13
:100ED00010E08F8584FF25C06E0187E0C80ED11C0D
:100EE000F12CE12CB8010E2C02C0759567950A947F
:100EF000E2F76170F60181916F010E940402FFEF39
:100F0000EF1AFF0A88E0E816F10461F7CE01DF91DD
:100F1000CF911F910F91FF90EF90DF90CF900C94A5
:100F20001007B80184E0759567958A95E1F7CE01C1
:100F30000E9426076F2DCE01DF91CF911F910F9157
:100F4000FF90EF90DF90CF900C94260740E0682F41
:100F500087E895E00C94530781E00E94A6078BE395
:100F60009FE10197F1F70895CF93DF93613029F066
:100F70009091960598609093960560939A051092CB
:100F80009B0590E490939C0580939D05805C8093E5
:100F90009E0561E080918B050E94320280918C0554
:100FA0008F3F19F061E00E94320261E080918D056F
:100FB0000E943202C7E8D5E09E0127583540809153
:100FC000960584FD0BC084E090E021962817390730
:100FD00044F461E08E810E943202EECF88E090E01E
:100FE000F4CF8BE39DE00197F1F760E080918B05F2
:100FF0000E94040260E080918D050E9404028091AD
:101000008C058F3F19F060E00E94040280919605E4
:1010100084FD34C063E087E895E00E942607CBE4B6
:10102000D6E4CE010197F1F763E087E895E00E94EE
:1010300026072197F1F763E087E895E00E942607ED
:1010400083E592E00197F1F762E087E895E00E947E
:1010500026078091960580620E94A60784E080930F
:1010600097058CE00E94A6070E94AC0782E080935F
:10107000980586E0DF91CF910C94A60780620E94CC
:10108000A6078BE496E40197F1F7809196058062BC
:101090000E94A60783E592E00197F1F780919605FB
:1010A00080620E94A607D5CF90919A05691710F02B
:1010B0006FEF690FE62FF0E0E957FA4F9489890F37
:1010C00080680C94A607CF93DF93C82F10925B0320
:1010D00010925C0310925D0310925E0310925F0306
:1010E00010926003109261031092620310926303E6
:1010F00060E080E00E945408C33509F0D1C068E484
:1011000072E087E895E00E9401078091640361E046
:10111000813009F045C080E00E9454086DE572E01E
:1011200087E895E00E94010762E080E00E94540891
:101130006AE672E087E895E00E940107609101028B
:1011400087E895E00E94C50262E08BE00E945408A7
:1011500063E772E087E895E00E9401076091000272
:1011600087E895E00E94C50263E080E00E94540891
:101170006CE772E087E895E00E94010780915A03CE
:10118000811108C068EF72E087E895E0DF91CF91A8
:101190000C940107813009F043C068E073E0F4CF9C
:1011A000823009F040C080E00E94540868E872E094
:1011B00087E895E00E94010762E080E00E94540801
:1011C0006AE672E087E895E00E94010760910102FB
:1011D00087E895E00E94C50262E08BE00E94540817
:1011E0006FE473E087E895E00E94010760910002D8
:1011F00087E895E00E94C50263E080E00E94540801
:101200006CE772E087E895E00E94010780915A033D
:10121000882309F4B7CF68E173E0813009F4B4CFD3
:10122000DF91CF91089580E00E94540865E972E053
:1012300087E895E00E94010762E080E00E94540880
:101240006AE672E087E895E00E940107609101027A
:1012500087E895E00E94C50262E08BE00E94540896
:1012600062EA72E087E895E00E940107609100025F
:1012700087E895E00E94C50263E080E00E94540880
:101280006CE772E087E895E00E94010780915A03BD
:10129000882309F477CF68E273E0813009F674CFD0
:1012A000C73409F0BDCF6BEA72E087E895E00E9491
:1012B000010760EC72E08CE094E00E94010767ECAB
:1012C00072E08CE094E00E940107CBE5D3E06881F6
:1012D00016160CF06DE28CE094E00E94C502698164
:1012E00016160CF06DE28CE094E00E94C5026A8153
:1012F00016160CF06DE28CE094E00E94C50267ECDB
:1013000072E08CE094E00E940107239683E0C436EB
:10131000D807E9F68091640361E473E0882331F033
:1013200063E672E0813011F069EC72E08CE094E0E9
:101330000E94010767EC72E08CE094E00E940107D4
:10134000609101028CE094E00E94C50267EC72E0BB
:101350008CE094E00E940107609100028CE094E030
:101360000E94C50267EC72E08CE094E00E940107E5
:101370006EEC72E08CE094E00E94010767EC72E092
:101380008CE094E00E94010780915A0368EF72E0BC
:10139000882371F0813081F48091640361E473E00B
:1013A000882331F068E073E0813011F067E473E086
:1013B0008CE094E00E94010763ED72E08CE094E021
:1013C000E5CE41E00E94530781E090E008950F933D
:1013D0001F93CF93DF93C82F162F83300CF417C1C0
:1013E00086300CF00EC1C350D1E020E030E0A901FE
:1013F000609156037091570380915803909159035F
:101400000E949513811115C00E946E020E94C9139B
:101410006093560370935703809358039093590336
:101420000E949A13611571058105910511F00E94C2
:1014300029138D2FDD0F990BFC01EE0FFF1FE80F15
:10144000F91FE55AFC4FEC0FF11DC7FDFA9580819D
:10145000811163C21083CBE5D3E024E633E0FE01C3
:1014600090811913D6C091811913D3C09281191399
:10147000D0C000915A0390915A0341E09427909371
:101480005A03EBE5F3E0023008F0F8C065ED72E0D6
:101490008CE094E00E94010767EC72E08CE094E03D
:1014A0000E940107688116160CF06DE28CE094E052
:1014B0000E94C502698116160CF06DE28CE094E082
:1014C0000E94C5026A8116160CF06DE28CE094E071
:1014D0000E94C50267EC72E08CE094E00E94010774
:1014E000239683E0C436D807E9F68091640361E46B
:1014F00073E0882331F063E672E0813011F069EC2B
:1015000072E08CE094E00E94010767EC72E08CE0EE
:1015100094E00E940107609101028CE094E00E9437
:10152000C50267EC72E08CE094E00E9401076091D4
:1015300000028CE094E00E94C50267EC72E08CE04F
:1015400094E00E94010768EF72E0002361F080914F
:10155000640368E073E0813031F067E473E0823067
:1015600011F061E473E08CE094E00E94010763ED08
:1015700072E08CE094E00E940107C5E060E971E050
:1015800080E090E00E94930263E080E00E945408B3
:101590006DED72E087E895E00E9401076AEF70E068
:1015A00080E090E00E94930263E080E00E94540893
:1015B00060EF72E0002361F08091640360E073E00B
:1015C000813031F060E173E0823011F060E273E06D
:1015D00087E895E00E940107C15081F60E94AC07A0
:1015E0006AEF70E080E090E00E94930283E50E9441
:1015F000630881E080936503DF91CF911F910F9184
:10160000089589301CF4C650D2E0EFCEC0E0D0E09F
:10161000ECCE339693E0E436F90709F021CF4EE59E
:1016200053E0EBE5F3E09191191307C09281191390
:1016300004C09581191709F41CCF4E175F0799F75D
:1016400000915A0390915B03191309C090915F03B5
:10165000191305C090916303191709F40CCF9091E9
:101660005D03191309C090915F03191305C0909190
:101670006103191709F4FFCE07E3FDCE90819111A4
:1016800001C08F5F9181911101C08F5F9281911193
:1016900001C08F5F33962E173F0781F781118DC0F0
:1016A00065ED72E08CE094E00E94010767EC72E067
:1016B0008CE094E00E940107688116160CF06DE240
:1016C0008CE094E00E94C502698116160CF06DE270
:1016D0008CE094E00E94C5026A8116160CF06DE25F
:1016E0008CE094E00E94C50267EC72E08CE094E02C
:1016F0000E940107239693E0C436D907E9F680914A
:10170000640361E473E0882331F063E672E08130C2
:1017100011F069EC72E08CE094E00E94010767EC44
:1017200072E08CE094E00E940107609101028CE07D
:1017300094E00E94C50267EC72E08CE094E00E94A5
:101740000107609100028CE094E00E94C50267EC02
:1017500072E08CE094E00E94010768E373E08CE0A3
:1017600094E00E94010763ED72E08CE094E00E9437
:101770000107C5E060E971E080E090E00E9493021B
:1017800063E080E00E9454086DED72E087E895E028
:101790000E9401076AEF70E080E090E00E949302EF
:1017A00063E080E00E94540860E373E087E895E01E
:1017B0000E940107C150F1F611CF60EC72E08CE09D
:1017C00094E00E94010767EC72E08CE094E00E94D4
:1017D0000107688116160CF06DE28CE094E00E941F
:1017E000C502698116160CF06DE28CE094E00E944F
:1017F000C5026A8116160CF06DE28CE094E00E943E
:10180000C50267EC72E08CE094E00E940107239629
:1018100083E0C436D807E9F68091640361E473E09D
:10182000882331F063E672E0813011F069EC72E0F8
:101830008CE094E00E94010767EC72E08CE094E099
:101840000E940107609101028CE094E00E94C502B1
:1018500067EC72E08CE094E00E9401076091000266
:101860008CE094E00E94C50267EC72E08CE094E0AA
:101870000E9401076EEC72E08CE094E00E94010788
:1018800067EC72E08CE094E00E94010763E080E086
:101890000E9454086CE772E087E895E00E94010717
:1018A00080915A03811116C068EF72E087E895E0D5
:1018B0000E94010768EF72E08CE094E00E9401074B
:1018C00063ED72E08CE094E0DF91CF911F910F9176
:1018D0000C9401078130A1F780916403811109C044
:1018E0006DE373E087E895E00E94010761E473E02F
:1018F000E3CF813049F468E073E087E895E00E9427
:10190000010768E073E0D8CF65E473E087E895E00D
:101910000E94010767E473E0CFCFDF91CF911F9161
:101920000F910C94F8061F920F920FB60F9211248C
:101930002F933F938F939F93AF93BF9380916703B0
:1019400090916803A0916903B0916A033091660396
:1019500023E0230F2D3758F50196A11DB11D2093CB
:1019600066038093670390936803A0936903B09321
:101970006A0380916B0390916C03A0916D03B09109
:101980006E030196A11DB11D80936B0390936C03B0
:10199000A0936D03B0936E03BF91AF919F918F9110
:1019A0003F912F910F900FBE0F901F90189526E832
:1019B000230F0296A11DB11DD2CF1F920F920FB619
:1019C0000F9211240BB60F922F933F934F935F9377
:1019D0006F937F938F939F93AF93BF93EF93FF93F7
:1019E0008FE693E00E944A03FF91EF91BF91AF9180
:1019F0009F918F917F916F915F914F913F912F9127
:101A00000F900BBE0F900FBE0F901F9018951F9256
:101A10000F920FB60F9211240BB60F922F938F9344
:101A20009F93EF93FF93E0917F03F0918003808178
:101A3000E0918503F091860382FD1DC09081809125
:101A400088038F5F8F7320918903821741F0E091A3
:101A50008803F0E0E159FC4F958F80938803FF9154
:101A6000EF919F918F912F910F900BBE0F900FBE12
:101A70000F901F9018958081F2CF1F920F920FB692
:101A80000F9211240BB60F922F933F934F935F93B6
:101A90006F937F938F939F93AF93BF93EF93FF9336
:101AA0008CE094E00E944A03FF91EF91BF91AF91C7
:101AB0009F918F917F916F915F914F913F912F9166
:101AC0000F900BBE0F900FBE0F901F9018951F9296
:101AD0000F920FB60F9211240BB60F922F938F9384
:101AE0009F93EF93FF93E0911C04F0911D0480817C
:101AF000E0912204F091230482FD1DC09081809129
:101B000025048F5F8F7320912604821741F0E091A6
:101B10002504F0E0E45FFB4F958F80932504FF914F
:101B2000EF919F918F912F910F900BBE0F900FBE51
:101B30000F901F9018958081F2CF1092720310922F
:101B4000710348EE53E060E070E0409373035093FC
:101B50007403609375037093760384E292E090932C
:101B6000700380936F032DEC30E030937C0320935F
:101B70007B032CEC30E030937E0320937D0328EC34
:101B800030E03093800320937F0329EC30E03093E2
:101B90008203209381032AEC30E030938403209366
:101BA00083032EEC30E0309386032093850310925C
:101BB00088031092890310928A0310928B0310926B
:101BC0000F0410920E04409310045093110460937C
:101BD00012047093130490930D0480930C0485EC0D
:101BE00090E0909319048093180484EC90E0909313
:101BF0001B0480931A0480EC90E090931D04809362
:101C00001C0481EC90E090931F0480931E0482ECEE
:101C100090E0909321048093200486EC90E09093D0
:101C2000230480932204109225041092260410921B
:101C300027041092280410928A051092890580E4E6
:101C400092E0909388058093870585E280938B05C9
:101C50008FEF80938C0584E280938D0583E28093DF
:101C60008E0582E280938F0581E28093900580E269
:101C7000809391051092920510929305109294050D
:101C8000109295051092960561E080E10E94B407DC
:101C900010921A0510921E0510921D0510921F0534
:101CA00086E392E09093190580931805E4E3F5E04C
:101CB0001082148213821582369685E0E037F80789
:101CC000B9F78CE092E090937B0580937A0589E0E8
:101CD00092E090937D0580937C0584E080937E055F
:101CE00083E080937F0580E192E090937905809373
:101CF00078058AE090E0909381058093800584EFD9
:101D000091E090938305809382051092860510924E
:101D10008505109274051092750510927605109243
:101D20007705109284051092AB041092AF041092C4
:101D3000AE041092B00486E392E09093AA048093DC
:101D4000A904E5ECF4E081E095E0108214821382AE
:101D5000158236968E179F07C1F785E092E0909323
:101D60000C0580930B0582E092E090930E05809322
:101D70000D0584E080930F0583E08093100580E1DA
:101D800092E090930A05809309058AE090E0909391
:101D900012058093110584EF91E0909314058093D0
:101DA0001305109217051092160510920505109252
:101DB0000605109207051092080510921505089562
:101DC000789484B5826084BD84B5816084BD85B516
:101DD000826085BD85B5816085BD80916E00816022
:101DE00080936E00109281008091810082608093C8
:101DF00081008091810081608093810080918000CA
:101E00008160809380008091B10084608093B100F4
:101E10008091B00081608093B000809191008260D9
:101E200080939100809191008160809391008091D6
:101E300090008160809390008091A10082608093E7
:101E4000A1008091A10081608093A1008091A000F9
:101E500081608093A00080912101826080932101A4
:101E60008091210181608093210180912001816016
:101E70008093200180917A00846080937A00809121
:101E80007A00826080937A0080917A0081608093EA
:101E90007A0080917A00806880937A001092C10065
:101EA000E0911C04F0911D0422E02083E0911C04C9
:101EB000F0911D041082E0911804F0911904108231
:101EC000E0911A04F0911B0480E1808310922404B5
:101ED000E0912004F091210496E09083E0911E04AB
:101EE000F0911F04808180618083E0911E04F09155
:101EF0001F04808188608083E0911E04F0911F049C
:101F0000808180688083E0911E04F0911F048081AD
:101F10008F7D8083E0917F03F09180032083E091A7
:101F20007B03F0917C031082E0917D03F0917E03AE
:101F30008FEC808310928703E0918303F0918403F8
:101F40009083E0918103F09182038081806180839E
:101F5000E0918103F0918203808188608083E09129
:101F60008103F0918203808180688083E091810306
:101F7000F091820380818F7D808364E084E10E9400
:101F8000B407829A53E0752E64E6262E63E0362E5F
:101F900075E6872E912CA12CB12CE3E0CE2ED12C0E
:101FA000E12CF12C88E195E00E94B304C82F89EA66
:101FB00094E00E94B304182FC33209F444C19CF486
:101FC000CC2309F461C090916503923009F0DAC125
:101FD00080915A038111C2C0609101028FEC8C0F75
:101FE0000E94E70951C080916503CA3261F0C03395
:101FF00051F7882391F0813009F0B3C087E40E9443
:10200000630882E00EC0823079F40E94AC076AEF68
:1020100070E080E090E00E94930283E50E946308F4
:1020200081E08093650330C0813009F097C08091D2
:10203000010290910002909301028093000262E0FD
:1020400080E00E9454086AE672E087E895E00E940A
:1020500001076091010287E895E00E94C502809126
:10206000640362E0813009F06BC08BE00E94540889
:1020700063E772E087E895E00E9401076091000243
:1020800087E895E00E94C502809164038130B1F435
:1020900080916503823091F4133209F49DC10CF0F4
:1020A00096C1112359F080915A03813009F094C1EF
:1020B000609100028FEC810F0E94E7098091640318
:1020C000811194C180916503823009F08FC18091A4
:1020D0005A03813009F08AC160E273E080E090E049
:1020E0000E9493020E94DA12A50194010E94321309
:1020F000662E0E94DA12A70196010E943213C62FA3
:102100000E94DA12A70196010E943213D62F809105
:1021100001020E945906482E50900002852D0E940F
:10212000590697E3491609F4D5C1873309F4A2C1CA
:102130009AE5652D96150CF056C18FEF840D54C1AC
:10214000823031F48BE00E9454086DE473E092CF4A
:102150008BE00E94540862EA72E08CCF0E94F8067D
:1021600093CF823009F090CF65ED72E08CE094E07F
:102170000E94010767EC72E08CE094E00E94010786
:10218000CBE5D3E0688116160CF06DE28CE094E0AC
:102190000E94C502698116160CF06DE28CE094E095
:1021A0000E94C5026A8116160CF06DE28CE094E084
:1021B0000E94C50267EC72E08CE094E00E94010787
:1021C00023962C163D06F1F68091640361E473E0DA
:1021D000882331F063E672E0813011F069EC72E03F
:1021E0008CE094E00E94010767EC72E08CE094E0E0
:1021F0000E940107609101028CE094E00E94C502F8
:1022000067EC72E08CE094E00E94010760910002AC
:102210008CE094E00E94C50267EC72E08CE094E0F0
:102220000E9401076EEC72E08CE094E00E940107CE
:1022300063ED72E08CE094E00E9401070E94AC071D
:102240001092650321CF80916503813009F086CF1C
:10225000809164038F5F672D0E94531490936403F1
:1022600061E080E0913099F50E9454086DE572E0DC
:1022700087E895E00E94010762E08BE00E94540825
:1022800063E772E087E895E00E9401076091000231
:1022900087E895E00E94C50263E080E00E94540850
:1022A0006CE772E087E895E00E94010780915A038D
:1022B000811107C068EF72E087E895E00E9401078E
:1022C000E3CE813009F0E0CE68E073E0F5CF9230E4
:1022D00061F50E94540868E872E087E895E00E9482
:1022E000010762E08BE00E9454086DE473E087E828
:1022F00095E00E9401076091000287E895E00E9446
:10230000C50263E080E00E9454086CE772E087E851
:1023100095E00E94010780915A03882359F2813089
:1023200009F0B2CE68E173E0C7CF0E94540865E9B6
:1023300072E087E895E00E94010762E08BE00E946E
:10234000540862EA72E087E895E00E940107609114
:10235000000287E895E00E94C50263E080E00E94E9
:1023600054086CE772E087E895E00E9401078091CD
:102370005A03882309F49ECF813009F085CE68E2A4
:1023800073E09ACF913009F0E9CEC83309F0E6CE78
:1023900080915A03892780935A0363E080E00E946A
:1023A00054086CE772E087E895E00E94010780918D
:1023B0005A03882309F47ECF813009F065CE8091DD
:1023C0006403813009F480CF8230C9F6ABCF1A3272
:1023D00019F0103309F067CE0E94F8066FCE9AE527
:1023E00096153CF5652D81500E94E7098FE693E034
:1023F0000E942A03892BD1F08FE693E00E94080304
:102400008053893098F490916403923009F05FC052
:1024100090916503923009F05AC090915A0391301F
:1024200009F055C0609100020E94E7090E94D9039B
:10243000B9CD8C2F0C2E000C990BFC01EE0FFF1F59
:10244000E80FF91FE55AFC4FED0FF11DD7FDFA9586
:1024500080818823A9F10E94DA12A70196010E94C7
:102460003213C62F0E94DA12A70196010E9432137E
:10247000D62FDFCF8AE5861514F4652D5ECE8C2F1E
:102480000C2E000C990BFC01EE0FFF1FE80FF91F3B
:10249000E55AFC4FED0FF11DD7FDFA958081882399
:1024A00079F00E94DA12A70196010E943213C62F1A
:1024B0000E94DA12A70196010E943213D62FDFCFB5
:1024C0008C2F880F8C0F609100028D0F8DCF0E9492
:1024D000F806ACCF873309F082CF8C2F0C2E000C7E
:1024E000990BFC01EE0FFF1FE80FF91FE55AFC4F97
:1024F000ED0FF11DD7FDFA958081882309F30E9425
:10250000DA12A70196010E943213C62F0E94DA1236
:10251000A70196010E943213D62FDFCF8F929F9290
:10252000AF92BF92CF92DF92EF92FF92CF93DF9361
:10253000EC01688179818A819B8161157105810532
:10254000910521F464E279ED8BE597E02DE133EF1D
:1025500041E050E00E94321349015A019B01AC0155
:10256000A7EAB1E40E9451136B017C01ACEEB4EF19
:10257000A50194010E945F13C60ED71EE81EF91E26
:10258000F7FE06C081E0C81AD108E10880E8F80A21
:10259000C882D982EA82FB82C701B6019F77DF91A8
:1025A000CF91FF90EF90DF90CF90BF90AF909F9032
:1025B0008F9008958F929F92AF92BF92CF92DF92A9
:1025C000EF92FF9260911C0270911D0280911E0299
:1025D00090911F02611571058105910521F464E256
:1025E00079ED8BE597E02DE133EF41E050E00E947B
:1025F000321349015A019B01AC01A7EAB1E40E94E0
:1026000051136B017C01ACEEB4EFA50194010E9463
:102610005F13C60ED71EE81EF91EF7FE06C081E046
:10262000C81AD108E10880E8F80AC0921C02D092CA
:102630001D02E0921E02F0921F02C701B6019F77B1
:10264000FF90EF90DF90CF90BF90AF909F908F90D2
:10265000089560931C0270931D0280931E02909354
:102660001F020895052E97FB1EF400940E94491343
:1026700057FD07D00E94641307FC03D04EF40C945E
:10268000491350954095309521953F4F4F4F5F4FDF
:10269000089590958095709561957F4F8F4F9F4FCE
:1026A00008950E948613A59F900DB49F900DA49F3E
:1026B000800D911D11240895B7FF0C9451130E94B1
:1026C0005113821B930B0895A1E21A2EAA1BBB1B68
:1026D000FD010DC0AA1FBB1FEE1FFF1FA217B307EE
:1026E000E407F50720F0A21BB30BE40BF50B661F04
:1026F000771F881F991F1A9469F7609570958095C8
:1027000090959B01AC01BD01CF010895A29FB0013E
:10271000B39FC001A39F700D811D1124911DB29F15
:10272000700D811D1124911D08950E94061408F456
:1027300081E008950E94321488F09F5798F0B92FD5
:102740009927B751B0F0E1F0660F771F881F991FE6
:102750001AF0BA95C9F714C0B13091F00E944C1428
:10276000B1E008950C944C14672F782F8827B85F38
:1027700039F0B93FCCF3869577956795B395D9F73E
:102780003EF490958095709561957F4F8F4F9F4F48
:102790000895E89409C097FB3EF490958095709554
:1027A00061957F4F8F4F9F4F9923A9F0F92F96E99D
:1027B000BB279395F695879577956795B795F11112
:1027C000F8CFFAF4BB0F11F460FF1BC06F5F7F4FAF
:1027D0008F4F9F4F16C0882311F096E911C07723C1
:1027E00021F09EE8872F762F05C0662371F096E8CA
:1027F000862F70E060E02AF09A95660F771F881F99
:10280000DAF7880F9695879597F90895990F00083C
:10281000550FAA0BE0E8FEEF16161706E807F907B2
:10282000C0F012161306E407F50798F0621B730B4D
:10283000840B950B39F40A2661F0232B242B252BCE
:1028400021F408950A2609F4A140A6958FEF811D71
:10285000811D089557FD9058440F551F59F05F3F53
:1028600071F04795880F97FB991F61F09F3F79F0B2
:1028700087950895121613061406551FF2CF469534
:10288000F1DF08C0161617061806991FF1CF8695B6
:102890007105610508940895E894BB27662777279A
:1028A000CB0197F9089587FB082E062687FD8195B1
:1028B00067FD61950E9469140EF4919507FC81955E
:1028C0000895EE0FFF1F881F8BBF0790F691E02D34
:1028D0001994991B79E004C0991F961708F0961B6C
:0E28E000881F7A95C9F780950895F894FFCF68
:1028EE004F580A0B0C353433321A1B1C1617181995
:1028FE003132333435363738392A3023010000006F
:10290E00000000006C03CC02F902B9032A0308038D
:10291E001C0300000000A804AC04B004000000007A
:10292E00E109CC02070406042E2E2E2E2E2053650E
:10293E007474696E6773202E2E2E2E2E004D6F64CA
:10294E00653A20506C6179657200506C61796572E0
:10295E00313A00506C61796572323A004E6F7720D1
:10296E00706C6179733A20004D6F64653A20426C49
:10297E0075652020004D6F64653A20426F742020EB
:10298E00200020202020426F743A002E2E2E2E2E54
:10299E002047616D6520582F4F202E2E2E2E2E0093
:1029AE007B7374617274002C00426C7565004E6FFF
:1029BE006E65007D007B77696E6E6572002020204B
:1029CE002020202020202020202020202020200019
:1029DE0057696E6E65723A20506C6179657231007E
:1029EE0057696E6E65723A20506C6179657232006D
:1029FE0057696E6E65723A20426C75653220200002
:102A0E0057696E6E65723A20426F74202020200046
:102A1E0057696E6E65723A204472617700202020ED
:102A2E0020426F74002020426C75653200202042D7
:062A3E006C7565323A00E0
:00000001FF
