:100000000C9441010C9472010C9472010C947201D5
:100010000C9472010C9472010C9472010C94720194
:100020000C9472010C9472010C9472010C94720184
:100030000C9472010C9472010C9472010C94720174
:100040000C9472010C9472010C9472010C94720164
:100050000C9472010C9472010C9472010C94260C95
:100060000C9472010C949A0C0C94700C0C94720108
:100070000C9472010C9472010C9472010C94720134
:100080000C9472010C9472010C9472010C94720124
:100090000C9472010C9472010C9472010C94720114
:1000A0000C9472010C9472010C9472010C94720104
:1000B0000C9472010C9472010C9472010C947201F4
:1000C0000C9472010C9472010C9472010C947201E4
:1000D0000C9472010C9472010C9472010C947201D4
:1000E0000C9472010C941C030C9408030C94BB0137
:1000F0000C9401040C94D2010C94BF010C94C9011E
:100100000C94A2040C949C010C94A6040C94A701DA
:100110000C94D3010C94C5010C94AD010C94D7013F
:100120000C94A0010C942A030C9400040C94D00CA1
:100130000C94AA040C9498010C9462030C94CD01C5
:100140000C94AF030C94B1010C94CC020C9492016A
:100150000C94F9020C94B7010C94A4010C9492092C
:1001600000002100240027002A002D003000330069
:1001700001010000040107010A010000220025001E
:1001800028002B002E003100340002010000050180
:1001900008010B01000020002300260029002C008C
:1001A0002F003200000100000301060109010505CE
:1001B0000505070508080808020202020A0A0808DD
:1001C000040404040101010101010101030303030B
:1001D00003030303040707070C0C0C0C0C0C0C0C9A
:1001E0000202020206060606060606060B0B0B0BAB
:1001F0000B0B0B0B010210202008081020401020D0
:1002000040800201020108040201010204081020DA
:1002100040808040201008040201800402018040D8
:100220002010080402010804020101020408102041
:100230004080010204081020408000000A0B0209DF
:100240000C0D0E0807030401000000000000000070
:10025000000000000000000000000000000000009E
:10026000000000000000121110000000000000005B
:10027000000000000000000000000000000000007E
:10028000D00C11241FBECFEFD1E2DEBFCDBF00E006
:100290000CBF13E0A0E0B2E0ECE1F5E200E00BBF40
:1002A00002C007900D92A032B107D9F724E0A0E276
:1002B000B3E001C01D92AC3CB207E1F711E0C1E42C
:1002C000D1E000E006C021970109802FFE010E94C5
:1002D0008412C034D10780E00807A9F70E94D70D27
:1002E0000C948C120C9400008150823108F05AC09A
:1002F000E82FF0E08827E058FE4F8F4F0C948412CF
:10030000A001A401920198019C01D201A701AD01B5
:10031000B101B701BB01BF01C501C901D201CD01C6
:10032000D301D701809180008F778093800008955A
:10033000809180008F7DF9CF80918000877FF5CFFD
:1003400084B58F7784BD089584B58F7DFBCF809170
:10035000B0008F778093B00008958091B0008F7DBA
:10036000F9CF809190008F778093900008958091CD
:1003700090008F7DF9CF80919000877FF5CF80919D
:10038000A0008F778093A00008958091A0008F7DBA
:10039000F9CF8091A000877FF5CF809120018F77E2
:1003A000809320010895809120018F7DF9CF809165
:1003B0002001877FF5CFCF93DF93282F30E0F9011D
:1003C000E65CFD4F8491F901EC50FE4FD491F901A8
:1003D000E255FE4FC491CC23A1F081110E9474011B
:1003E000EC2FF0E0EE0FFF1FEC56FE4FA591B491FD
:1003F000EC91ED2381E090E009F480E0DF91CF9172
:10040000089580E090E0FACF1F93CF93DF93282FD9
:1004100030E0F901E65CFD4F8491F901EC50FE4FAC
:10042000D491F901E255FE4FC491CC23A9F0162FC7
:1004300081110E947401EC2FF0E0EE0FFF1FE658CF
:10044000FE4FA591B4918FB7F894EC91111108C0AB
:10045000D095DE23DC938FBFDF91CF911F9108955C
:10046000DE2BF8CFCF93DF9390E0FC01EC50FE4FF2
:10047000249182559E4FFC0184918823C9F090E01D
:10048000880F991FFC01E05AFE4FA591B491FC0121
:10049000E658FE4FC591D49161110DC09FB7F894F5
:1004A0008C91209582238C938881282328839FBF59
:1004B000DF91CF910895623051F49FB7F8943C9149
:1004C000822F809583238C93E8812E2BEFCF8FB7DB
:1004D000F894EC912E2B2C938FBFEACF3FB7F89472
:1004E0008091350390913603A0913703B091380382
:1004F00026B5A89B05C02F3F19F00196A11DB11D7F
:100500003FBFBA2FA92F982F8827BC01CD01620FBA
:10051000711D811D911D42E0660F771F881F991F75
:100520004A95D1F708958F929F92AF92BF92CF9242
:10053000DF92EF92FF924B015C010E946E026B0111
:100540007C010E946E026C197D098E099F09683E2C
:10055000734081059105A8F321E0821A9108A10852
:10056000B10888EEC80E83E0D81EE11CF11C81148E
:100570009104A104B10429F7FF90EF90DF90CF9090
:10058000BF90AF909F908F900895DC01ED91FC910A
:100590000190F081E02D1994AF92BF92CF92DF923B
:1005A000EF92FF920F931F93CF93DF936C017B0128
:1005B0008B01040F151FEB015E01AE18BF08C017B9
:1005C000D10759F06991D601ED91FC910190F0812C
:1005D000E02DC6011995892B79F7C501DF91CF91DF
:1005E0001F910F91FF90EF90DF90CF90BF90AF9051
:1005F0000895FC01538D448D252F30E0842F90E029
:10060000821B930B541710F0CF960895019708950D
:10061000FC01918D828D981761F0A28DAE0FBF2FD6
:10062000B11D5D968C91928D9F5F9F73928F90E02C
:1006300008958FEF9FEF0895FC01918D828D98179B
:1006400031F0828DE80FF11D858D90E008958FEFD8
:100650009FEF0895FC01918D228D892F90E0805CA1
:100660009F4F821B91098F739927089589E393E027
:100670000E942A0321E0892B09F420E0822F0895AB
:10068000FC01A48DA80FB92FB11DA35ABF4F2C9107
:10069000848D90E001968F739927848FA689B789FE
:1006A0002C93A089B1898C91837080648C93938DF5
:1006B000848D981306C00288F389E02D80818F7D98
:1006C00080830895EF92FF920F931F93CF93DF9350
:1006D000EC0181E0888F9B8D8C8D98131AC0E8897E
:1006E000F989808185FF15C09FB7F894EE89FF894D
:1006F0006083E889F98980818370806480839FBFEB
:1007000081E090E0DF91CF911F910F91FF90EF90EA
:100710000895F62E0B8D10E00F5F1F4F0F731127FA
:10072000E02E8C8D8E110CC00FB607FCFACFE88935
:10073000F989808185FFF5CFCE010E944003F1CF7A
:10074000EB8DEC0FFD2FF11DE35AFF4FF0829FB7A9
:10075000F8940B8FEA89FB8980818062CFCFCF9399
:10076000DF93EC01888D8823B9F0AA89BB89E889D9
:10077000F9898C9185FD03C0808186FD0DC00FB67F
:1007800007FCF7CF8C9185FFF2CF808185FFEDCFFD
:10079000CE010E944003E9CFDF91CF91089580E020
:1007A00090E0892B29F00E94360381110E940000FD
:1007B00080E090E0892B49F080E090E0892B29F0DF
:1007C0000E94000081110E94000080E090E0892BCF
:1007D00049F080E090E0892B29F00E94000081110F
:1007E0000E94000080E090E0892B49F080E090E0DA
:1007F000892B29F00E94000081110C9400000895BB
:10080000089590E080E00895CF93DF93DC0126E027
:10081000629FA00DB11D112490965C934E935F973B
:1008200021E091962C939197FC01E359FF4F0190A1
:10083000F081E02DEC01C459DF4F2881222341F0E3
:10084000309719F0DC01662329F0DF91CF910895EC
:100850003097D9F35C968C91DF91CF911994CF9218
:10086000DF92EF92FF920F931F93CF93DF93FC01E0
:1008700026E0629FE00DF11D112411A2278D30A109
:100880002130310559F188F02230310509F452C088
:100890002330310509F453C0DF91CF911F910F919F
:1008A000FF90EF90DF90CF9008954423A9F3EC01DF
:1008B00041E050E00E9404042FB7F8948091310386
:1008C00090913203A0913303B09134032FBFC85AE3
:1008D000DF4F88839983AA83BB83DECF2FB7F89439
:1008E000C0903103D0903203E0903303F090340392
:1008F0002FBFFC01E85AFF4F008111812281338113
:10090000C01AD10AE20AF30A72960081118130E01E
:1009100020E00C151D052E053F0560F442E050E077
:10092000DF91CF911F910F91FF90EF90DF90CF90CB
:100930000C9404044111B0CF43E050E0F1CF50E0FB
:1009400040E0EECF862F642F0C943202862F642F66
:100950000C940402862F0C94DB012F923F924F924D
:100960005F926F927F928F929F92AF92BF92CF923F
:10097000DF92EF92FF920F931F93CF93DF93CDB748
:10098000DEB72C970FB6F894DEBF0FBECDBF9C012B
:1009900024593F4F3A83298321E0A981BA812C93BE
:1009A0004FB7F89400913103109132032091330333
:1009B000309134034FBFFC01E45AFF4FFC83EB83BB
:1009C0004081518162817381041B150B260B370B0B
:1009D0003C964081518170E060E04017510762070A
:1009E000730708F059C19C878B8710E06C01F6E60D
:1009F000CF0ED11C7C0122E6E20EF11CD6018C91B7
:100A0000181758F4D701ED91FC91E10FF11D62E048
:100A100080810E9432021F5FF1CF312C4B845C84B5
:100A2000B7E64B0E511CEB84FC84E4E6EE0EF11CA1
:100A3000812C912C540183942B853C852E593F4F5A
:100A40003A872987D2018C91381608F063C0032DAC
:100A500010E0D701ED91FC91E00FF11F61E0808182
:100A60000E943202D701ED91FC91E00FF11F60E08E
:100A700080810E940402D501C401032C04C0880FA8
:100A8000991FAA1FBB1F0A94D2F79E838D83FC0176
:100A9000E095F095F887EF83212CD6018C912816EC
:100AA00020F5622C712CA985BA85ED91FC91E60D9B
:100AB000F71D80810E94DB01660C771CEB85FC85AD
:100AC000E60DF71D892B51F4808591852D813E819E
:100AD000822B932B918780872394DFCF808591850C
:100AE0004F81588584239523F5CFD701ED91FC9153
:100AF000E00FF11F61E080810E940402F701808114
:100B00009181080F191F60E0D8018C910E94320278
:100B1000339498CF0B851C85C801CC9678012FEFB4
:100B20003FEFF701478D50A1452B21F4148E368FEE
:100B3000258F11A2F6E0EF0EF11CE816F90689F7F1
:100B4000912CAB84BC8420E6A20EB11C96E0392E19
:100B5000D6018C91981608F059C0812C692C712C03
:100B6000B4E06B0E711C660C771CEB85FC856E0E79
:100B70007F1ED2018C91881608F046C0F301408197
:100B80005181082C02C0569547950A94E2F7989E29
:100B9000C0011124880D911DEB85FC8560E0258D39
:100BA000368D8217930709F47CC06F5F36966A30E2
:100BB000B1F740FF27C0EB85FC8570E060E0248D35
:100BC00021111AC0D501ED91FC91E80FF91F208188
:100BD000369EF001379EF00D11244B855C85E40FA5
:100BE000F51F248F968F858F10A2178E41E08B857D
:100BF0009C850E942F0406C06F5F7F4F36966A3037
:100C00007105E9F68394B5CF9394A2CF80E0D80123
:100C100091969C919111892F0A5F1F4FE016F10662
:100C2000B1F79FB7F894409131035091320360912E
:100C30003303709134039FBFEB81FC814083518368
:100C400062837383882341F1AB85BC8591968C9137
:100C50009197882309F15F968D919C9190970197C8
:100C6000D9F45C968C912C960FB6F894DEBF0FBE2B
:100C7000CDBFDF91CF911F910F91FF90EF90DF904B
:100C8000CF90BF90AF909F908F907F906F905F902C
:100C90004F903F902F900895E981FA81108280E073
:100CA000E2CF4170A4CF982FA5E2B3E0FD0130E080
:100CB00020E080814181891365C094130BC052816B
:100CC000511162C02F5F3F4F822F880F820F08950E
:100CD00089130AC08281891307C0411105C0822F80
:100CE000880F820F8E5F08952F5F3F4F339623301A
:100CF0003105F9F680E03D9112962C9112979313ED
:100D00004DC0291309C015964C911597411148C043
:100D1000895F089593134BC015963C9115979313D3
:100D200046C0211144C08C5F0895921306C02091E3
:100D30002D03921302C08823E1F020912703921320
:100D40001AC030912B0398130EC0332351F0309109
:100D50002B03931312C0211112C083E0089589E080
:100D6000089587E00895891791F3931306C08111C0
:100D700004C085E00895981751F387E3089592170A
:100D8000B1F3FBCF9413B0CF52815913A1CF81118E
:100D9000ABCF822F880F820F8F5F0895291307C072
:100DA00015964C9115979413B5CF3323A9F38F5F04
:100DB000833009F0A0CF209125038091290392135D
:100DC0000EC09813B4CF30912D03332341F23091EC
:100DD0002D039313AACF2111B0CF81E0089598136A
:100DE000ACCFF5CF8A9A64EF71E080E090E00E948A
:100DF00093028A980895FB0101900020E9F731974A
:100E0000AF01461B570BDC01ED91FC910280F38191
:100E1000E02D1994CF93DF93EC0160E08E810E9466
:100E2000040261E08E810E94040260E08E810E94D3
:100E300004028BE891E00197F1F7DF91CF910895DB
:100E4000CF92DF92EF92FF920F931F93CF93DF9396
:100E50006C017C0187E0E80EF11CD0E0C0E0062FB9
:100E600010E0B8010C2E02C0759567950A94E2F760
:100E70006170F70181917F010E9404022196C430C4
:100E8000D10579F7C601DF91CF911F910F91FF90A6
:100E9000EF90DF90CF900C940A07CF92DF92EF9201
:100EA000FF920F931F93CF93DF93EC01F62E642FE5
:100EB0008C810E9404028D818F3F19F060E00E94B6
:100EC00004020F2D10E08F8584FF25C06E0187E09E
:100ED000C80ED11CF12CE12CB8010E2C02C0759566
:100EE00067950A94E2F76170F60181916F010E94A3
:100EF0000402FFEFEF1AFF0A88E0E816F10461F739
:100F0000CE01DF91CF911F910F91FF90EF90DF9075
:100F1000CF900C940A07B80184E0759567958A957F
:100F2000E1F7CE010E9420076F2DCE01DF91CF9116
:100F30001F910F91FF90EF90DF90CF900C942007BE
:100F400040E0682F84EB94E00C944D0781E00E9410
:100F5000A0078BE39FE10197F1F70895CF93DF930B
:100F6000613029F09091C30498609093C30460931A
:100F7000C7041092C80490E49093C9048093CA04F3
:100F8000805C8093CB0461E08091B8040E943202BF
:100F90008091B9048F3F19F061E00E94320261E054
:100FA0008091BA040E943202C4EBD4E09E01245B1B
:100FB00034408091C30484FD0BC084E090E021960E
:100FC0002817390744F461E08E810E943202EECF87
:100FD00088E090E0F4CF8BE39DE00197F1F760E0CB
:100FE0008091B8040E94040260E08091BA040E94DB
:100FF00004028091B9048F3F19F060E00E9404025E
:101000008091C30484FD34C063E084EB94E00E94CB
:101010002007CBE4D6E4CE010197F1F763E084EB3F
:1010200094E00E9420072197F1F763E084EB94E0BD
:101030000E94200783E592E00197F1F762E084EBDC
:1010400094E00E9420078091C30480620E94A00760
:1010500084E08093C4048CE00E94A0070E94A6074D
:1010600082E08093C50486E0DF91CF910C94A007C5
:1010700080620E94A0078BE496E40197F1F78091CB
:10108000C30480620E94A00783E592E00197F1F714
:101090008091C30480620E94A007D5CF9091C704BD
:1010A000691710F06FEF690FE62FF0E0EC54FB4F7B
:1010B0009489890F80680C94A007CF93DF93C82F81
:1010C00010922503109226031092270310922803F2
:1010D0001092290310922A0310922B0310922C03D2
:1010E00010922D0360E080E00E944E08C33509F0A5
:1010F00091C06CE472E084EB94E00E94FB06809166
:101100002E0361E0882309F445C080E00E944E0868
:1011100061E672E084EB94E00E94FB0662E080E00E
:101120000E944E086EE672E084EB94E00E94FB069B
:101130006091010284EB94E00E94C50262E08BE0C2
:101140000E944E0867E772E084EB94E00E94FB0681
:101150006091000284EB94E00E94C50263E080E0AD
:101160000E944E0860E872E084EB94E00E94FB0667
:1011700080912403811108C06AEE72E084EB94E050
:10118000DF91CF910C94FB06813009F040C06AEFEB
:1011900072E0F4CF80E00E944E086CE872E084EBCD
:1011A00094E00E94FB0662E080E00E944E086EE63A
:1011B00072E084EB94E00E94FB066091010284EBF4
:1011C00094E00E94C50262E08BE00E944E0869E94B
:1011D00072E084EB94E00E94FB066091000284EBD5
:1011E00094E00E94C50263E080E00E944E0860E83F
:1011F00072E084EB94E00E94FB0680912403882334
:1012000009F4BACF6AE073E0813009F4B7CFDF9117
:10121000CF910895C734D9F762EA72E084EB94E085
:101220000E94FB0667EB72E089E393E00E94FB06F5
:101230006EEB72E089E393E00E94FB06C5E2D3E027
:10124000688116160CF06DE289E393E00E94C502F6
:10125000698116160CF06DE289E393E00E94C502E5
:101260006A8116160CF06DE289E393E00E94C502D4
:101270006EEB72E089E393E00E94FB06239683E025
:10128000CE32D807E9F680912E0367E672E081112D
:1012900002C068E472E089E393E00E94FB066EEB13
:1012A00072E089E393E00E94FB066091010289E30A
:1012B00093E00E94C5026EEB72E089E393E00E9426
:1012C000FB066091000289E393E00E94C5026EEB89
:1012D00072E089E393E00E94FB0660EC72E089E330
:1012E00093E00E94FB066EEB72E089E393E00E94BC
:1012F000FB06809124036AEE72E0882351F081306E
:1013000061F480912E0368E472E0882311F06AEFA3
:1013100072E089E393E00E94FB0665EC72E089E3EA
:1013200093E02ECF41E00E944D0781E090E00895C8
:101330000F931F93CF93DF93C82F162F83300CF496
:101340000BC186300CF002C1C350D1E020E030E088
:10135000A901609120037091210380912203909153
:1013600023030E94C611811115C00E946E020E94C3
:10137000FA116093200370932103809322039093CA
:1013800023030E94CB11611571058105910511F0B0
:101390000E945A118D2FDD0F990BFC01EE0FFF1FDC
:1013A000E80FF91FEB5DFC4FEC0FF11DC7FDFA953F
:1013B0008081811145C21083C5E2D3E02EE233E083
:1013C000FE0190811913CAC091811913C7C092817F
:1013D0001913C4C0009124039091240341E0942781
:1013E00090932403E5E2F3E0023008F0EBC067ECF1
:1013F00072E089E393E00E94FB066EEB72E089E302
:1014000093E00E94FB06688116160CF06DE289E3FA
:1014100093E00E94C502698116160CF06DE289E323
:1014200093E00E94C5026A8116160CF06DE289E312
:1014300093E00E94C5026EEB72E089E393E00E94A4
:10144000FB06239683E0CE32D807E9F680912E037F
:1014500068E472E0882311F067E672E089E393E0C4
:101460000E94FB066EEB72E089E393E00E94FB06AC
:101470006091010289E393E00E94C5026EEB72E085
:1014800089E393E00E94FB066091000289E393E008
:101490000E94C5026EEB72E089E393E00E94FB06B6
:1014A0006AEE72E0002341F080912E036AEF72E051
:1014B000811102C068E472E089E393E00E94FB06B8
:1014C00065EC72E089E393E00E94FB06C5E060E909
:1014D00071E080E090E00E94930263E080E00E946F
:1014E0004E086FEC72E084EB94E00E94FB066AEF1A
:1014F00070E080E090E00E94930263E080E00E9450
:101500004E0862EE72E0002341F080912E0362EFFC
:1015100072E0811102C062E073E084EB94E00E940B
:10152000FB06C150A1F60E94A6076AEF70E080E0BA
:1015300090E00E94930283E50E945D0881E0809321
:101540002F03DF91CF911F910F91089589301CF4E3
:10155000C650D2E0FBCEC0E0D0E0F8CE33962E17D6
:101560003F0709F02ECF48E253E0E5E2F3E0919126
:10157000191307C09281191304C09581191709F432
:1015800029CF4E175F0799F7009124039091250307
:10159000191309C090912903191305C090912D03C7
:1015A000191709F419CF90912703191309C09091C5
:1015B0002903191305C090912B03191709F40CCFB7
:1015C00007E30ACF9081911101C08F5F9181911142
:1015D00001C08F5F9281911101C08F5F33962E17EA
:1015E0003F0781F7811189C067EC72E089E393E0DE
:1015F0000E94FB066EEB72E089E393E00E94FB061B
:10160000688116160CF06DE289E393E00E94C50232
:10161000698116160CF06DE289E393E00E94C50221
:101620006A8116160CF06DE289E393E00E94C50210
:101630006EEB72E089E393E00E94FB06239683E061
:10164000CE32D807E9F680912E0368E472E0882351
:1016500011F067E672E089E393E00E94FB066EEB0F
:1016600072E089E393E00E94FB066091010289E346
:1016700093E00E94C5026EEB72E089E393E00E9462
:10168000FB066091000289E393E00E94C5026EEBC5
:1016900072E089E393E00E94FB066AE173E089E36C
:1016A00093E00E94FB0665EC72E089E393E00E9400
:1016B000FB06C5E060E971E080E090E00E949302E3
:1016C00063E080E00E944E086FEC72E084EB94E0EF
:1016D0000E94FB066AEF70E080E090E00E949302B7
:1016E00063E080E00E944E0862E173E084EB94E0E6
:1016F0000E94FB06C150F1F616CF67EB72E089E35A
:1017000093E00E94FB066EEB72E089E393E00E9497
:10171000FB06688116160CF06DE289E393E00E94E7
:10172000C502698116160CF06DE289E393E00E9410
:10173000C5026A8116160CF06DE289E393E00E94FF
:10174000C5026EEB72E089E393E00E94FB062396EC
:1017500083E0CE32D807E9F680912E0368E472E088
:10176000882311F067E672E089E393E00E94FB06AC
:101770006EEB72E089E393E00E94FB066091010248
:1017800089E393E00E94C5026EEB72E089E393E087
:101790000E94FB066091000289E393E00E94C5026B
:1017A0006EEB72E089E393E00E94FB0660EC72E06E
:1017B00089E393E00E94FB066EEB72E089E393E01D
:1017C0000E94FB0663E080E00E944E0860E872E041
:1017D00084EB94E00E94FB0680912403811116C0E3
:1017E0006AEE72E084EB94E00E94FB066AEE72E01F
:1017F00089E393E00E94FB0665EC72E089E393E0E5
:10180000DF91CF911F910F910C94FB068130A1F7CE
:1018100080912E03811109C06AE073E084EB94E0AB
:101820000E94FB0668E472E0E3CF813029F76AEF9B
:1018300072E084EB94E00E94FB066AEF72E0D8CF7E
:10184000DF91CF911F910F910C94F2061F920F928E
:101850000FB60F9211242F933F938F939F93AF93C3
:10186000BF938091310390913203A0913303B091E3
:1018700034033091300323E0230F2D3758F50196C0
:10188000A11DB11D20933003809331039093320347
:10189000A0933303B09334038091350390913603C2
:1018A000A0913703B09138030196A11DB11D80931B
:1018B000350390933603A0933703B0933803BF9159
:1018C000AF919F918F913F912F910F900FBE0F90ED
:1018D0001F90189526E8230F0296A11DB11DD2CFA7
:1018E0001F920F920FB60F9211240BB60F922F93E7
:1018F0003F934F935F936F937F938F939F93AF9398
:10190000BF93EF93FF9389E393E00E944003FF911D
:10191000EF91BF91AF919F918F917F916F915F9167
:101920004F913F912F910F900BBE0F900FBE0F90D4
:101930001F9018951F920F920FB60F9211240BB69D
:101940000F922F938F939F93EF93FF93E09149030F
:10195000F0914A038081E0914F03F091500382FDA2
:101960001DC09081809152038F5F8F73209153032C
:10197000821741F0E0915203F0E0E75CFC4F958F55
:1019800080935203FF91EF919F918F912F910F9030
:101990000BBE0F900FBE0F901F9018958081F2CF55
:1019A00010923C0310923B0388EE93E0A0E0B0E07D
:1019B00080933D0390933E03A0933F03B093400375
:1019C00084E292E090933A038093390385EC90E0AF
:1019D000909346038093450384EC90E090934803F2
:1019E0008093470380EC90E090934A0380934903EF
:1019F00081EC90E090934C0380934B0382EC90E059
:101A000090934E0380934D0386EC90E090935003A7
:101A100080934F0310925203109253031092540379
:101A2000109255031092B7041092B60480E492E02D
:101A30009093B5048093B40485E28093B8048FEF4B
:101A40008093B90484E28093BA0483E28093BB0458
:101A500082E28093BC0481E28093BD0480E28093A3
:101A6000BE041092BF041092C0041092C1041092E0
:101A7000C2041092C30461E080E10E94AE0710929C
:101A8000470410924B0410924A0410924C0486E3CF
:101A900092E09093460480934504E1E6F4E01082DE
:101AA000148213821582369684E0ED39F807B9F76F
:101AB0008CE092E09093A8048093A70489E092E0E0
:101AC0009093AA048093A90484E08093AB0483E0FC
:101AD0008093AC0480E192E09093A6048093A504E7
:101AE0008AE090E09093AE048093AD0484EF91E09F
:101AF0009093B0048093AF041092B3041092B20498
:101B00001092A1041092A2041092A3041092A404B3
:101B10001092B1041092D8031092DC031092DB03F0
:101B20001092DD0386E392E09093D7038093D6036F
:101B3000E2EFF3E08EE294E01082148213821582C9
:101B400036968E179F07C1F785E092E0909339048F
:101B50008093380482E092E090933B0480933A04AF
:101B600084E080933C0483E080933D0480E192E034
:101B700090933704809336048AE090E090933F047A
:101B800080933E0484EF91E090934104809340045D
:101B900010924404109243041092320410923304C1
:101BA0001092340410923504109242040895CF9399
:101BB000DF9300D000D0CDB7DEB7789484B58260D3
:101BC00084BD84B5816084BD85B5826085BD85B5E1
:101BD000816085BD80916E00816080936E0010925F
:101BE00081008091810082608093810080918100DA
:101BF000816080938100809180008160809380006B
:101C00008091B10084608093B1008091B0008160C8
:101C10008093B000809191008260809391008091C8
:101C20009100816080939100809190008160809309
:101C300090008091A10082608093A1008091A1001A
:101C400081608093A1008091A00081608093A000BA
:101C50008091210182608093210180912101816026
:101C600080932101809120018160809320018091E7
:101C70007A00846080937A0080917A0082608093F9
:101C80007A0080917A00816080937A0080917A0056
:101C9000806880937A001092C100E0914903F0912E
:101CA0004A0382E08083E0914903F0914A03108265
:101CB000E0914503F09146031082E0914703F091D3
:101CC000480380E1808310925103E0914D03F0912D
:101CD0004E0386E08083E0914B03F0914C038081BA
:101CE00080618083E0914B03F0914C038081886098
:101CF0008083E0914B03F0914C0380818068808366
:101D0000E0914B03F0914C0380818F7D808364E0F0
:101D100084E10E94AE07829A9EE2292E93E0392E3A
:101D200023E0C22ED12CE12CF12C85E494E00E941A
:101D3000AD04898386ED93E00E94AD04182F2981BC
:101D4000233209F445C19CF4222309F462C0909126
:101D50002F03923009F0A9C1809124038111BBC0E7
:101D600060910102898181530E94980952C080913B
:101D70002F0399819A3261F0903349F7882391F0CB
:101D8000813009F0ABC087E40E945D0882E00EC09C
:101D9000823079F40E94A6076AEF70E080E090E05C
:101DA0000E94930283E50E945D0881E080932F03E7
:101DB00030C0813009F08FC0809101029091000203
:101DC000909301028093000262E080E00E944E083E
:101DD0006EE672E084EB94E00E94FB0660910102E3
:101DE00084EB94E00E94C50280912E0362E0882378
:101DF00009F46BC08BE00E944E0867E772E084EB49
:101E000094E00E94FB066091000284EB94E00E9443
:101E1000C50280912E038130B1F480912F0382306E
:101E200091F4133209F469C10CF062C1112359F025
:101E300080912403813009F060C1609100028FEC31
:101E4000810F0E94980980912E0381115EC18091BB
:101E50002F03823009F059C180912403813009F0A9
:101E600054C160E273E080E090E00E9493020E941F
:101E70000B112B013C010E940B114B015C010E94D4
:101E80000B1169837A838B839C83809101020E946A
:101E90005306182FF0910002FD838F2F0E945306E6
:101EA0008E83173309F45CC1873359F0C301B20143
:101EB00025E630E040E050E00E9463116B350CF401
:101EC0001FC16D818FEF810F1EC18BE00E944E08F4
:101ED00069E972E094CF0E94F2069BCF823009F04C
:101EE00098CF67EC72E089E393E00E94FB066EEB0B
:101EF00072E089E393E00E94FB06E5E2F3E0FA83F7
:101F0000E983E981FA81608116160CF06DE289E3BC
:101F100093E00E94C502E981FA81618116160CF0F6
:101F20006DE289E393E00E94C502E981FA81628152
:101F300016160CF06DE289E393E00E94C5026EEB89
:101F400072E089E393E00E94FB0689819A810396FF
:101F50009A83898328163906A1F680912E0368E4B6
:101F600072E0882311F067E672E089E393E00E9453
:101F7000FB066EEB72E089E393E00E94FB06609142
:101F8000010289E393E00E94C5026EEB72E089E3EF
:101F900093E00E94FB066091000289E393E00E94B7
:101FA000C5026EEB72E089E393E00E94FB0660ECF1
:101FB00072E089E393E00E94FB0665EC72E089E33E
:101FC00093E00E94FB060E94A60710922F0321CFE8
:101FD00080912F03813009F07ECF90912E038927C5
:101FE00080932E0361E080E0913099F10E944E08C9
:101FF00061E672E084EB94E00E94FB0662E08BE015
:102000000E944E0867E772E084EB94E00E94FB06B2
:102010006091000284EB94E00E94C50263E080E0DE
:102020000E944E0860E872E084EB94E00E94FB0698
:1020300080912403811107C06AEE72E084EB94E082
:102040000E94FB06E6CE813009F0E3CE6AEF72E033
:10205000F5CF0E944E086CE872E084EB94E00E9499
:10206000FB0662E08BE00E944E0869E972E084EBB7
:1020700094E00E94FB066091000284EB94E00E94D1
:10208000C50263E080E00E944E0860E872E084EBE5
:1020900094E00E94FB0680912403882369F281303A
:1020A00009F0B7CE6AE073E0C9CF913009F013CFE1
:1020B000E981E83309F00FCF8091240389278093C9
:1020C000240363E080E00E944E0860E872E084EB45
:1020D00094E00E94FB0680912403882309F4ACCF8E
:1020E000813009F096CE80912E038111AFCFDACFE7
:1020F0001A3219F0103309F09BCE0E94F206A3CEDB
:102100006D818E8181500E9498090E94CF030DCE6F
:102110000E940B11A70196010E9463116D830E941A
:102120000B11A70196010E946311962F8D81282F14
:10213000880F330BF901EE0FFF1FE20FF31FEB5D6A
:10214000FC4FE90FF11D97FDFA9580818111E0CFD9
:102150008D81880FED818E0F60910002890FD3CFA2
:10216000FE81F73369F6C501B401A70196010E940B
:1021700063116D8369817A818B819C81D2CF8F922B
:102180009F92AF92BF92CF92DF92EF92FF92CF9346
:10219000DF93EC01688179818A819B8161157105EA
:1021A0008105910521F464E279ED8BE597E02DE15D
:1021B00033EF41E050E00E94631149015A019B0155
:1021C000AC01A7EAB1E40E9482116B017C01ACEE84
:1021D000B4EFA50194010E949011C60ED71EE81E0F
:1021E000F91EF7FE06C081E0C81AD108E10880E8B0
:1021F000F80AC882D982EA82FB82C701B6019F77BA
:10220000DF91CF91FF90EF90DF90CF90BF90AF9094
:102210009F908F9008958F929F92AF92BF92CF928E
:10222000DF92EF92FF9260911C0270911D028091EB
:102230001E0290911F02611571058105910521F41F
:1022400064E279ED8BE597E02DE133EF41E050E07A
:102250000E94631149015A019B01AC01A7EAB1E454
:102260000E9482116B017C01ACEEB4EFA5019401D8
:102270000E949011C60ED71EE81EF91EF7FE06C07A
:1022800081E0C81AD108E10880E8F80AC0921C026F
:10229000D0921D02E0921E02F0921F02C701B60109
:1022A0009F77FF90EF90DF90CF90BF90AF909F907F
:1022B0008F90089560931C0270931D0280931E02FC
:1022C00090931F020895052E97FB1EF400940E9420
:1022D0007A1157FD07D00E94951107FC03D04EF4E8
:1022E0000C947A1150954095309521953F4F4F4F62
:1022F0005F4F089590958095709561957F4F8F4FB2
:102300009F4F08950E94B711A59F900DB49F900D07
:10231000A49F800D911D11240895B7FF0C94821184
:102320000E948211821B930B0895A1E21A2EAA1B10
:10233000BB1BFD010DC0AA1FBB1FEE1FFF1FA21775
:10234000B307E407F50720F0A21BB30BE40BF50B72
:10235000661F771F881F991F1A9469F760957095FB
:10236000809590959B01AC01BD01CF010895A29F7E
:10237000B001B39FC001A39F700D811D1124911D59
:10238000B29F700D811D1124911D08950E94371276
:1023900008F481E008950E94631288F09F5798F036
:1023A000B92F9927B751B0F0E1F0660F771F881F5A
:1023B000991F1AF0BA95C9F714C0B13091F00E9474
:1023C0007D12B1E008950C947D12672F782F882735
:1023D000B85F39F0B93FCCF3869577956795B3959B
:1023E000D9F73EF490958095709561957F4F8F4F0A
:1023F0009F4F0895E89409C097FB3EF4909580950F
:10240000709561957F4F8F4F9F4F9923A9F0F92FBA
:1024100096E9BB279395F695879577956795B79538
:10242000F111F8CFFAF4BB0F11F460FF1BC06F5F1E
:102430007F4F8F4F9F4F16C0882311F096E911C030
:10244000772321F09EE8872F762F05C0662371F051
:1024500096E8862F70E060E02AF09A95660F771F65
:10246000881FDAF7880F9695879597F90895990F41
:102470000008550FAA0BE0E8FEEF16161706E8074E
:10248000F907C0F012161306E407F50798F0621B6F
:10249000730B840B950B39F40A2661F0232B242B44
:1024A000252B21F408950A2609F4A140A6958FEF63
:1024B000811D811D089557FD9058440F551F59F0F7
:1024C0005F3F71F04795880F97FB991F61F09F3F21
:1024D00079F087950895121613061406551FF2CF4A
:1024E0004695F1DF08C0161617061806991FF1CF9A
:1024F00086957105610508940895E894BB276627C1
:102500007727CB0197F90895EE0FFF1F881F8BBF28
:0C2510000790F691E02D1994F894FFCF8D
:10251C004F580A0B0C353433321A1B1C161718196A
:10252C003132333435363738392A30230100000044
:10253C00000000006203CC02F902AF032A03080377
:10254C001C0300000000A204A604AA040000000062
:10255C009209CC0201040004426F74002E2E2E2E20
:10256C002E2053657474696E6773202E2E2E2E2EBA
:10257C00004D6F64653A20506C6179657200506C47
:10258C0061796572313A00506C61796572323A004A
:10259C004E6F7720706C6179733A20004D6F6465D3
:1025AC003A20426F742020200020202020426F749B
:1025BC003A002E2E2E2E2E2047616D6520582F4F5F
:1025CC00202E2E2E2E2E007B7374617274002C0024
:1025DC004E6F6E65007D007B77696E6E65720020B4
:1025EC0020202020202020202020202020202020DF
:1025FC00200057696E6E65723A20506C6179657275
:10260C00310057696E6E65723A20506C6179657253
:10261C00320057696E6E65723A20426F742020202A
:10262C00200057696E6E65723A2044726177000023
:00000001FF
